:020000040000FA
:1000000000800020F52C000001400020FF2C0000A3
:1000100000000000000000000000000000000000E0
:10002000000000000000000000000000FF2C0000A5
:100030000000000000000000012D0000032D000062
:10004000052D0000A50E0000052D0000052D000067
:10005000052D00001F41000097080000052D00003D
:10006000052D0000052D0000052D0000052D0000C8
:10007000C5410000052D0000052D0000052D0000E4
:10008000052D0000052D0000052D0000052D0000A8
:100090000448854604F008FB00480047D5030000EB
:1000A000C046C046008000207CB57B4D0C462878B9
:1000B000090408D516F092FB002801D016F066FB63
:1000C0000120C00324E0E10701D0012020E0610706
:1000D0000BD5FF21F5310091082201900023114634
:1000E000688806F0C7F9042012E0A00712D56B4813
:1000F0000078012806D1684B082214330121002022
:1001000002F0E8F920220221287816F043FD0220AF
:1001100060407CBD00207CBD30B585B060480CF0EF
:10012000A1FA5D4D0124287069460C706A4621468B
:100130005C4806F047FB5B482A1D0721401C06F07F
:1001400041FB58482A461C321D21801C06F03AFB10
:10015000554A1521002008F053F800206946009008
:100160000C710872032008730C746A4604214F480E
:1001700005F006FF012101AA880205F001FF4B48A6
:1001800002AA0121801F05F0FBFE484803AA0121B5
:10019000401F05F0F5FE454804AA0121801E05F028
:1001A000EFFE06206946087001216A46084601F004
:1001B0008CFE02F065FC29463C310846303802F0DE
:1001C0006BF90121287816F093FB05B030BD1CB502
:1001D00003000CF010FC072E05101F121D2F2E001F
:1001E000C1206946800006F0BDF86946012006F08E
:1001F000C1FC2FA01FE032A01DE0274849894180A3
:100200001922D2010421007816F0C4FC30A012E0BB
:1002100033A010E08878042805D0062805D00528EA
:1002200007D136A007E03BA005E0897940A00CF09B
:10023000A3FB1CBD45A00CF09FFB1CBDF8B5002422
:10024000079E069D002B04D0012B15D0022B19D040
:100250001FE0414B9A420AD1022908D12B78012B89
:1002600003D00D24002C02D013E00024FAE70096FE
:100270002B7802F061FC03E02B46009602F07CFC38
:10028000044606E00448FF22F5320221007816F009
:1002900081FC2046F8BD70472042002089420020A2
:1002A000A900000005030000026D01000704000022
:1002B000496E697469616C697A65642E2E0A000062
:1002C0004164766572746973696E672E2E0A000048
:1002D000436F6E6E65637465642E2E0A0000000025
:1002E000436F6E6E656374656420416476657274F5
:1002F0006973696E672E2E0A0000000041647665FE
:1003000072746973696E672074696D656F75742E98
:100310002E0A000057616974696E6720666F72204B
:100320006164766572746973696E672E2E0A0000C7
:10033000446973636F6E6E65637465642E2E20521C
:100340006561736F6E3A25780A0000004572726F1E
:10035000722E2E0A000000004D2A000010B500F099
:100360004DFC2CA00CF008FB03F049FE2DA00CF076
:1003700003FB03F0C4FE2FA00CF0FEFA06F00AF90E
:100380002FA00CF0F9FA01F044FD34A00CF0F4FABF
:1003900002F05BF835A00CF0EFFAFFF7BDFE37A0D6
:1003A0000CF0EAFA00F05BFA38A00CF0E5FA01F084
:1003B000AAFB3AA00CF0E0FA00F008FC3BA00CF01D
:1003C000DBFA00F032FC3DA00CF0D6FA0A2003F074
:1003D000BFF910BD022002F0AEFC012002F01CFDAE
:1003E0001021012003F0A0F8052003F0B1F93749EE
:1003F0008A6A481502438A62032102F0CFFF03F0A4
:10040000D4F9334933A00CF0B7FAFFF7A7FF0CF08B
:1004100047F9FCE7526762506F7765725F496E6912
:10042000740D0A0043483537585F424C45496E69A0
:10043000740D0A0048414C5F496E69740D0A000052
:10044000474150526F6C655F5065726970686572A4
:10045000616C496E69740D0A000000005753323810
:1004600031325F496E69740D0A00000048696444C6
:1004700065765F496E69740D0A000000486964453D
:100480006D755F496E69740D0A000000557362480E
:1004900069645F496E69740D0A0000006B657942FA
:1004A0006F6172645F496E69740D0A00566F6C4229
:1004B00061745F496E69740D0A00000045657072D1
:1004C0006F6D5F496E69740D0A0000008010004076
:1004D000BC6F010025730A00704710B5EE48FF217C
:1004E00000684030C171082003F0DCF910BD10B580
:1004F000EA49FF22096840318A7003F0CBF910BD48
:1005000070B5E84A0021E64D126805E053186C5CAE
:100510004033491C1C70C9B28142F7D303F0B2F9D1
:1005200070BDFEB5E04D0026A879E04C81077DD571
:10053000E879DF4F8206DF48920EB9780068202AFA
:1005400075D006DC13000CF056FA05FDFCFBFAF939
:100550007500232A6CD004DC212A6AD0222A69D1B2
:100560001DE1242A67D0302AF9D1C221A170297A4D
:1005700008296ED1C179827909021143B9800291AB
:100580004278BA7003780093019300215B069B0FB9
:1005900004D0092A01D00A2A5BD1A5E013000CF08F
:1005A0002AFA0B9B6E8282825E07826468948200C4
:1005B000C278837812021A43130A012B06D0022B49
:1005C00008D0032B17D0222B1CD108E0BA49B96000
:1005D000122118E0B8491231B960732113E0427951
:1005E000037912021A431206120E0BD1B2493D3999
:1005F000B9603D2107E01206120E20D0012A23D057
:10060000022A27D0FF26029A8A4200D9B980B988E7
:10061000402900D34021C9B20A460091B96803F0CD
:1006200070FEB86800994018B86005E0DEE06CE044
:10063000C2E0A7E09EE0CEE0FF2E34D054E09E4919
:100640004139B9600421DEE79B498531B9600E214B
:10065000D9E728E098499331B9601A21D3E7C178E6
:10066000827808021043C0B201E079782EE0B880A9
:100670003AE0C178827808021043787034E000993B
:10068000C906C90E02290ED1417902790802104328
:10069000C0B27321012814D002280AD0BC218128BD
:1006A0000BD0822801D0CF2057E0A07A0840801CD0
:1006B00001E0A07A0840A07216E0A0790840801CF2
:1006C00001E0A0790840A0710EE000210170B88817
:1006D000012809D90120CAE7002101704170B888BA
:1006E000022801D90220C2E70198000609D5B9887D
:1006F000402901D9402000E00846C0B2091AB9805B
:1007000000E000202070C02027E0694A0529928877
:100710001DD0062902D0002020701DE0402A00D301
:100720004022D6B23246B96803F0EBFDB888801B90
:10073000B880B8688019B860267004E042E034E000
:1007400026E018E00BE0A0784021484005E0E8787A
:10075000C009C0011043E8700220A07044E02A7A6A
:10076000092941D10078002801D054A000E059A007
:100770000CF002F938E0E879400635D5287AFFF721
:10078000BFFE31E0A07980088000801CA0712BE0C2
:10079000E879400628D5287AFFF7A9FE24E0A07A58
:1007A00080088000801CA0721EE0E87940061BD5FE
:1007B000287AFFF792FE17E0A07B80088000801C5B
:1007C000A07311E0E87940060ED5A07C8021484056
:1007D000A074287A08E0A07C40214840A074A07C46
:1007E00080088000801CA07402200CE0C1070CD09F
:1007F0000020E8700220A0701220A071A072A073E7
:10080000A87901210843A871FEBD4107FBD568798D
:100810000420F8E770B5264D0C4608040AD5287860
:1008200015F0DCFF002801D015F0B0FF0120C00357
:10083000604070BDE007FCD02D480078002805D14D
:100840000820FFF75DFE0820FFF751FE402201213E
:10085000287816F09FF920460121484070BD10B558
:1008600024480BF0FFFE124C124920702248086009
:100870000C49C03008600949803008600649803062
:10088000086002F0D7FF1D49402008600121207850
:1008900016F02EF810BD44E60C4800200848002051
:1008A00034420020044800200080004020800040A6
:1008B0006C42002000480020586D01004C696768B8
:1008C00074206F6E204E756D204C6F636B204C450D
:1008D00044210A004C69676874206F6666204E7573
:1008E0006D204C6F636B204C4544210A00000000D2
:1008F0008942002015080000E46A002000E100E0C1
:1009000010B5F4A00CF038F8F5484168F5A00CF0EB
:1009100033F8F7A00CF030F8F14C0834E0790028F7
:1009200002D0012805D101E0F6A000E0F8A00CF00B
:1009300023F8FCA00CF020F8A079002807D00128AB
:1009400007D0022802D1FAA00CF016F810BDFBA0C7
:10095000FAE7FCA0F8E7FE48C16A82151143C162BC
:10096000704770B5FFF7F7FFFA48EE21007816F0F0
:100970006FF901228021104600F0C6FB01224021C0
:10098000104600F0C1FB01222021104600F0BCFB04
:1009900001221021104600F0B7FB01220821104669
:1009A00000F0B2FB02222021002000F0ADFB022269
:1009B0004021002000F0A8FB02220121002000F0CD
:1009C000A3FB02221146002000F09EFB022204211C
:1009D000002000F099FB02220821002000F094FB87
:1009E000022294032146002000F08EFB0222150310
:1009F0002946002000F088FB0222D6023146002062
:100A000000F082FB02220421012000F07DFB022283
:100A10001146012000F078FB01210222084600F077
:100A200073FB2021002000F0A0FB4021002000F0FB
:100A30009CFB0121002000F098FB0221002000F027
:100A400094FB0421002000F090FB0821002000F01E
:100A50008CFB2146002000F088FB2946002000F096
:100A600084FB3146002000F080FB0421012000F0CF
:100A70007CFB0221012000F078FB0121084600F0F8
:100A800074FBB549022008601021012002F08BFDA3
:100A9000B2A00BF071FF012002F05AFE002003F01B
:100AA00041FEAB488038817A490705D404210120F2
:100AB00002F03AFDF02003E00089800502D4AE2068
:100AC00002F036FE012002F0CCF9012002F030FEE7
:100AD000022002F030F9A7A00BF04EFFFF20F53006
:100AE00002F036FE70BD9A48816A82151143816218
:100AF000704770B50E460146002530040BD50846F8
:100B000015F06CFE002801D015F040FE01213046A2
:100B1000C903484070BDF007FCD0002402F046FF36
:100B2000641C4519E4B20A2CF8D30A21284603F0C4
:100B300071FB03F0E7FC924A924B03F003FC924AEC
:100B4000924B03F067FC0022914B03F0FBFB002269
:100B5000904B03F05FFC03F0E3FC614C6060FFF737
:100B6000CFFE2346083398884B21401E80B2C9002F
:100B70009880884202D8FFF7EEFE04E098790028BA
:100B800001D0FFF7B0FF98880125012803D8D87954
:100B900001280DD09D808049606888420BDCA078D8
:100BA000401CC0B2A070052807D3FFF7DAFE04E0AE
:100BB000FFF7D7FEEFE70020A07019229201012174
:100BC000607815F0E7FF3046684070BD10B5002131
:100BD000102002F0E3FB0221002002F0C3FE5C497A
:100BE0000020403908766D480BF03CFD3C49192245
:100BF00048709201012115F0CDFF10BD10B5FF2402
:100C000001340321204602F0C9FB51498A6A22437C
:100C10008A62FFF768FF3248002108300170417096
:100C20008170E121C900818010BDFEB55CA00BF090
:100C3000A3FE684602F00AFF694608884988401802
:100C40006946898840186946C98880B2884224D19B
:100C500000246D46295D56A00BF08EFE641CA4B2E4
:100C6000062CF7D354A00BF087FE7D25ED022878E3
:100C70001B4C0007000F01260834032811D9A67168
:100C8000284602F0F9FEA179284602F066FF002806
:100C900005D04AA00BF070FE04E04EA0E3E755A09B
:100CA000F8E7A0715AA00BF067FEA1795BA00BF0EA
:100CB00063FEA07900280BD0FFF715FF58A00BF0BA
:100CC0005BFE287800270006000F032801D9A9E061
:100CD000B9E0BEE0566F6C426174203D2000000018
:100CE00078420020256C646D56202F2F00000000F4
:100CF0004B6579626F617264204D6F6465203D20A1
:100D000000000000555342206D6F6465202F2F00B6
:100D1000426C7565746F6F7468206D6F6465202F09
:100D20002F000000524742204D6F6465203D200097
:100D3000626C696E6B202F2F000000006F666620CA
:100D40002F2F000062726561746865202F2F0000EC
:100D5000801000408F42002000E100E0736875744D
:100D600020646F776E206D6F646520736C656570AD
:100D7000200A000077616B652E2E200A000000001B
:100D8000CDCCCCCCCCCCF03FFCA9F1D24D62004014
:100D90000060684000C052408C0A0000F30A000066
:100DA000476574556E6971756549443A20000000C5
:100DB00025303278200000000A0000007772697444
:100DC000655F5247426D6F64655F6661696C65641B
:100DD0002E2E0A00556E697175654944206973208D
:100DE0006572726F72206F72206E6F6E65202121A6
:100DF00021200A0077726974655F5247426D6F6403
:100E0000655F737563636573732E2E0A00000000BF
:100E10005247425F4D4F44453A00000025640A00A6
:100E20004F6E0A00E771284602F026FEE179A079AC
:100E300009014118284602F090FE002807D083A03F
:100E40000BF09AFD06E0FFF786FD88A037E789A042
:100E5000F6E7E071E0798F498F4B904A904C00287B
:100E600002D001280BD018E00F701F7001211078FC
:100E700015F0EEFE0221207815F0EAFE0DE00E706E
:100E80001E700121107815F0E3FE0221207815F084
:100E9000DFFE0221207815F02BFD82A029680BF0DF
:100EA0006BFDFEBD82488149818382498183704701
:100EB00070B581487E4C02787D258049CF202D0178
:100EC000803C13000BF097FD05040D1D41590C00EB
:100ED00008784006400E08700878302210430870E9
:100EE00070BD0A785206520E0A700A7802400A70E3
:100EF00073A00BF041FD012002F02AFC02F082FBFE
:100F00001EE00A785206520E0A700A7802400A70F1
:100F100070A00BF031FD012002F01AFC03F008FC78
:100F200022E02089800502D4AE2002F001FC0120DD
:100F300001F097FF012002F0FBFB022001F0FBFE15
:100F400069480BF019FD284645E00A785206520E12
:100F50000A700A7802400A7064A00BF00DFD0120AF
:100F600002F0F6FB03F0EAFBA07A4007D9D4042193
:100F7000012002F0D9FAF020D7E70A785206520E83
:100F80000A700A7802400A70574818380BF0F4FCCF
:100F9000012002F0DDFB002003F0C4FBA07A400733
:100FA00005D40421012002F0BFFAF02003E02089DB
:100FB000800502D4AE2002F0BBFB012001F051FFFE
:100FC000012002F0B5FB022001F0B5FE46480BF00F
:100FD000D3FCFF20F53002F0BBFB70BD10B50C4612
:100FE000090408D515F0FAFB002801D015F0CEFB56
:100FF0000120C0030BE0E0070AD0FFF759FF2E489D
:10100000192252010121C07815F0C4FD0120604071
:1010100010BD10B53A480BF025FB274C0121E070BC
:10102000022002F0E0F90221084602F024FA3549D4
:10103000022008601021012002F0B5FA1922920165
:101040000121E07815F0A6FD10BD000077726974EB
:10105000655F6B6579626F6172645F6D6F64655F18
:101060006661696C65642E2E0A0000004F46460AD0
:101070000000000077726974655F6B6579626F616B
:1010800072645F6D6F64655F737563636573732E00
:101090002E0A000089420020884200206C42002075
:1010A000204200202530386C782000006F8000003E
:1010B000801000400730000078420020008000408F
:1010C00049444C45206D6F646520736C65657020E4
:1010D0000A00000048616C745F31206D6F64652008
:1010E000736C656570200A00740D000048616C74B3
:1010F0005F32206D6F646520736C656570200A0037
:10110000DD0F000000E100E010B50B46002811469D
:10111000184602D002F067F910BD02F03FF910BD89
:10112000002802D0FE48406802E0FD484038406A8E
:10113000084000D00120704700280AD0F848012A52
:1011400003D0C2680A43C260704782680A43826063
:101150007047F3484038012A03D0C26A0A43C2628A
:101160007047826A0A438262704710B50A460028B7
:1011700004D00321104602F07EF910BD0321104671
:1011800002F057F910BDF8B5032280210120FFF7C6
:10119000BBFF032240210120FFF7B6FF03222021DD
:1011A0000120FFF7B1FF032210210120FFF7ACFF60
:1011B000032208210120FFF7A7FF00228021012040
:1011C000FFF7BAFF002240210120FFF7B5FF002200
:1011D00020210120FFF7B0FF002210210120FFF79E
:1011E000ABFF002208210120FFF7A6FF0A2002F032
:1011F000AFFA032220210020FFF786FF03224021BF
:101200000020FFF781FF032201210020FFF77CFF70
:10121000032202210020FFF777FF03220421002090
:10122000FFF772FF032208210020FFF76DFF012462
:10123000E403032221460020FFF766FFA5100322E6
:1012400029460020FFF760FFE61003223146002008
:10125000FFF75AFF032204210120FFF755FF032265
:1012600002210120FFF750FF012103220846FFF76A
:101270004BFFA701032239460120FFF745FF032258
:1012800061010120FFF740FF032221010120FFF748
:101290003BFF0A2002F05CFA002220211046FFF7F3
:1012A0004BFF002240211046FFF746FF002201219C
:1012B0001046FFF741FF002202211046FFF73CFFD6
:1012C000002204211046FFF737FF002208211046B4
:1012D000FFF732FF002221461046FFF72DFF0022C4
:1012E00029461046FFF728FF002231461046FFF737
:1012F00023FF002204210120FFF71EFF002202210C
:101300000120FFF719FF012100220846FFF714FF13
:10131000002239460120FFF70FFF00226101012062
:10132000FFF70AFF002221010120FFF705FF0A2035
:1013300002F00EFA022220210020FFF7E5FE022231
:1013400040210020FFF7E0FE022201210020FFF7EC
:10135000DBFE022211460020FFF7D6FE0222042106
:101360000020FFF7D1FE022208210020FFF7CCFE6B
:10137000022221460020FFF7C7FE02222946002054
:10138000FFF7C2FE022231460020FFF7BDFE022217
:1013900004210120FFF7B8FE022211460120FFF7C9
:1013A000B3FE012102220846FFF7AEFE02223946B3
:1013B0000120FFF7A9FE0222D1040120FFF7A4FEBD
:1013C000022291040120FFF79FFE012291051046A1
:1013D000FFF79AFE0A2002F0BBF9F8BDFEB5012125
:1013E000002589050120FFF79BFE002806D14D4905
:1013F000012088714C4948714C494871A8004C49FA
:10140000019009584A4801229C38405DFFF794FE3C
:1014100000242801471B4648A6004C3881593C301F
:10142000005DFFF77DFE012819D03F4800214038BC
:1014300038180155641CE4B20F2CECD33C490198D8
:10144000002209583A489C38405DFFF775FE01209C
:1014500002F06EF96D1CEDB2052DCFD3FEBD334900
:1014600001204039791808553C20294641432D4830
:1014700008300818009080592EA102F054FF00286F
:1014800007D000982CA1805902F04DFF002804D00D
:1014900006E0244901204871CCE722490120C870A8
:1014A000009827A1805902F03EFF002802D11D4973
:1014B000012008711C490120403979180855B9E705
:1014C000F0B5002087B005460146039002240822AB
:1014D0001D4815F03FF914484B220021403815F003
:1014E00039F910490020C8700871FFF777FF0E48DE
:1014F00040380178002902D1144900220A7041784D
:10150000002901D1114A51708178002901D10F4A77
:10151000917000200449019003984039020117E0BE
:10152000C010004088420020646D0020716E0020D1
:10153000A46E0100464E00004C53686966740000BA
:1015400052536869667400003442002080420020D3
:10155000101A0590401802900199405C012862D150
:10156000E120F94FC000F94EB880707901285DD0B4
:10157000062C27D2F6480599081801990090405C7E
:10158000FF281FD0F2281DD0F078012802D0307932
:1015900001280DD103983C214843EC4908314118FA
:1015A000019880000858EBA102F0BDFE00283BD056
:1015B00001990098415CE8480155641C7079E4B2D7
:1015C000012833D0E1488079012803987DD03C215F
:1015D0004843DE49083147180198E0498600B85968
:1015E00002F0A1FE002871D0B859DDA102F09BFEE7
:1015F0000028F8D0B859DCA102F095FE0028F2D0FE
:10160000B859DBA102F08FFE0028ECD0B859DAA15E
:1016100002F089FE0028E6D0D049B859083102F01E
:1016200082FE0028DFD082E13521C4E700207071FE
:1016300003983C214843C549083147180198D0A177
:101640008600B85902F06FFE002845D0B859CDA1E8
:1016500002F069FE002841D0B859CBA102F063FE28
:10166000002841D0B859C9A102F05DFE00283DD044
:10167000B859C7A102F057FE002839D0B859C5A102
:1016800002F051FE002835D0B859C3A102F04BFE3C
:10169000002831D0B859C1A102F045FE00282DD054
:1016A000B859BFA102F03FFE002829D0B859BDA10A
:1016B00002F039FE002825D0B859BBA102F033FE54
:1016C000002821D0B859B9A101E021E0E0E002F002
:1016D0002AFE00281AD02AE13A2100E03B219E4848
:1016E0000155641CE4B222E13C21F8E73D21F6E714
:1016F0003E21F4E73F21F2E74021F0E74121EEE708
:101700004221ECE74321EAE74421E8E74521E6E707
:101710003C2148438D4908314018019904908E00BE
:1017200080598CA102F0FFFD00282FD138780028C5
:101730002CD101203870B879401CC0B2B871022891
:1017400001D90020B8717D20C002009002F094F908
:10175000F979B879090141187D20C00202F0FDF93C
:1017600000281BD092A00BF007F9B879002817D0F9
:10177000FFF7B9F994A00BF0FFF8B97996A00BF038
:10178000FBF80098016895A00BF0F6F804987CA18E
:10179000805902F0C8FD002805D037E091A0E2E7AB
:1017A000FFF7D9F8E6E7787800282FD167480021BD
:1017B0004170017092480121007815F049FA914872
:1017C0000221007815F044FA012078700020F871A9
:1017D0007D20C002009002F04FF9F979B879090133
:1017E00041187D20C00202F0B8F9002816D086A06A
:1017F0000BF0C2F88DA00BF0BFF8F97976A00BF0D2
:10180000BBF80098016875A00BF0B6F804985DA1CC
:10181000805902F088FD002802D088E088A0E7E720
:10182000494880780028F8D1484801274770077058
:1018300073483946007815F00BFA724E0221307861
:1018400015F006FA0221307815F052F83E4EB770C6
:10185000F7717D27FF02384602F00EF9F179B07971
:1018600009014118384602F078F900280ED066A028
:101870000BF082F86DA00BF07FF8F17956A00BF019
:101880007BF856A039680BF077F850E06CA0EFE7D2
:10189000B859324902F047FD002806D12E480222ED
:1018A000017811436D1C0170EDB2B8592CA102F002
:1018B0003AFD002806D128480122017811436D1C09
:1018C0000170EDB2B85928A102F02DFD002806D113
:1018D00021480822017811436D1C0170EDB2B859FE
:1018E00023A102F020FD002806D11B480422017824
:1018F00011436D1C0170EDB21849B859083102F05E
:1019000012FD002806D114480222017811436D1CF3
:101910000170EDB2B85918A102F005FD002806D1FA
:101920000D480122017811436D1C0170EDB20120B8
:1019300001F0FEFE0198401CC0B201900F2801D2B8
:10194000029809E68EE000008042002088420020D4
:101950000D6E01004553430034420020381500004D
:101960004C4374726C0000004C4775690000000025
:101970004C416C7400000000524374726C00000013
:10198000310000003200000033000000340000008D
:10199000350000003600000037000000380000006D
:1019A00039000000300000002D0000002B00000076
:1019B00077726974655F5247426D6F64655F6661F7
:1019C000696C65642E2E0A005247425F4D4F4445B4
:1019D0005F4E6F773A00000025640A002530386CAE
:1019E0007820000077726974655F5247426D6F64BA
:1019F000655F737563636573732E2E0A00000000C4
:101A00006C4200202042002077726974655F6B652C
:101A100079626F6172645F6D6F64655F424C455FB0
:101A20006661696C65642E2E0A0000006B65796240
:101A30006F6172645F6D6F64655F4E6F773A00002F
:101A400077726974655F6B6579626F6172645F6DEF
:101A50006F64655F424C455F737563636573732E96
:101A60002E0A00000398401CC0B20390052800D243
:101A70004FE52E498879012806D10020887101465A
:101A800008222B4814F066FE002D02D128490020C0
:101A90000870002007B0F0BD70B50C46090409D5E8
:101AA00014F09CFE002801D014F070FE0120C00349
:101AB000604070BDEE2620463040FAD01B4D28789D
:101AC000202806D0A878401CC0B2A870192803D0DE
:101AD0000EE0FFF7F5FC0BE06878002810D0154801
:101AE0000221007814F004FF0020A8702020287044
:101AF0002022EE21E87915F04DF82046704070BDA7
:101B000001210D48EDE710B50C480AF0ABFD074C7C
:101B1000E071FFF738FBFF20F53001F019FE1922C4
:101B20009201EE21E07915F035F810BD88420020D1
:101B300034420020204200206C420020991A00000C
:101B400010B5BB48017800210170012001F0F0FDC3
:101B50000124A4030321204601F020FCB549CA6AF0
:101B60002243CA62502001F0E3FD10BDF8B50E46D5
:101B7000AF490746087815464022104308700024F4
:101B8000380602D50121AC4802E0AB480121401CD7
:101B900002F068F97806641C070EE4B2082CEFD353
:101BA0000024300602D50121A34802E0A248012109
:101BB000401C02F057F97006641C060EE4B2082CB3
:101BC000EFD30024280602D501219B4802E09A4861
:101BD0000121401C02F046F96806641C050EE4B2BF
:101BE000082CEFD3F8BD70B50125AD0303212846BD
:101BF00001F0D4FB02F0B6F8002211461046FFF7C0
:101C0000B5FF8B4C207800212170207821700321B2
:101C1000284601F0C3FB8749C86A2843C8625020A0
:101C200001F086FD207840210843207000221146F3
:101C30001046FFF79BFFFFF783FF70BDFFB581B034
:101C40001E4617460546002405E0324638460299EE
:101C5000FFF78CFF641CAC42F7D3FFF771FF05B0B0
:101C6000F0BDF8B505460026700037187C19A2783B
:101C70006178E85DFFF77AFFE85D002805D0052868
:101C800001D8002000E0401FE8556078002805D00A
:101C9000052801D8002000E0401F6070A0780028CF
:101CA00005D0052801D8002000E0401FA070761C58
:101CB0005C2ED9D3FFF744FFF8BDF8B5604E002085
:101CC0000E245E4D32233746C23F295C002907D0DF
:101CD000315C012904D1211A4A008918C9194B70B5
:101CE000401CC0B20F28F0D300201D242918C97B46
:101CF000002908D03118C97B012904D1211A4A00D2
:101D00008918C9194B70401CC0B20F28EED30021AE
:101D100008462A18927F002A0BD03218491C927F5D
:101D2000C9B2012A05D12B22521A54001219D21914
:101D30001371401CC0B20F28EBD3002108462A18AB
:101D40002032527B002A0CD032182032491C527BA0
:101D5000C9B2012A05D13922521A54001219D219D6
:101D60001371401CC0B20F28E9D3002108462A187D
:101D70002032127F002A0CD032182032491C127FE8
:101D8000C9B2012A05D14322521A54001219D2199C
:101D90001371401CC0B20F28E9D32948C238FFF79D
:101DA00060FFF8BD10B50C46090408D514F016FD07
:101DB000002801D014F0EAFC0120C00311E0E00784
:101DC00010D02048007801280DD0002814D0FFF74B
:101DD00074FF19485022401E0121007814F0DAFEE9
:101DE0000120604010BD1648C2220021C23814F004
:101DF000B1FC0023102207E01148C2220021C238A2
:101E000014F0A8FC1023002200214420FFF716FF45
:101E1000DFE710B5FFF7E7FE0B480AF023FC0649A1
:101E20001922491E08709201012114F0B3FE10BD61
:101E30000040004080100040BD4300200D6E0100B6
:101E4000316E002088420020A51D000010B5934986
:101E5000934805F001FB934B10221846052150389A
:101E600005F0CCFC10BD8F496839486170473EB51C
:101E700004460079C00727D06088884905F0B0FC87
:101E8000C00721D0002000906088002301221B2180
:101E900006F0BEF80290002816D0824869465038F5
:101EA000408D88800120C8807E480299683800787B
:101EB00008706088002201A905F08EFE002803D07A
:101EC0001B2101A806F0EAF83EBD10B50024012848
:101ED00002D00224204610BD724811786838417043
:101EE00000788842F6D2704810F08EF8F2E76D4B19
:101EF00010B50022683B002809D0012809D018330A
:101F0000022809D003280AD00222104610BD1878F2
:101F100000E058780870F8E758890880F5E76148CC
:101F2000623804780C7140784871588D0880588F59
:101F3000488001208871E8E770B55A4D683DA8686F
:101F4000002800D0804759480A21006802F078F93B
:101F500084B2E868002800D08047AA88944201D360
:101F6000642070BD6888844201D8002070BD296952
:101F7000002902D02046884770BD111A491C090467
:101F8000201A1922890C50434018401E02F058F9BB
:101F9000C0B270BD10B5FFF7CFFF424C683C21784E
:101FA000884203D02070404810F02EF8217840A0DD
:101FB0000AF0E2FC002010BD30B53A48049D6838B4
:101FC000039C41808280083038C030BD70B50498D1
:101FD00000241D461646002801D00B2070BD48681D
:101FE000427803781002364A184390420CD1FFF72A
:101FF000A3FF2C4968390A78904200D2087001206A
:102000002880087830700BE02E4A904207D10220D9
:1020100028800246C968304614F0A6FA00E00A2477
:10202000204670BD7CB54C68154662782478120253
:102030002243254C069EE24208D1012201920096DD
:102040002A4605F06FFA040003D000E00A24204677
:102050007CBD6878297800020843124968394969CB
:102060000029F4D0002802D001208847EFE70220A1
:10207000FBE710B504460A48401E84420DD00129F2
:1020800007D0022909D10121204610F025F80028A7
:1020900003D10249204605F0DFF910BD7C6E002017
:1020A000FFFF0000284400206F1E00007C4200203B
:1020B000626174746C6576656C3A25640A00000090
:1020C000192A000008290000FED6FFFF10B56E4B4C
:1020D000102213216D4805F091FB10BD10B50024AE
:1020E0001346002802D00224204610BD67480A4645
:1020F0001946093814F038FAF6E770B50D46002491
:1021000003000AF078FC09060A1014181C20242881
:102110002C005E490822093901E05D490D2228465C
:1021200014F022FA1CE05A490E220D31F7E7584903
:1021300012221B31F3E7564912222D31EFE75449A1
:1021400012223F31EBE7524912225131E7E7504961
:102150000E226331E3E74D4907221039DFE70224FD
:10216000204670BDF8B5496894464A780978170248
:102170000F430698474A11210025079CBE1A091AE9
:10218000974244D009DC444ABA1813D0012A1DD022
:10219000022A26D0032A08D12FE0012E41D0022E98
:1021A00049D0032E51D0292E5BD0002018800A255B
:1021B0002846F8BD082856D20821091AA14200D89D
:1021C0000C463249A2B21A80093957E00C284AD28B
:1021D0000C21091AA14200D80C46A2B21A802C493F
:1021E0004CE00D283FD20D21091AA14200D80C461F
:1021F0002749A2B21A800D3140E0112833D2A14202
:1022000000D80C462249A2B21A801B3136E01128B0
:1022100029D2A14200D80C461D49A2B21A802D3104
:102220002CE011281FD2A14200D80C461849A2B2B6
:102230001A803F3122E0112815D2A14200D80C4665
:102240001349A2B21A80513118E00E280BD20E2188
:10225000091AA14200D80C460D49A2B21A80633176
:102260000CE0072801D30725A2E70721091AA1429C
:1022700000D80C460549A2B21A80103909186046E8
:1022800014F072F994E700007845002048440020DB
:10229000E06E0100272A0000DDD5FFFF70470146F0
:1022A00010B5FA480129807904D0022901D114F02F
:1022B000CFFC10BDF64A022114F06CFC10BDFEB537
:1022C000064600201746F14C0D4603460A4600908C
:1022D0001B21208905F09CFE0290002813D068463F
:1022E0008680C5802A463946029814F03DF90022BE
:1022F00001A9208905F070FC040005D01B2101A86C
:1023000005F0CCFE00E013242046FEBD30B5DF4AC8
:102310000446E04BD068D2791B780BE00579A542E2
:1023200005D145798D4202D185799D4205D0521E55
:10233000D2B20830002AF1D1002030BDFFB581B003
:1023400015460E460746FFF7E1FF04001CD06088E3
:10235000694605F027FB002816D0C168CB480089E4
:1023600005F03EFAC0070FD020882946049AFFF7EF
:10237000A6FF002808D1C8482A4607704670857015
:10238000C01C049914F0F0F805B0F0BD70B5BF4E54
:102390000C46B079090408D514F020FA002801D0C1
:1023A00014F0F4F90120C00323E0E10707D0B74A95
:1023B00020321146083904F0D1F9012019E06007F4
:1023C0000DD53078042808D1B4A00AF0D5FAB07839
:1023D000002802D1308904F0BBFA042009E0A007EC
:1023E00009D5FFF7D7FDAA4A0221B07914F0D2FB34
:1023F0000220604070BD200725D570780821254651
:102400004D4000281BD030797179884201D10023DA
:1024100009E00B21401C01F0FDFE31710B2041430E
:102420009D480B300B18002B05D09A7859781878F6
:10243000DB1CFFF783FF30797179884201D1284690
:1024400070BD204670BD002070BD38B598480AF0B8
:1024500009F98E4C6946A0710120087001466A4650
:10246000944803F08DFD0025ED43284605F01EFE3F
:10247000284604F0A7FFFFF729FEFFF7E7FC00F06E
:10248000A1FB8D48FFF7EFFC8C4800F0A8FB012171
:10249000A07914F02DFA38BD7C4A11615061704763
:1024A0007A4AD160D071704708B53021032004F01A
:1024B000ABFE5021042004F0A7FE3C21012004F0D3
:1024C000A3FE01206946087001466A467C4804F074
:1024D00079F908BDF8B50E466C49074608781C46E0
:1024E000154604281AD0022826D000F06BFA0028DE
:1024F00020D02021032004F087FE3021042004F0A6
:1025000083FE0521012004F07FFE0120694608704A
:1025100001466A466A4804F055F90DE048780028FB
:102520000AD008794979884206D131463846FFF702
:1025300005FFF8BDFFF7B8FF23462A463146384667
:1025400000F04BFAF8BD08B550480178042908D0CE
:102550000020694608706A460121594804F032F9A2
:1025600008BD008904F0F4F908BDF8B5002400287E
:1025700002D002242046F8BD002901D01824F9E732
:10258000454F79783878FFF7C1FE05001CD0BA783E
:10259000F91C0023082A09D8002004E00E5C9E42A2
:1025A00004D1401CC0B29042F8D308E00021F81CCE
:1025B00014F0D0F8B9782888FA1CFFF780FE0B22B7
:1025C0000021354814F0C6F8304D2878042802D18F
:1025D000288904F0BDF9002068712871024601467F
:1025E0004120000103F0CCFCC4E7022070470A46FA
:1025F000014610B52548008903F0A8FA10BD10B5B2
:1026000022490246234BC868C9791B7808E0048830
:10261000944202D184799C4205D0491EC9B2083047
:102620000029F4D1002010BDFEB517464A681D46AA
:1026300054781278089824020026099B1443002835
:1026400004D0204A944201D00B20FEBD1D4A921CAA
:1026500094420AD01B4A293A944206D0194A193AA0
:10266000944202D0521C944231D14889FFF7C7FFEF
:10267000002829D001970095044A41791269007910
:10268000156801232246A847064653E08C450020E2
:10269000983A0000C24500208C6E002068696420D2
:1026A00069646C65206576656E742E2E0A000000E4
:1026B0008D230000140400009F2200009D220000D2
:1026C000050300004B2A00000020288032E0DA4A8F
:1026D00094420ED1D94A1288904201D3072629E0AC
:1026E000121A9A4200DD1A4692B22A80C968091865
:1026F0001DE0D148401E844204D104202880C968CE
:10270000024614E0CE4A022094420DD0CA4AD21C9E
:10271000944205D101202880C8680078387009E00B
:10272000C74A521E944205D12880C9680222384601
:1027300013F01AFF3046FEBDFFB583B084460C98F7
:10274000002416460F46002802D00B2007B0F0BD2B
:102750007868417800780D020543B748801C8542AF
:1027600003D0B5481938854211D17889FFF747FF62
:10277000002859D006A901960091B24A4179126900
:102780000079146800232A46A04704464CE0AA4971
:10279000AC486A46491C0069138B8D420AD1012B53
:1027A00041D13178002901D0012944D100294AD0F2
:1027B000012148E0A249891F8D422ED101210C98A8
:1027C0000191009032463946604604F0ABFE0400A9
:1027D0002AD17078317802020A439A497B89C86805
:1027E000C97905E047889F4205D0491EC9B2083023
:1027F0000029F7D10020002816D006A901960091E3
:10280000012A08D003238F4A41791269007916689A
:102810002A46B04708E00223F5E78749C91C8D42E4
:1028200002D1012B02D00D2420468FE731780029F8
:1028300003D0012901D08024F6E7FA6811703178BD
:10284000002904D00321426808469047ECE70221A2
:10285000F9E7F8B57B4E0421B07914F0F9F90121BC
:102860003089FFF706FC0121308900F023FA37890F
:102870007548F568874212D0F4790EE06888002820
:1028800008D0694605F08EF8002803D0C1683846A4
:1028900004F0E2FD641EE4B20835002CEED1002005
:1028A0006A49707001240C70B07001460B226848B0
:1028B00013F050FF00F086F8002816D070690079F8
:1028C000800712D5A021032004F09EFCA021042043
:1028D00004F09AFC0021012004F096FC6846047084
:1028E0006A4601215B4803F06DFFF8BDF8B500278B
:1028F000544D0E460446042803D0287804280BD0F3
:1029000012E0708928816F70684607706A4601215D
:10291000504803F057FF07E0FFF79BFFE8780428D3
:1029200002D1FFF7C1FDEF702869002805D0C26809
:10293000002A02D03146204690472C70F8BD13463D
:102940000A4610B5014644A00AF016F810BD10B5AD
:1029500001203C4C002904D0012904D0022909D0CF
:102960000EE0A0700CE00021A170002A00D1607080
:10297000E27005E0002A03D16070208900F044F97C
:1029800020796179884206D06078002803D0082138
:10299000A07913F0ADFF10BD38B50D46294909697E
:1029A000002905D08C68002C02D02946A04738BDEC
:1029B0006946324802F01AFF00212846009A03F0C7
:1029C000C5F838BD08B50020694608702B480E30A0
:1029D00002F00CFF6946087808BDFFB581B01646C5
:1029E0000746FFF7EFFF002824D0164C0B21607933
:1029F000401C01F00FFC617120790D46814204D129
:102A00000B21401C01F006FC21710B2045431048AE
:102A100032460B3047552818029941708670C01C09
:102A2000049913F0A1FD6078002803D00821A07953
:102A300013F05EFFA8E400004B2A0000B845002018
:102A4000082900008C450020FEFF0000C245002040
:102A50008C6E0020050300005570646174652025AC
:102A600064202D20496E742030782578202D204C4C
:102A70006174656E63792025640A00000704000014
:102A8000F8B54B4C4949204604F0E6FC474920463E
:102A9000103104F0E1FC474B10221A21464804F0A3
:102AA000ADFE00904448C1690220FFF720FA424978
:102AB0003E4809390F78383807714E784671C93168
:102AC0004A890280498B41803B4901228271C91F9A
:102AD0000D780573374B4C784473A03B59890181BD
:102AE000002141818273077546755B8F0382314BEC
:102AF000603B5E8946828175057744775B8D0383F1
:102B00002D4C41838177641F0346257820331D7146
:102B100064785C71274C203C6489048441840146BC
:102B20009A7128310320FFF7E2F92049072038394C
:102B3000FFF7B6FC0098F8BD30B5204D00205219C3
:102B4000039C1F4D13D01B2A04D1022903D0032953
:102B500008D00A2030BD012B02D12178297030BD68
:102B60000D2030BD012BFBD12178A97030BD012B88
:102B7000F6D12178697030BD70B5104C012512195D
:102B80000F4C0498002A0FD000261B2A03D10229DB
:102B900003D0032903D01E8004E0217800E0A1784F
:102BA00001701D80002070BD6178F9E7486F00203A
:102BB000FFFF000070470020D0450020CED5FFFF6A
:102BC000C445002010B54649464804F045FC464B34
:102BD000102218460621603804F010FE10BD42494C
:102BE000683908607047022070473F4B024600205A
:102BF000643B002A03D0012A03D0022070471A88C0
:102C000000E05A880A8070473EB50446344904F013
:102C1000E7FDC0071ED000252B4601221B212046C0
:102C2000009505F0F5F90290002813D02E4869466A
:102C30002038408B88800120C880029800220570CF
:102C400001A9204604F0C8FF002803D01B2101A8D9
:102C500005F024FA3EBD00207047FEB5089E002412
:102C60001546002E01D00B20FEBD4F687A783F78C4
:102C700012023A431D4FBA420ED1042B01D00D244B
:102C800016E0C8681A46294613F06EFC1649012062
:102C90006839096888470BE0154CA24207D1012228
:102CA000019200962A4604F03DFC044600E00A2406
:102CB0002046FEBD10B504460A48401E84420DD091
:102CC000012907D0022909D1012120460FF004FA79
:102CD000002803D10249204604F0BEFB10BD0000CD
:102CE000686F0020FFFF0000F04700204F2A00001F
:102CF000022900000448804704480047FEE7FEE739
:102D0000FEE7FEE7FEE70000112D00009100000045
:102D100010B5FF4857210170A8210170FC4A882195
:102D2000403A1181002101700A2000F001FD0120CC
:102D300000F04BFC10BDF0B5F54EF54D04275722C1
:102D4000A824203E403DF249030009F054FE0D083E
:102D50000E161B1F24282C32373C41462F000A70C8
:102D60000C70F07BFB22104003E00A700C70F07BCB
:102D70003843F073C820288118E00A700C70512085
:102D8000C000F8E70A700C70E248F4E70A700C70B3
:102D900081208000EFE70A700C708820EBE70A7052
:102DA0000C700220E7E70A700C702F810020087079
:102DB000F0BD0A700C7093208000DCE70A700C7084
:102DC000D4484D30D7E70A700C7095208000D2E7C8
:102DD0000A700C704B20C000CDE70A700C70CD4813
:102DE0005C30C8E7CA4810B540380089C1B20B064C
:102DF0009A0FC948022A05D0012A04D09A0F06D09A
:102E00007D20000210BDC906C90EC44801E0C906F4
:102E1000C90E01F0FFF910BDBD4A57211170A8215C
:102E20001170BB4940394B150028088904D018435C
:102E300008810020107070479843F9E7B44A572181
:102E40001170A8211170B24920390028C87B05D023
:102E500004231843C873002010707047FB231840E8
:102E6000F8E7AB498A7B800792089200800F024303
:102E700057200870A82008708A73002008707047D7
:102E8000A3498A7B8F231A40000102435720087010
:102E9000A82008708A730020087070479C4A203A66
:102EA000917B800789088900800F01439848572348
:102EB0000370A82303709173002101707047944A36
:102EC000203A917B0907090F0001014390485723DD
:102ED0000370A82303709173002101707047FEB541
:102EE0008B48002740380089C0B201068A0F022AA9
:102EF0004CD00124A403012A4CD0890F56D00524BC
:102F0000002000902005000D019081482038848920
:102F100000267F49572230460A70A8220A700123F2
:102F20008B747B4957220A70A8220A70784A203A8B
:102F3000948100220A708A7C9207FCD50A8A8A7CD6
:102F40009207FCD48A7C9207FCD5098A019A7F1CDF
:102F5000891A0DB2FFB2002D37D02946714305D52D
:102F6000012834D0411C32D0002830D02E460294A3
:102F70003046009901F064F900B2211A8CB202992E
:102F80008C4249D1002D45DD641C44E00220644C94
:102F9000C043B6E7C506ED0E2946624801F03AF98E
:102FA0000019C40B2320C043401B09E0C506ED0EE9
:102FB00029465D4801F02EF90019C40BA81C4042B7
:102FC000294601F03DF900B29BE70020FEBD002E2E
:102FD00003DA761EF04306B202E06D1EE84305B246
:102FE000B5420FDD4A4857210170A8210170484AB7
:102FF0000299203A9181002101707D20C000704328
:10300000019903E07D20C0006843114601F018F9E2
:1030100080B2FEBD641EA4B2142F82D3FF20FEBD79
:10302000FFB581B00C460746054600261AE0FF2191
:103030009131681E01F004F900290AD06421681E4C
:1030400001F0FEF8002907D00320A9078007C1423C
:1030500002D1FF206F3001E0FF206E3080196D1E1D
:1030600086B2ADB231488542E1D80025012C25D980
:10307000032C05D0A01E062816DDE00718D115E0A8
:10308000FF219131384601F0C5F800290AD06421AA
:10309000384601F0BFF8002901D0B80702D000205F
:1030A0001C3006E00120FBE7E00701D01F2000E014
:1030B0001E208019641E86B2A4B2D7E70398182197
:1030C0003018401E84B2049801F0A4F8E120C0003A
:1030D00041430A981E22504309180B9840080818CB
:1030E00081B20B98C00701D00120C0030A0402433B
:1030F000074957200870A8200870054E403E7463A9
:1031000003482038437C80242343437472630FE0D8
:1031100040100040020200000048E80100389C1CFA
:103120001313000000180D8F00688909E4070000E0
:10313000427C40231A4342740D7005B0F0BDFFB5C8
:103140000746934883B0C06B0E4684049048A40C95
:103150002030418B008B01224900D203904201D3E1
:10316000012000E00020081800908A48388010E014
:103170000199002925D06421284601F04BF8002947
:1031800001D0A8071DD0FF206E30201A6D1C84B21C
:103190003D803D88FF219131284601F03BF80191A7
:1031A000002911D06421284601F034F8002901D00B
:1031B000A80709D0FF206E30A042D9D90020308066
:1031C00049E0FF206F30E0E7FF206F30F4E73588FB
:1031D000012D04D0062D18D9E8071AD117E0388838
:1031E000FF219131019001F015F800290BD06421E5
:1031F000019801F00FF8002902D00198800702D051
:1032000000201C3006E00120FBE7E80701D01F206A
:1032100000E01E20201A84B26D1CA8B23080012864
:1032200004D0062817D9C0071AD117E03888FF2123
:103230000546913100F0EEFF00290AD064212846AE
:1032400000F0E8FF002901D0A80702D000201C30C0
:1032500007E00120FBE73078C00701D01F2000E025
:103260001E20A042B3D93088641C401C30800598D1
:10327000E12104800901009800F0CCFF069A10803B
:1032800008463C2100F0C6FF0C9908803C210098BC
:1032900000F0C0FF0D98018007B0F0BD3C495722F7
:1032A00040310A70A8220A70394A506338482030E9
:1032B000427C40231A43427400200870704734490E
:1032C000886B8A6B8242FBD17047314A10B5572117
:1032D00040321170A82111702D4920314B7CE82417
:1032E00023404B744B7C1024204303434B74002039
:1032F000107010BD00B50346FFF7E1FF2649C01866
:10330000884201D9494240180104090C02D0012128
:10331000090440181E49572240310A70A8220A7039
:103320001B4A50631A482030427C20231A434274BF
:103330000020087000BD0021002802D0012802D022
:1033400002E0202100E01021114857224030027095
:10335000A82202700E4A2032537C8B435374002102
:10336000017070470A4920310028087C02D04021B2
:1033700008407047C009C001704705492031002846
:1033800004D0012801D11020087470472020FBE7E9
:1033900000100040E40700000000C0A800B5524A39
:1033A0000B0009F028FB0504071016191F00516BCC
:1033B00081430AE0516B81435163116B01431163F7
:1033C000116A81430DE0516B01435163116B8143DD
:1033D000F5E7516B814301E0516B01435163116A81
:1033E0000143116200BD404A00B540320B0009F0B4
:1033F00002FB0504071016191F00516981430AE0FA
:10340000516981435161116901431161116881431F
:103410000DE051690143516111698143F5E751693B
:10342000814301E051690143516111680143116019
:1034300000BD2D4A002906D0012907D0022908D055
:10344000032913D10CE0918A814304E0918A8143DE
:1034500008E0918A01439182D16A0143D16205E07B
:10346000918A01439182916A014391629083118A0A
:103470000143118270471C4B1B4A4033002906D080
:10348000012907D0022908D0032913D10CE0D18AE1
:10349000814304E0D18A814308E0D18A0143D1828B
:1034A000D9680143D96005E0D18A0143D182996886
:1034B00001439960D083518A0143518270470A4A7F
:1034C000803A0028108B01D0084300E08843108325
:1034D0007047054A803A0028508B01D0084300E02D
:1034E000884350837047000080100040F8B5624D5B
:1034F0005726614CA827203D002826702770288871
:103500000ED02115084328800A2000F011F92670FA
:103510002770288861150843288000202070F8BD96
:10352000032149028843F7E7F0B5534C57261C2284
:103530008B07514DA8270A409B0F403C00282E7056
:103540002F7010D0080603D5E07BFD210840E07302
:10355000A07A1043A07248482038C17B1943C17338
:1035600000202870F0BD080603D5E07B0221084347
:10357000E073A07A9043A0723F482038C17B994302
:10358000EDE730B53C4C57233B4AA825403C00288A
:1035900013701570E06804D08843E060002010705C
:1035A00030BD0843F9E730B5334C5723324AA825DC
:1035B000403C002813701570A07B04D00843A07312
:1035C0000020107030BD8843F9E7F8B52A4D572622
:1035D000294C0021A827203D0028267027700ED0F6
:1035E00001206871287100202070012000F0A0F8EF
:1035F000267027700D20287100202070F8BD2971D9
:103600002170F8BD1D48016904229143016130BF5A
:103610007047194B57241C70A8251D701649403956
:10362000887B0822104388730920134E0003203E34
:10363000308000271F70886B8A6B8242FBD1104A52
:103640000A30904201D9524280180204120C02D072
:10365000012212048018302232741C701D704863DD
:103660002F2070741F701C701D70052008811F7042
:1036700040BF20BF20BFFEE74010004000ED00E04B
:103680000000C0A83C49062805D0497901228240A3
:1036900011400846704708780821084070473648AE
:1036A00057210170A8210170817901221143817194
:1036B00000210170704731490968016000202F49DD
:1036C000C0438031086070472C49086070472C481F
:1036D00080697047284957220A70A8220A7000287A
:1036E000887905D004221043887100200870704743
:1036F000FB221040F8E7204957220A70A8220A70DE
:103700000028887905D002221043887100200870B3
:103710007047FD221040F8E7174857210170A82193
:10372000017081791022114381710021017070476D
:1037300000220AE0022101E000BF00BF0B46491E43
:1037400089B2002BF8D1521C92B28242F2D3704758
:1037500070B500247D260546F60004E03046FFF7EC
:10376000E7FF641CA4B2AC42F8D370BD0549CA7A25
:10377000082AFCD0087270474010004000E100E0C9
:1037800000E000E00034004010B50446FFF72AFBDB
:103790000A214843C008214600F03CFD0A21401D93
:1037A00000F038FD2249888110BD10B5E1204002AB
:1037B000FFF7EAFF1E48872181700321C170402175
:1037C00041700121817310BD19498A789206920EC9
:1037D000800102438A707047154A0028507806D04D
:1037E00008435070107808210843107070478843D0
:1037F000507070470E498020487070470C4A07E0AF
:10380000D37A082B04D003781372491E89B2401C66
:103810000029F5D1704701460020054A04E0137ADB
:10382000401C0B7080B2491C937A002BF7D1704773
:103830000034004010B5234800230370CC210173ED
:10384000417321490A8802828A8882820A89028316
:10385000898981831B49022420318C7012228A714C
:103860008A728A738C74C37029210170FF2181715F
:1038700016494A8B80231A434A83812141700721CC
:10388000817010BD0F49203108718879800880004F
:10389000887170470B4920310872887A800880004F
:1038A00088727047074920310873887B8008800040
:1038B00088737047034920310874887C8008800031
:1038C00088747047008000400048002000100040CD
:1038D000F0B5564A0021157E547E01261676507E9C
:1038E0000823184350769676907EC007FCD19676D2
:1038F000937EDB07FCD1978B4D4B401CBB43591883
:1039000080B21028F3D308310809517EF7231940FB
:103910005176157654760121C902081A00B2F0BD1D
:10392000028800290DD0012911D0022915D00329C0
:1039300006D140494A4391013F4A8918090C018048
:103940007047F92189004A4391013C4AF5E739491A
:10395000491E4A4391013A4AEFE736494A439101E9
:10396000384AEAE780010901C01C08432F4948761C
:10397000704780010901401D08432C494876704773
:103980002A48C17E80221143C1760F210176212170
:103990004176704725480E21017603214176704714
:1039A0002248232141760821817670471F48012152
:1039B0008176817EC907FCD1808B0005000D7047A0
:1039C0001A4908228A76C877887EC006FCD4888B7C
:1039D0000005000D704770B51B4D4021AB6B9AB2CE
:1039E0001C0C144B3E335843C00A0301002C05D075
:1039F0009001203318182201801A13E0686B040C20
:103A0000010A09190918050EC9B28D4201D0FF201B
:103A100070BD1146E4B2520800049A184C431219C2
:103A2000000B101A00F00CFC70BD000040100040AC
:103A3000FF0F0000E60300008014340040B03700A0
:103A400080C237004021360000060400C14A002130
:103A500013780370491CC9B2401C521C0829F7D3C3
:103A60007047BC4A002113780370491CC9B2401C3E
:103A7000521C0629F7D37047F8B504460025C00547
:103A800001D00120F8BD112069460870B24E002017
:103A900030707070B14F80207872087811300870E3
:103AA000AF4800790007000F0D2802D00120FFF772
:103AB0008CFD6946087811300870A948817989071A
:103AC00001D00220F8BD6A46117811311170817958
:103AD000890704D11178442901D157213170117817
:103AE000113111708079800707D11078552804D1E1
:103AF0003078572801D1A8207070107811301070DC
:103B0000307857280ED17178A8290BD11178662901
:103B100008D17C607D21C9028C4201D2882100E05D
:103B200084217972117811311170572809D1707878
:103B3000A82806D11078772803D1A6203872788972
:103B4000C5B2002010703070707080207872402DE7
:103B500001D00320F8BD0020F8BDFEB505460026C3
:103B60000191800701D00120FEBD11206946087037
:103B7000794F002038707870784C80206072087817
:103B800011300870764800790007000F0D2802D028
:103B90000120FFF71AFD6946087811300870704956
:103BA0008879800701D00220FEBD6A461078113066
:103BB00010708879C00704D11078442801D15720AB
:103BC00038701078113010708879C00707D11078DC
:103BD000552804D13878572801D1A820787010785A
:103BE00011301070387857280DD17978A8290AD16A
:103BF0001178662907D17D22D202954201D288210F
:103C000000E0842161726A461178113111705728E1
:103C10000CD17878A82809D11078772806D165606A
:103C2000019820609A2020726089C6B2002010702E
:103C30003870787080206072402E01D00320FEBD65
:103C40000020FEBDF7B50446002682B00D46800771
:103C500002D0012005B0F0BD1120694608703E4831
:103C60000021017041703D4F8020787269460878CC
:103C7000113008703A4800790007000F0D2802D073
:103C80000120FFF7A2FC694608781130087034491A
:103C90008879800701D00220DCE76A46107811306D
:103CA00010708879C00705D11078442802D12A48BD
:103CB000572202706A461078113010708879C00758
:103CC00008D11078552805D123480178572901D10A
:103CD000A82141701078113010701F4A10785728B1
:103CE0000ED15178A8290BD169460978662907D1E8
:103CF0007D23DB029C4201D2882100E0842179727D
:103D00006B46197811311970572816D15078A828A8
:103D100013D11878772810D100209A230AE07C600C
:103D200002CD39603B727989241DCEB2402E04D178
:103D3000001D80B204998842F1D3002069460870C2
:103D40001070507080207872402E01D0032081E7DF
:103D500000207FE7080604001048002000180040FB
:103D60002010004094480421C1700221017060219C
:103D7000017041781022114341704178490849008F
:103D8000417070478C4902284A7804D0BF231A40FA
:103D90004A70C870704740231A43F9E710B5864946
:103DA000F722202300280ED0DF2401280ED008227D
:103DB00002280ED0032805D10878104308704878EF
:103DC0002040487010BD0878104004E0087810408A
:103DD000F4E708781043087048781843F1E776490B
:103DE0000A78EF231A400A70087188794006FCD5DA
:103DF000704771480178EF2211400170FF21017175
:103E000081794906FCD50079704710B56A4A137864
:103E1000EF242340137091810123937107E0D3793C
:103E2000082B04D203781374491E89B2401C002960
:103E3000F5D1D0790028FCD110BD10B55E4A1378B9
:103E400010242343137091810123937107E0D379E8
:103E5000002B04D0137C491E037089B2401C00293A
:103E6000F5D110BD10B5544A1378EF2423401370D8
:103E7000108340189083918109209071507801211E
:103E8000084350709079C007FCD05078400840003B
:103E9000507010BD10B5484A137810242343137096
:103EA00010834018908391810920907150780121EE
:103EB000084350709079C007FCD05078400840000B
:103EC000507010BD3C480221017081210170417881
:103ED0001022114341707047374801781022114376
:103EE0000170C1790029FCD0007C704732490A7802
:103EF000EF231A400A700874C8790028FCD1704773
:103F000010B52D4A137810242343137001239371A5
:103F100007E0D379002B04D0137C491E037089B2CB
:103F2000401C0029F5D110BD10B5234A1378EF24A9
:103F3000234013700123937107E0D379082B04D237
:103F400003781374491E89B2401C0029F5D1D07939
:103F50000028FCD110BD10B5174A13781024234354
:103F600013701083401890839181092090715078CC
:103F70000121084350709079C007FCD05078400868
:103F80004000507010BD10B50B4A1378EF24234049
:103F9000137010834018908391810920907150789C
:103FA0000121084350709079C007FCD05078400838
:103FB0004000507010BD00000040004010B5FEF7FA
:103FC0008EFF022801D9FEF78AFF10BD30B5564991
:103FD000CC7E0B7E4A7EC87E80252843C8760F2083
:103FE000087621204876887E012528438876887EB9
:103FF000C007FCD1888BCC760B764A7630BD30B5C5
:104000008DB0122249A14E4812F0A0FA002841D0EA
:10401000454857210170A82101705121424AC90029
:10402000403A1181002101704748464A4261474A9F
:104030000724D3691B021B0A45042B43D36181610A
:104040000461016902229143016134220021684622
:1040500012F080FB3E4800900120400369468880B2
:104060001B20C8730520087401204874142088742C
:10407000FB20800202900D200877364808903648D1
:104080000A90084601F06CFA010007D033A008F04E
:1040900073FCFEE739A008F06FFCFEE70DB030BD01
:1040A00070B50C4609040AD512F098FB002801D01F
:1040B00012F06CFB01212046C903484070BDE007A7
:1040C00002D00120604070BD314DA00405D501F043
:1040D000C3FA01262F4A760308E060040DD52EA00E
:1040E00008F04AFC7D22D2010126B6033146287829
:1040F00012F050FD2046704070BD002070BD10B51C
:10410000264808F0AFFA224C207000F063F862B63F
:10411000204A01214903207812F03CFD10BD10B562
:1041200001F062F910BD00004010004043483537EF
:10413000785F424C455F4C49425F56312E37000054
:10414000BC6F0100FEFFFF0000E000E004ED00E0B6
:10415000E44A0020CF360000CD3F00004C49422009
:10416000696E6974206572726F7220636F64653A5C
:10417000202578202E2E2E0A00000000686561643C
:104180002066696C65206572726F722E2E2E0A0091
:104190001248002000EE02002A200000A14000008A
:1041A0000104090C02D001210904401816495722C4
:1041B0000A70A8220A701449403948631349002044
:1041C0000860704710493020203908740F490120D9
:1041D000086070471CB50C4857210170A821017078
:1041E00009492039CA7B07231A43CA730021017089
:1041F00000910B460122019111460548FEF710FF80
:10420000002008F063FB1CBD401000401448002053
:10421000E407000030B50B460146002020220124AF
:1042200009E00D46D5409D4205D31D469540491BEA
:104230002546954040191546521E002DF1DC30BD33
:1042400070B500242546002801DA012440420029E7
:1042500001DA01254942FFF7DDFFAC4200D04042C0
:10426000002C00D0494270BDF0B51FB486B00020CC
:104270000090019002900698069980B204900798E9
:10428000090C02040014114307900027089D0998A7
:1042900006913E463C4603900398A9B20204000CE6
:1042A000039004982D0C154348430021224600F04A
:1042B00018F8C719714110340E46402CECDB384613
:1042C000029A00F00EF8009A019B80180090594164
:1042D00002980191103002904028CCDB00980BB07E
:1042E000F0BD10B5202A04DB0146203A91400020A1
:1042F00010BD914020239C1A0346E340194390408F
:1043000010BD03460B439B0703D009E008C9121FE9
:1043100008C0042AFAD203E00B780370401C491C41
:10432000521EF9D2704710B5002200E0521C835C87
:104330008C5CA34201D1002BF8D1D8B2E1B2401A73
:1043400010BD0000F0B51FB488B00B990998002487
:1043500048400999C00F490049080991C0070B99C5
:104360000090490049080B9109990898A64608430E
:104370001CD00B990A98084318D0099801244000D2
:10438000420D4800410D099824050003000B20430D
:1043900009900B980003000B20430B9050181C4908
:1043A0004018002201901446104605E00020014606
:1043B0000DB0F0BD032801DA034600E003239C465C
:1043C000C11A0AAE0AE05F0008ADED5B4F00F75B73
:1043D0007D430027AA187C41491C5B1E6145F2DD24
:1043E000410004AB5A522104120C0A43240C401C15
:1043F0000828DFDB01980290009970460191009037
:10440000059B049A0799069800F0FCF8D0E7000095
:104410000DFCFFFFF0B50C465C4085B0E40FE407EF
:1044200003944C000026640859009446490802464B
:104430000296224321D062460A431ED06200570DE5
:104440004A000E032303550D012402462C4924057E
:10445000781B1B0B360B4018234326436146009004
:104460001C46501AB44103D30098401C009002E04F
:10447000921800985B41002803DA0020014605B03D
:10448000F0BD0020012109050746864611E064467B
:104490001D46141BB54106D36546521BB3417446F5
:1044A00007430C43A646CD07400849082843921805
:1044B0005B4105460D43EAD11046184313D06046D0
:1044C000194650407140084306D06046101AB34167
:1044D00006D20122002306E000220123DB0702E0CE
:1044E0000122D2435310009874460105381C6141E3
:1044F000029C039D0019694100F077F8BFE70000B6
:10450000FD0300000EB505490291002100910A4605
:104510000B46019100F076F803B000BD33040000B3
:1045200070B5CD0F4A0009030123090B1B05194380
:104530000B4BED070024520D9A4201DA002070BDAA
:10454000074B34339A4203DC9A1A00F03DF802E03C
:104550000449511888402C43F1D0404270BD0000FE
:10456000FF030000CDFBFFFFF0B51FB4064600209F
:1045700082B005464024019100901BE0019922463B
:104580000F46304600F020F8049A059B801A9941A6
:1045900010D3104619462246FFF7A3FE361A8F4164
:1045A0000197224601200021009FFFF79AFE38184C
:1045B0004D4100902046641E0028DFDC019B0098DE
:1045C0002946324607B0F0BD10B5202A04DB084664
:1045D000203AD040002110BD0B46D340D0402024CB
:1045E000A21A91400843194610BD10B5002B08DAF5
:1045F0000024401C614192185B411A4301D14008DC
:10460000400010BDF0B51FB482B005460C0003D0C9
:10461000084608F0C1F902E008F0BEF92030024671
:10462000009021462846FFF75CFE049B059A04464D
:104630000F4618431143084314D0184610431BD0AB
:10464000009840210A1A18460599FFF7BDFF054654
:104650000E46009A05990498FFF743FE084305D0DB
:10466000012004E02046394607B0F0BD0020C11704
:1046700005430E432C43374300990E986305401AB7
:104680007905E40A00220C43FD0A0A3002D5002015
:104690000146E9E70105101969410C9C0D9D0019BF
:1046A0006941FFF7A2FFDFE7064C0125064E05E052
:1046B000E36807CC2B430C3C98471034B442F7D343
:1046C000FBF7EAFC087201003872010070B58C1823
:1046D0000578401C6B075B0F01D10378401C2A1141
:1046E00006D10278401C03E006780E70401C491C7D
:1046F0005B1EF9D12B0705D40023521E0DD40B707D
:10470000491CFAE70378401CCB1A921C03E01D7881
:104710000D70491C5B1C521EF9D5A142D8D3002054
:1047200070BD000003B40148019001BD9541002017
:1047300003B40148019001BD6340002003B4014867
:10474000019001BDB940002010B5124C2068C00591
:104750001FD50320206000200821401C2268C0B221
:104760000A4322600EE02268920510D4222807D95D
:104770000948026B002A0AD001210320904706E075
:10478000401CC0B22268D205EDD50028E5D100203A
:10479000206010BD80C30040946F002070B51446A7
:1047A0000D460646FFF7D0FF2D480368196806221C
:1047B00091431960316899627168D962B16819636F
:1047C000F1685963296899616968D961A9681962B2
:1047D000E968596259680222914359605D68012174
:1047E0000D435D601D680D431D6000E000BF59680A
:1047F0008907FBD55968914359609969217001680F
:104800008969090A617001688969090CA1700168E8
:104810008969090EE1700068C1692171C169090ADD
:104820006171C169090CA171C169090EE171016A67
:104830002172016A090A6172016A090CA172016A96
:10484000090EE172416A2173416A090A6173416A82
:10485000090CA173406A000EE073002070BD0000D7
:104860005C4A002070B50C460546FFF76DFF2848EE
:104870000268106820218843E907890E0843106008
:104880008034E06C1061206D5061E0699061206AB5
:10489000D061606A1062A06A5062E06A9062206B28
:1048A000D062606B1063A06B5063E06B9060206C13
:1048B000D060D168236C1748994204D0026B002A5B
:1048C0001ED0202107E0916AE36A994206D0026B6C
:1048D000002A15D021210320904711E0D169236AD5
:1048E000994204D0026B002A0AD02221F3E7116911
:1048F000E36C994206D0026B002A01D02321EAE73B
:10490000012070BD1068402108431060002070BD78
:104910005C4A0020946F002070B50C460546FFF7F6
:1049200013FF28480268106820218843E907890E90
:10493000084310608034606C1061A06C5061E069C5
:104940009061206AD061606A1062A06A5062E06A79
:104950009062206BD062606B1063A06B5063E06B61
:104960009060206CD060D168236C1748994204D0C5
:10497000026B002A1ED0102107E0916AE36A994277
:1049800006D0026B002A15D011210320904711E0B8
:10499000D169236A994204D0026B002A0AD01221FD
:1049A000F3E71169636C994206D0026B002A01D0CB
:1049B0001321EAE7012070BD106840210843106010
:1049C000002070BD5C4A0020946F002010B504F0F8
:1049D000C3FE024903F089FC002010BD060400005C
:1049E0000148006E70470000EC71002008B50028F7
:1049F00008D0002906D0002A04D01088002801D051
:104A0000002008BD1220694608706A46012103484B
:104A100003F067FC6946087808BD0000350C00000B
:104A200008B504F0BDF9694608706A4601210348DB
:104A300003F057FC6946087808BD000027200000F5
:104A400008B504F0F7F9694608706A460121034881
:104A500003F047FC6946087808BD000011200000FB
:104A600008B504F02FFB694608706A460121034827
:104A700003F037FC6946087808BD000029200000D3
:104A800008B504F025FB694608706A460121034811
:104A900003F027FC6946087808BD000010200000DC
:104AA000FEB508AF70CF6F4670C704F037FB044601
:104AB000024903F01AFC2046FEBD0000132000004E
:104AC00008B504F039FE694608706A4601210248BB
:104AD00003F007FC002008BD0E20000038B5044696
:104AE00005F0B5F8694608704C70200A88706A466F
:104AF0000321024803F0F5FB002038BD1B20000015
:104B000038B5044605F0BBF8694608704C70200AB9
:104B100088706A460321024803F0E3FB002038BD99
:104B20001A2000000EB500A8013005F0FCFB694614
:104B300008706A460921024803F0D3FB00200EBD2D
:104B40001820000008B500A8013005F001F86946FA
:104B500008706A460421034803F0C3FB69460878DD
:104B600008BD00000220000038B5044605F036FC00
:104B7000694608704C70200A88706A460321024812
:104B800003F0AFFB002038BD212000007FB50446B4
:104B900008A861C8009002960195204605F036FCF1
:104BA000694608734C73200A887303AA03210348DB
:104BB00003F097FB002004B070BD0000202000002F
:104BC00008B505F021FF694608706A4601210348CF
:104BD00003F087FB6946087808BD00002D2000001F
:104BE00008B505F0AFFF694608706A460121034821
:104BF00003F077FB6946087808BD00000820000034
:104C000008B505F027FF694608706A460121034888
:104C100003F067FB6946087808BD00000A20000021
:104C2000F0B585B00AACF0CC03976F4670C705F0BD
:104C3000A9FF6946087404AA0121034803F051FB47
:104C40006946087C05B0F0BD0620000008B506F0F6
:104C500023F8694608706A460121034803F041FBC6
:104C60006946087808BD00000520000008B506F078
:104C700051F8694608706A460121034803F031FB88
:104C80006946087808BD00002E20000008B506F02F
:104C900057F8694608706A460121034803F021FB72
:104CA0006946087808BD00000C20000008B506F031
:104CB00089F8694608706A460121034803F011FB30
:104CC0006946087808BD00000920000010B506F00C
:104CD000E0F8024903F009FB002010BD1920000094
:104CE00010B505F00CF810BD1CB500A8013005F09A
:104CF00029FB694608706A460721034803F0F1FA68
:104D0000694608781CBD00000910000010B505F0C8
:104D1000D3FD10BD0A7802708A7842704A88120A60
:104D200082700979C170042070470A78027009887E
:104D3000090A41700220704708888004000C7047FF
:104D40008A78027088780128088804D012214843A4
:104D5000401C80B270478000FAE70A7802700A8827
:104D6000120A42704888801C80B270470A7802702C
:104D70000A88120A42708A7882704A88120AC270BF
:104D80008888001D80B27047088870478A78027052
:104D9000088849884843401C80B270478A7802706E
:104DA000088849884843401C80B27047088870478B
:104DB000088870477FB515460446022901D010299E
:104DC00003D1022B04D0102B02D0002004B070BD00
:104DD000994202D10A46294607E01029694607D0C0
:104DE00000F00EF810226946284611F0AFFBEDE7FF
:104DF000104600F005F8102269462046F5E700004D
:104E000070B50C4605000CD0002C0AD010220649C3
:104E1000204611F0A9FB2878207368786073012080
:104E200070BD002070BD00006470010008B5002254
:104E30000B4600920122024908F078F808BD0000F4
:104E4000154D000008B50A88172A07D300220B4623
:104E500000920322024908F069F808BD022008BD4B
:104E60002B4D000008B500210B461922009108F0D7
:104E70005DF808BD38B5054608880C4600280DD0F9
:104E8000606800280AD0012111F01CFB0090234625
:104E900007220349284608F049F838BD022038BDEA
:104EA000394D000038B5054688780C46012801D0F8
:104EB000022810D1208800280DD0606800280AD070
:104EC000022111F0FFFA00902346052203492846EB
:104ED00008F02CF838BD022038BD0000414D00001C
:104EE000064910B5884202D103F0D4FD10BD0DF083
:104EF00043F80028FAD1172010BD0000FEFF000083
:104F000038B505464A6800200C46002A03D0032124
:104F1000104611F0D7FA009023461D220249284678
:104F200007F0C0FF38BD00005B4D000038B50546F6
:104F30004A6800200C46002A03D00321104611F0D5
:104F4000C1FA009023461B220249284607F0AAFF17
:104F500038BD00005B4D0000024800210160416047
:104F600070470000804A00200098022B01D00420E6
:104F70007047517812780902114301800020704770
:104F80000098012B01D00420704711780170002097
:104F9000704770B5049C1E461546062B1BD36878D7
:104FA0002978000208432080E878A97800020843A5
:104FB0006080022020710246291D601D11F0D4FA84
:104FC000B01F2081062E03D0AD1DE560002070BD0E
:104FD0000020E060FAE7042070BD0098042B01D0A7
:104FE0000420704751781378090219430180D17861
:104FF000927809021143418000207047F8B58489F6
:105000000D46002C2BD086683778390601D4002055
:1050100010E00D2C23D30C3CA4B231190091408830
:1050200023463246012107F027FA002801D002204A
:1050300000E0012079062870C90FBA066970920E47
:10504000AA70641E2204120CAA8002D0761CAE60E4
:1050500001E00022AA60022803D1002901D001202A
:10506000F8BD0020F8BD10B50298042B14D3517878
:105070001478090221430180D178947809022143F0
:105080004180191F8180042B02D0121D826001E033
:1050900000218160002010BD042010BD0098042B69
:1050A00001D0042070475178137809021943018018
:1050B000D17892780902114341800020704710B5E1
:1050C00002981146062B03D0142B03D0042010BDE8
:1050D000022200E0102202714A780B7812021A4371
:1050E0000280CA788B7812021A4342800279401DEE
:1050F000091D11F039FA002010BD0098D90706D11A
:10510000022B04D0590881800260002070470420DF
:1051100070470098022B01D0042070475178127814
:105120000902114301800020704710B5029C022B38
:1051300011D32072617250781178000208432080E8
:10514000981E6080022B02D0921C626001E0002059
:105150006060002010BD042010BD000038B5054679
:1051600088680C46002802D0052111F0ABF90090A8
:10517000234617220249284607F0D8FE38BD000012
:105180006D4D000038B5054648680C46002802D031
:10519000012111F097F9009023460D22024928467B
:1051A00007F0C4FE38BD0000894D000038B5054643
:1051B00008880C4600280DD0606800280AD002211B
:1051C00011F080F90090234611220349284607F088
:1051D000ADFE38BD022038BD8D4D000038B5054606
:1051E00008880C4600280DD0606800280AD00221EB
:1051F00011F068F90090234609220349284607F078
:1052000095FE38BD022038BD9D4D000038B50546DD
:1052100048680C4600280AD0012111F053F900908B
:1052200023460F220349284607F080FE38BD02209E
:1052300038BD0000AD4D000038B505464A68002075
:105240000C46002A03D00121104611F03BF90090D2
:1052500023460B220249284607F068FE38BD0000AD
:10526000B14D00000149086070470000804A0020ED
:1052700070B5054608480C46854205D0172C03D367
:1052800003F008FCA04201D2012070BD214628464F
:105290000CF032FF70BD0000FEFF000008B50021D9
:1052A0000B461322009107F041FE08BD0448034954
:1052B000006801600349C16270470000A52208012F
:1052C000604A0020784E010010B5074C5D2021682F
:1052D000086506F00FF8206800210165034842794F
:1052E000521C4271C17110BD38480020E86F002087
:1052F00070B52C49002048602B4800892B4CC0B267
:105300008109022904D0012908D0810916D026E09C
:10531000D020A0800820E080E8201FE0C506ED0E28
:105320002D2029468001FEF775FFA08029467820B0
:10533000FEF770FFE08029461D480DE0C506ED0E22
:105340002946C020FEF766FFA08029460820FEF708
:1053500061FFE0802946E820FEF75CFF20811649C6
:105360001448086016491548086017491548086030
:1053700017491648086018491648184C086018491B
:1053800020680122D202086180184861012048711A
:1053900000F062F9607D002802D1124920200860E7
:1053A00070BD00003C48002000100040C86F002085
:1053B000980D000000C00040644A002000C3004077
:1053C0005C4A002000C200403848002000D0004065
:1053D000684A002000C10040604A0020946F00200D
:1053E000E86F002000E100E0F8B5564800688168E9
:1053F0000127C9050025544C544E00292EDA816836
:105400003A0291438160207840060CD550485149BA
:105410000068884206D15049886BE0608A6B9042F0
:10542000FAD100E080472078384320706570E07939
:10543000062803D043495D200968086530680028C4
:105440000AD001690A68406902430A603168086845
:10545000026889680A4302606571A560394B186863
:105460008168890521D581680122520291438160BA
:10547000A0783843A070E57038480068C16A890890
:105480008900891CC1620168D2041143016030683F
:1054900000280AD041680A68806802430A603168BF
:1054A000C868026849690A43026018688168890708
:1054B00017D58168022291438160E770A5705D2154
:1054C0000165306800280AD001690A684069024312
:1054D0000A6031680868026889680A430260657179
:1054E000A56018688168C90715D081684908490016
:1054F000816025706770306800280AD041680A68AA
:10550000806802430A603168C868026849690A43D2
:1055100002606571A56018688168C90603D5816855
:105520001022914381608168490703D58168042274
:10553000914381608168090703D5816808229143FE
:105540008160F8BD38480020E86F00204048002006
:1055500034480020EDBF000000100040604A0020E9
:1055600070B504460068002828D00121000C4903CA
:10557000884223D1A088002820D020460622FF217F
:10558000163010F0D4FF01281AD0A288002120681C
:1055900011F0E0F8342200212D4811F0DBF834221C
:1055A00021462B4810F0E0FF294806221630002142
:1055B000054610F0BCFF012804D008E0022070BDB1
:1055C000032070BD23490622284610F0CDFF204855
:1055D0008189002902D1012149028181827B012137
:1055E000002A00D18173C27B002A01D11B22C27321
:1055F000027C002A01D105220274427C002A00D1DB
:105600004174817C002901D114218174817F00299A
:1056100001D128218177C17C002908D0827FE17CDB
:1056200092088918C174617F002904D005E0817F48
:1056300089082D31F6E702214177806A002803D0DE
:10564000804703493431488106F0C4FF002070BD13
:10565000946F00200806040010B500F065F803F010
:1056600081FB05F0E1FDFFF721FE0B4C5D20216879
:10567000086505F0F1FE06F0AFFC05F0B5FE05F09B
:1056800039FE064801214171226800211165C1716E
:10569000FFF75AF810BD000038480020E86F0020DE
:1056A00070B50E4B00209989002901D10C499981D0
:1056B0000E210124A4039A8915462540CD405204A9
:1056C000120C0543E8B25604D50BF60F754015438E
:1056D000491EC9B29D810629EDD870BDEC7100202C
:1056E000FF7F000070B50E4B00205989002901D1C1
:1056F0000C49598108214C015A8915462540CD4055
:1057000005435200E8B2550A56097540ED07ED0F02
:105710001543491E09065D81090EEDD170BD0000DB
:10572000EC710020FF0100000A48094900680A697D
:1057300002610A69426149698161C161826801212E
:1057400049030A438260C2680A43C260704700008E
:10575000E86F0020644A002030B5104A0346517AB1
:10576000FD20842454720E4CA568002D07D0A57B23
:10577000002D04D0A489E51FFF3DFA3D02D05172EF
:10578000FF2030BD7D24E402A34205D35360A62050
:105790001072907A40235840517230BD001800407A
:1057A000946F0020F8B500240F4E274613E0F06BED
:1057B000250128180622FF2110F0CCFFF06B0622ED
:1057C0002818FF21801D10F0C5FFF06B2818878175
:1057D000641C8773E4B2307E8442E8D3002011F069
:1057E00099F8307E7076F8BDB849002070B50C4647
:1057F0000146012080020A1A00252B48130007F0F9
:10580000FAF820111316181A1D1F21232527292BFA
:1058100032343648393B3D3F434848484848484879
:1058200048464148007800E04078207039E08078B0
:10583000FBE7C078F9E710221C4910E00079F4E793
:105840004079F2E7006A13E08079EEE7C079ECE78F
:10585000007AEAE7407AE8E714491022103120463E
:1058600010F082FE1DE0807ADFE7C07ADDE7406A53
:10587000206016E0007BD8E7407BD6E7807BD4E74A
:10588000407CD2E7807CD0E708F0C6F8CDE7807D89
:10589000CBE7192904D2084601F058FA208000E02D
:1058A0000225284670BD0000B84900202071002064
:1058B00010B5044600F0D4F80248C47508F0E6F9C3
:1058C00010BD0000B8490020FFB58FB0064600208B
:1058D0000C900D901F460CAA304600F0B5FA454DCD
:1058E0000446287E84425AD2204608F0AFF9064684
:1058F000042F04D0A879022803D0002002E02878E1
:10590000F9E7012000903B4632462146119808F005
:105910005BF81422002101A810F01CFF204606218C
:10592000484300902430C0B201AA102111F050F871
:10593000002813D11022FF2101A810F0F8FD002843
:105940000CD1009805AA2530C0B2042111F040F80E
:10595000F107C90F01AA119801F070FC7034E0B290
:1059600006AA182111F034F8002811D106A808F071
:105970007FF90024A10006A808180188002903D097
:105980008278119801F09AFF641CE4B2062CF1D3DE
:10599000B00706D5E97D119801F07EFF01E0082FE0
:1059A00002D0042F13D021E0A87902281ED10022B2
:1059B0003146119807F042FFA86A002816D04368C4
:1059C000002B13D000221146119898470EE028783A
:1059D00002280BD129791198002900D001216A7879
:1059E000002A00D00422114301F0EEFB002013B086
:1059F000F0BD0000B8490020F8B501F03DFA0028DC
:105A00002BD1164D0026E87C012801D000241CE093
:105A100008F04EF8EE7400202A7EE96B04E00301E2
:105A20005B18401C9E73C0B29042F8D310E0E86B44
:105A300027013818807B012805D1204608F04AF854
:105A4000E86B38188673641CE4B2287E8442EED377
:105A5000502010F081FF08F019F9F8BDB849002076
:105A6000F8B5354EFF20F07500273776334CF763D5
:105A7000A07B30214843422110F092FDF0630028C2
:105A800025D02046807B410040183076002413E06A
:105A9000F06B250128180622FF2110F05BFEF06B49
:105AA00006222818FF21801D10F054FEF06B2818E4
:105AB0008781641C8773E4B2307E8442E8D31F4838
:105AC0008068002801D0B77601E08020B076307E73
:105AD00070760124776334707770B770F770102296
:105AE0000021174810F036FE37717725757137623F
:105AF000B471F7711248377277721022002110309A
:105B000010F028FEB772F572776237730520707354
:105B10001020B073F77302203074B762F7623763F6
:105B20007774F774347504487475B4750549483052
:105B3000016005494160F8BDB8490020946F00201C
:105B4000207100209DDF000065DF000070B500249B
:105B5000054600290BD108491046FEF75BFB0846B5
:105B6000294601F0E5F9040003D00121284601F09F
:105B70008DFB204670BD000040420F0010B5064965
:105B80000C46483CA162E062E17D182001F03CFB3C
:105B9000E07D01F02DFE10BD004A002070B5264DBD
:105BA0000C4608040FD5E87D10F018FE050006D05D
:105BB00008F012F9002802D0284610F0E7FD012075
:105BC000C003604070BDA0070BD50021084607F058
:105BD00097FD02214C40002825D1E87D10F088FE79
:105BE0001FE0E00721D0686B808808F027F90121C9
:105BF0004C40002817D0A86A00280DD04368002B1D
:105C00000AD0686B002280889847A96A686B0022D6
:105C10004B68808803219847287D10F0B9FE07F073
:105C200061FD204670BD0121D7E7600702D5042041
:105C3000484070BD002070BDB84900207FB50446C3
:105C400080787F4D801F030006F0D5FE0AF4F7F739
:105C5000A41306F0F778B9F7A96A2046002907D0FF
:105C60000C68002CFBD0437B027B4189C01CA04701
:105C7000E3E060780026002847D1A079C00744D02F
:105C8000686B002841D110220021684610F062FDA7
:105C90006169002903D006226846103107E0A08818
:105CA0000CF094F80028E3D0811D0622684610F01D
:105CB0005BFC69468889A1794907C90F0843694691
:105CC000888107F0A9FE297E88420BD1A87D002893
:105CD00001D0FFF767FD5B48026B002A02D001216B
:105CE0000820904707F098FE297E8842A87E02D1BE
:105CF0000121084301E040084000A876214668469B
:105D000007F0FEFC002812D01526A86A002855D0FE
:105D10004368002B52D06278A08801219847002E5A
:105D20004CD0A96AA0884B683246032173E0022157
:105D3000E87D10F0DDFD002004B070BD607806281D
:105D400017D1A0880CF042F8060012D0287C012858
:105D500004D0022808D003280BD114E07179A08860
:105D6000002207F06BFD04E0A1883078052201F0E5
:105D70009DFAA86A002860D04368002B5DD0627845
:105D8000A088022147E0002241201146000100F0D6
:105D9000F7F8E9E7E0780022211D00F055F8297EA8
:105DA00088424AD20621484325302246C0B20C32EE
:105DB000042110F051FE287D10F0EAFD3DE0287B23
:105DC000002802D0A088697B28E028780028A088D5
:105DD00023D00BF0FBFF06002FD0A07AC0070BD01A
:105DE0007079002808D0A189890505D46A46B11DBB
:105DF00000F02AF8002814D022467179A0880832D1
:105E000007F01CFDA86A002817D04368002B14D0A7
:105E10000022A088114698470FE0052101F036FACC
:105E20000BE0A0880321F9E700E003E0A08800F080
:105E300031FA02E0A088FFF7DFFD01207CE70000D7
:105E4000B8490020946F0020F0B52E4E85B0347E06
:105E500015460F46002806D0012804D0022811D08C
:105E600003284BD121E0084607F0A8FE317E044606
:105E7000884243D2002D41D006223946284610F0F0
:105E800073FB3BE000240BE0F16B2001401806227D
:105E90003946801D10F05AFB002826D1641CE4B25C
:105EA000307E8442F0D3C4B21FE0002419E02046C3
:105EB000062148432330C0B26A46102110F088FD05
:105EC00000280CD11022FF21684610F030FB00287A
:105ED00005D13946684601F045F9002805D0641C13
:105EE000E4B2307E8442E2D3DDE7307E844205D2E4
:105EF000002D03D02946204607F088FE204605B035
:105F0000F0BD0000B8490020F8B50E461949152526
:105F1000194F884214D1002409E03246022120465C
:105F200007F094FD002800D00025641CE4B2387E00
:105F30008442F2D3002E1BD010480CF065F817E015
:105F40000BF044FF040012D060790022A11DFFF77E
:105F50007BFF397E884204D23246022107F076FD6B
:105F60000025002E04D0204607F0D2FE00E01425C4
:105F70002846F8BDFFFF0000B849002011DD0000F1
:105F8000F0B50746012080021546381A89B0002472
:105F9000BC4ABD4E030006F02EFD2011181F262D11
:105FA000333A3F464D545B626970757CEFEEEDEC21
:105FB000EBEA89E9E8AAAAF3F6E5E4EB012971D155
:105FC000287802286ED8307059E10129F7D1287855
:105FD0000128F7D8707052E10129F0D128780428FF
:105FE000F0D8B0704BE10129E9D128780128E9D82F
:105FF000F07044E11029E2D110222946A348ADE017
:106000000129DCD128780128DCD8307137E1012959
:10601000D5D12878707132E10429D0D12868904216
:10602000D0D830622BE10129C9D128780228C9D8FB
:10603000B07124E10129C2D128780128C2D8F071B9
:106040001DE10129BBD128780428BBD8307216E1A4
:106050000129B4D128780128B4D870720FE1102931
:10606000ADD18A4810222946103077E00129A6D107
:1060700028780128A6D8B07201E101299FD128789B
:10608000F072FCE004290DD1286890420AD87062B1
:10609000F5E0002906D100F0EFFE002803D0012032
:1060A000F074ECE074E007F003FD1CE007296FD109
:1060B0000622691C684610F057FA287800226946C3
:1060C000FFF7C2FE0546307E854239D200F0D4FE8D
:1060D000002805D0F26B0120290189188873CEE0D1
:1060E000284607F0F7FC502010F036FC96E0072910
:1060F0004ED10622691C07A810F036FA2878002233
:1061000007A9FFF7A1FE317E88421BD20621484332
:1061100005462135E8B26A461C2110F059FC0028DA
:106120000ED15B48874201D1012000E0FF20694683
:10613000C876E8B26A461C2110F08EFC307D4BE038
:1061400002249CE0B07E0028FAD05148874214D146
:106150000120F0764C4807222946403010F004FA1E
:106160008DE05EE07AE00EE00AE075E06FE067E067
:106170007BE04AE041E039E031E00020F0767EE06B
:10618000002070757BE00027012070753D461BE004
:1061900066E028460621484306462136F0B26A46A4
:1061A0001C2110F015FC00280CD16846C07EFF2889
:1061B00008D0FF206946C8760127F0B26A461C2144
:1061C00010F04AFC6D1CEDB22F48007E8542E0D3F2
:1061D000002F54D02C48007D10F0DAFB4FE001294D
:1061E0003ED1287801283BD8307348E0012937D1C7
:1061F0002878092834D8707341E0012930D12878F3
:10620000C11F09292CD8B07339E0012928D1717C2C
:1062100028787074002932D1012830D107F036FD7A
:106220002DE001291CD1B17C2878B074002903D15C
:10623000012801D107F02AFDB07C02F0E2F81EE04F
:1062400001290DD1287803280AD8307417E00129D4
:1062500006D12878307512E00120BDE7012901D070
:1062600018240CE02878B07509E0192F00D367E7EF
:106270000229FCD12988384600F0C6FF0446204692
:1062800009B0F0BD3F420F00B84900202071002046
:106290001A040000FEB50646002001900290304628
:1062A0000BF094FD040017D0144FB879022813D0D6
:1062B000607901AAA11DFFF7C7FD0546387E85421A
:1062C0000BD2284607F0C2FC0246012000900823AA
:1062D0002946304607F078FBFEBDB879002807D084
:1062E0000128F9D161790022304607F0A7FAFEBDF6
:1062F0000521304600F0CAFFFEBD0000B84900206D
:10630000F7B516491525164E174688420FD10024B9
:1063100009E03A462046019907F004FD002800D024
:106320000025641CE4B2307E8442F2D313E00BF00B
:106330004DFD00280ED04379811D00221846FFF73D
:1063400083FD317E884206D23A46019907F0EAFC85
:10635000002500E014252846FEBD0000FFFF0000D8
:10636000B849002070B50C460146032000020A1A05
:1063700000252548130006F03EFB130B0D10171ADD
:106380001E2125292B2D3133393B3D3D35373D002D
:10639000407811E010221D4902E01C491022103102
:1063A000204610F0E1F82DE0406920602AE016490F
:1063B00006221E31F4E7C078207023E0124982786B
:1063C0002431EDE7114902791F39E9E7407AF3E713
:1063D000807AF1E70C4906221831E1E7C07AEBE751
:1063E000007BE9E7C0890AE0008A08E0007AE3E779
:1063F0004079E1E7192904D2084600F0A7FC208083
:1064000000E00225284670BD0C4A00207F71002064
:10641000F8B5164CFF202070002565700320A07091
:106420000126E670062765611920E781C0012082F8
:1064300020461F222946243010F08CF920460221E4
:10644000243001704670877025711F220021084892
:1064500010F080F9204606220021183010F07AF959
:106460006571A571FF20E071F8BD00000C4A0020A5
:1064700060710020FFB583B01C4615460E460C9F88
:1064800003980BF0A3FC002817D0C189B14207D3B1
:10649000A94205D8018AA14202D1408AB8420ED051
:1064A0006846068045808480C78069460D9A0398B7
:1064B00002F0C2FA002007B0F0BD1420FBE718205C
:1064C000F9E7000010B52548007F800744D0244C30
:1064D0002078FF2840D1234806F0C4F82070FF2818
:1064E0003AD0214900240C602049214A0C70042133
:1064F000117000F031FE102200211E4810F02AF920
:10650000102200211C4810F025F91C481E49046087
:106510001B48184A04701B480470072008701B4869
:1065200010210470022010F053FA134A10210320A6
:1065300010F04EFA10220F49154810F015F81448C3
:1065400010220D49103010F00FF804210B4A0846B4
:1065500010F03EFA002010BD182010BD946F0020EE
:106560000C4A0020F5650000084A0020144A00206B
:106570000D4A00207F7100208F710020204A0020EA
:10658000154A0020164A0020174A0020184A002009
:106590004071002010B504F033FC104806F062F89A
:1065A00002F08AFA0E4806F05DF800F0DBFB0D48B9
:1065B00006F058F801F0D2FA0B4806F053F805F04F
:1065C000DBFD0A4806F04EF8FFF772F9084806F0BE
:1065D00049F800F00DFFFFF775FF10BDFD8B0000BF
:1065E00075700000697C000089C200009D5B00009E
:1065F00071750000FEB54A4C0D46080448D5207858
:1066000010F0ECF8040040D046480078002808D08C
:106610002078454ED02808D0A22802D0912821D039
:1066200014E0204608F05CFD2CE0A07800280DD096
:10663000052807D0082809D006280BD00728F0D154
:10664000A0881BE0608919E0007B04E0204608F088
:1066500047FD02E0E0790828E3D12146307810F0C8
:10666000F5F812E060780E28F0D1A0882F49884212
:10667000ECD1A06881784278080210430BF0A6FBA9
:106680000028E1D1204610F081F80120C00345E048
:1066900068040BD50421264A084610F0DDF9254888
:1066A000007810F075F90120800337E0E80736D054
:1066B00021480078002830D00BF0BEFC1F49097F2C
:1066C0008907890F884203D30320694608700CE0CC
:1066D0001B486946007808701A48062200784870FE
:1066E00000A8194902300FF03FFF184869460078AA
:1066F0000872174800784872207800F04FFB002895
:106700000BD014490620087013490968002904D0E9
:106710000A68002A01D00021904701206840FEBD90
:106720000C4A0020124A0020134A002005140000E1
:10673000204A0020CC4900200F4A0020946F0020FE
:10674000154A0020164A0020244A0020174A00203B
:10675000184A0020144A0020084A00207CB514463C
:106760000D4601F0FBFA002D02D02846FFF706FA8D
:106770000C480078002801D011207CBD002C01D0ED
:10678000094804600A48009008490B4801910278C2
:106790000A48084B01780A48007800F059FA0020AE
:1067A0007CBD0000144A0020084A0020204A002036
:1067B0008F7100207F710020114A00200D4A0020B7
:1067C0000C4A0020F8B50C465E49164642181921BD
:1067D0000025C9015C4F130006F00DF9120A1017CD
:1067E000A81C3E526970778188A8A3A8A88F98A892
:1067F000102C73D11022314654486CE0102C6DD10E
:10680000524810223146103065E0042C66D13068C1
:10681000786190E0012C61D1F97830784A4AF870BB
:10682000127800290AD0002807D1387A022801D02E
:10683000052802D1104600F05FFA7CE000287AD0EB
:10684000387A012803D0032801D0042873D101210C
:10685000104610F04DF86EE01F2C60D83A481F2209
:10686000002124300FF076FF37482246314624308D
:106870000FF07AFE344BBC7024332246012112E023
:106880001F2C4CD831481F2200211F380FF062FF07
:106890002E48224631461F380FF066FE2B4B3C71C6
:1068A0001F3B22460021387800F044FD48E0012CCF
:1068B00035D13078042832D878723CE0012C2ED1C2
:1068C000307803282BD8B87235E0062C27D11E4823
:1068D0000622314618300FF047FE2CE01FE0012C55
:1068E0001DD1307807281AD8F87224E0012C16D16F
:1068F0003078032813D838731DE03088022C0ED16D
:1069000006280CD388420AD8F88114E03088022C7B
:1069100005D1062803D3884201D838820BE0182518
:1069200009E0012CFBD13078787104E0192801D2FC
:10693000022C02D002252846F8BD318800F064FC04
:106940000546F8E7FFFCFFFF0C4A00207F7100209E
:1069500010B504460BF03AFA002805D0007813224F
:10696000214600F0A3FC10BD122010BDF8B50E4664
:10697000070048D038880BF029FA050041D0234A97
:10698000A96BD078022806D0012804D0287B0828DB
:1069900003D1002E01D0122436E0002901D01124A9
:1069A00032E01B492C200FF0FBFD0446A8632000B9
:1069B00025D02C2200210FF0CDFE388860801C22CB
:1069C000391D201D0FF0D0FD022020700F483A889D
:1069D0000178287B082810D00020231D05F001FD38
:1069E0000446002E03D0314628460EF0BFFB002C93
:1069F0000AD0284607F0FEFB06E00120EDE713244D
:106A000002E0142400E002242046F8BD764A00206B
:106A100014470000FFB51F4881B0C0781E461746D6
:106A20000D46022818D0012816D0002F30D001982A
:106A30000BF0CCF9040029D0E06A002801D00FF057
:106A400003FE1C2138460FF09BFDE062011E1BD0A7
:106A5000207B082803D00DE0122005B0F0BD002EE9
:106A600008D0887E00900B4612330A8A01980EF0F7
:106A7000C5FE00E000202179002D01D0062200E0B3
:106A8000042211432171E8E71320E6E71420E4E72C
:106A90000220E2E7764A002010B50548C0780007DA
:106AA00001D5044800E0002008F022FA10BD0000E3
:106AB000764A0020944A002070B51A4C0546012100
:106AC000207807F0BDFB1848C1780A20014223D086
:106AD0002570164808F006FA606800281AD1207858
:106AE00000281DD0000107210FF05AFD606000282A
:106AF00010D021780A0100210FF02CFE0020FF2188
:106B0000626803E00301401CD154C0B2237898426C
:106B1000F8D305E0132070BD0020207008F0E2F9E2
:106B2000002070BD884A0020764A0020A071002015
:106B300009490020087048608860094807490160D9
:106B40000849416008498160034808490C300160E8
:106B50000749416070470000884A002041E1000079
:106B6000A071002065EA0000C1E9000021E00000FA
:106B700059E00000F3B5334F0025BE7883B00446DA
:106B800003282DD83878032802D0102005B0F0BD96
:106B9000012C04D0022C02D0032C29D02DE0049823
:106BA00000280CD00622002168460FF0D3FD0622F3
:106BB000694604980FF0CAFC002811D104E00621B0
:106BC00068460EF0C5F818E00622FF2168460FF06F
:106BD000C1FD0622694604980FF0B8FC002801D0D8
:106BE0000220D3E70622684604990FF0BDFC04E0BA
:106BF0006946F86805F04DFA05461348BC70007800
:106C0000042110F025F800207871002D01D0BE700D
:106C100015E0002C13D0684607F054FE0500F6D1AD
:106C2000032C0CD1112000F091F80006000E7871B1
:106C300005D00548054A007804210FF099FF284641
:106C4000A4E7000040700020764A00200077010091
:106C5000F8B50224079F1D461646042919D004DC06
:106C6000012907D0022945D10BE008291BD00C29A6
:106C700040D129E000F040F904003BD100F094F944
:106C800038E000F039F9040034D13046FFF714FF42
:106C900030E000F031F904002CD13A46284606993C
:106CA00000F064FA20E000F027F9040022D13A460F
:106CB0002846069900F05AFA3046FFF7FDFEFFF726
:106CC000EBFE05F06BFA15E000F016F9040011D1A7
:106CD0003A462846069900F049FA3046FFF7ECFE9E
:106CE000FFF7DAFE05F05AFA00F05EF900F044F919
:106CF00005F02EFB2046F8BD70B5104C2168002928
:106D000019D00978814214D10D4D022128780FF055
:106D10009FFF0C4800264680287804210FF098FF3A
:106D200009484671216803204870002001F071FB7A
:106D300070BD032070BD122070BD000058480020B7
:106D4000764A00207048002040700020192801D3A6
:106D50000248704702494000085A7047FFFF000090
:106D60006070002010B5044600F08AF800F062F967
:106D7000FFF7DEFEFFF74CFB0649FF23CB70002236
:106D80008A700A710448052143700470204601F09E
:106D90007DFF10BD40700020764A0020F3B5304ED4
:106DA0000024306883B0002802D0112005B0F0BD67
:106DB0002C4D0521E878084201D11220F6E72A4936
:106DC0004968002905D00978002902D0C00702D0FF
:106DD00008E01020EAE700F04FF807460BF00EF944
:106DE000874207D304980078022803D0032801D0F3
:106DF000122432E01D490C200FF0D2FB3060002835
:106E00002AD003990170002141700A22801C049944
:106E10000FF0AAFB164EB078032806D008F002FB4C
:106E200004001AD007F0DAF917E007F05FFA6946B4
:106E300005F02FF9684607F045FD0120307111205B
:106E4000FFF784FF0006000E707106D02878094A0B
:106E500004210FF08DFE00E013242046A6E7000079
:106E600058480020764A002070480020174700004C
:106E7000407000200077010010B50BF0A9F810BD9C
:106E80001A4800210170417041608160C160016158
:106E9000416181611648B42201804280012292033F
:106EA0008280A022C28002811022428182815023EE
:106EB000C381038242828282C2827D2302831B01BC
:106EC00043838183C18301840F234384094B8384DB
:106ED0000723C3840285012242857E22D243828514
:106EE000C1850186491E4186704700004448002044
:106EF0006070002080BB000070B50E460546202261
:106F0000002109480FF026FC074C0848E570C670C0
:106F100001F0AEFA002803D000202070122070BDCE
:106F20000121217070BD000040700020764A0020D1
:106F30007FB504460D4608460AF048FF002817D0E2
:106F40000C48844212D21022002168460FF002FC45
:106F500069460C70200A4870200C8870200EC8709A
:106F60002946684605F04EF904B070BD0220FBE7E3
:106F70001220F9E740420F0010B50848C0784007DA
:106F800007D5074807F0C0FF00200649C043C88066
:106F900010BD002007F0B8FF10BD0000764A0020A9
:106FA0008048002040700020F8B51E4C0025606825
:106FB000002802D00FF048FB6560E068002802D08E
:106FC0000FF042FBE560184E0527F078384224D0D8
:106FD000164807F093FFF07838421CD0144920205F
:106FE0000FF0DEFA6060002815D0202200210FF09B
:106FF000B1FB0F492020491E0FF0D2FAE0600028B3
:1070000005D0202200210FF0A5FB0020F8BD60680C
:107010000FF01AFB65601320F8BD002007F06EFF2B
:10702000F3E7000070480020764A002094700020AA
:10703000164700000948FF2101700021418041608E
:107040008160C160074806490160074941600749FE
:10705000816002490648103108607047704800207E
:1070600061E5000094700020F1E5000025F40000C7
:10707000D1E40000FEB5354F354D0C4608041FD550
:1070800038780FF0ABFB061E17D03078A22806D058
:107090007D78304607F02CFE00280AD102E02C480B
:1070A000C578F6E7FF2D04D0314628460FF0CEFB19
:1070B000E6E730460FF06AFBE2E70120C00341E05B
:1070C000E0070126234900280AD04868002804D098
:1070D0004168002901D00020884720467040FEBD4D
:1070E000A00709D5C868002804D04168002901D04C
:1070F00001208847022025E0600725D5687900280F
:107100001FD0401E0006000E68711AD14869002881
:1071100008D02E71C868002804D04168002901D029
:10712000012088476946E86804F0B3FF684607F025
:10713000C9FB1120FFF70AFE6871387804210FF0AF
:1071400087FD04206040FEBD0020FEBD764A002081
:1071500040700020444800200149487070470000FA
:10716000764A002010B505F0CDF810BD70B5154C6D
:107170000E46626121610546E0601022FF21304623
:107180000FF0D5F9012806D01022002130460FF06B
:10719000CEF9012803D1102120690DF0D9FD10226C
:1071A000FF2128460FF0C3F9012806D01022002144
:1071B00028460FF0BCF9012803D11021E0680DF03A
:1071C000C7FD70BD407000207FB50C4605460AF033
:1071D000FDFD002814D0826B007B042802D0122011
:1071E00004B070BD002A00D0947D684621460EF0A0
:1071F00041FB044B6A46022128460EF0BDFAEFE738
:107200001420EDE7675D010070B50C4605461928AE
:1072100002D20848844201D1022070BD112D04D150
:107220003C20604380B201F007F9034968000C522A
:10723000002070BDFFFF00006070002070B50E469A
:1072400011491546CB78022B17D0012B15D0002DF4
:1072500017D00AF0BBFD040011D0002E03D0207916
:1072600002210843207120461022294618300FF0D1
:107270007BF92869A062002070BD122070BD142027
:1072800070BD022070BD0000764A002038B50C4663
:1072900005460AF09BFD002806D068460470694642
:1072A00028460EF057FA38BD142038BDF7B505460C
:1072B0001E4812261E4F0C46814208D1B86800288D
:1072C00032D00268002A2FD028469047FEBD1748CA
:1072D000401C844219D1B868002806D00268002AF0
:1072E00003D028469047002806D02846029906F089
:1072F000CFF9060005D017E07D70029838700020A5
:10730000FEBD7D70029838700EE008460AF05EFD02
:10731000002809D00078A84201D00320FEBD2046F5
:10732000029900F0EAFFFEBD3046FEBDFEFF000000
:107330004448002070B51446024620481E46C078D6
:107340000523184224D01E4D00296B68E86802D03E
:10735000002B1DD001E000281AD0202C2CD2002CAC
:1073600001D0002E28D02A70002913D01F2200211E
:10737000581C0FF0EFF9686822463146401C0FF0A8
:10738000F3F8696820460C70491C01F03EF870BDA6
:10739000122070BD1F220021401C0FF0DBF9E868AD
:1073A00022463146401C0FF0DFF8E96820460C7099
:1073B000491C01F049F870BD022070BD764A0020DA
:1073C0007048002010B5094A014613790020002BAF
:1073D0000BD101231371C90707D013466433184634
:1073E00010220421403800F009FA10BD4049002065
:1073F000F8B5044600F070FE00F046F8114F134E49
:10740000FC701149304600F027F81149C0200FF0F8
:10741000C7F800221346B8619401065300212418CE
:107420000C254D436519AB80491CEB600529F7DB42
:10743000521C032AF0DBF878787006480AF018FE30
:10744000F8BD000040490020E2700020FFFF00006E
:1074500001470000FDFA000070B50A4C0025A0426B
:1074600008D1002082008C525218401C95700328CD
:10747000F8DB70BD08F013FB0028FAD0048085709B
:1074800070BD0000FFFF0000F0B51E49202008700D
:10749000FF2048708870C8700126CE8000200881C7
:1074A000C86008610B4602241C3348611C70164AF0
:1074B0005A600A46087124321470144D55601672D1
:1074C0005081D3601474124F15466F612E76688315
:1074D000E9612021545413460E4D59185D6208721B
:1074E0005885D862302154540B4C032351185463EF
:1074F0000B725087094ACA600249094A643105C1C2
:107500000860F0BD404900203A7001003C70010065
:10751000427001005A70010048700100E2700020C2
:10752000D5050100F8B50E460746069900240798D0
:10753000002902D00B242046F8BD022B01D00D24D7
:10754000F9E7517812780D0215432946814301D09D
:107550008024F0E73846F16800F042F9A842EAD00A
:107560002A463846F16800F0F1F90446E3E70000E6
:1075700070B50D4608041AD50E48C0780FF02EF9E4
:1075800004000FD02078B02809D1204608F04EFC26
:10759000002804D020462179083000F07FFD2046E5
:1075A0000FF0F4F801212846C903484070BD0020BF
:1075B00070BD000040490020FFB585B000200F9F3E
:1075C0000090087A0E9D1C460E46C0060BD5079803
:1075D00008F05EFA03007DD00A22314605989847EC
:1075E0000090002816D13078022815D0079808F0AE
:1075F00075FA0028EFD0006884460028EBD0119976
:10760000109822460097029101902B46314664461D
:107610000598A04709B0F0BD70682922417800782C
:10762000090201431202881A91427CD00BDC69489E
:10763000081A13D0012811D0022817D00328D5D159
:10764000002F53D09BE001287ED002286DD0032864
:1076500077D00428CAD1002F68D090E0002F6FD1D6
:10766000F068017829800278416884E0002F67D1B2
:10767000F068417800780F02074304202880F06802
:1076800004A900782070F06840786070384600F0F7
:1076900089F9060022D06846028A03AB4E4930467B
:1076A000F76800F0DDF900280AD1337802214B4851
:1076B0007268FDF77FFB002802D147486946888140
:1076C000387802280CD10222201D79680EF04CFF78
:1076D000288800E07CE0801C288001E068468781E3
:1076E00068468089A070000AE0706FE00120288061
:1076F000F0680021007820707089401C80B200F092
:1077000051F9002813D0298802788918891C29800A
:10771000817A61704189090AA17002784168E01C90
:107720000EF022FF52E00CE00EE026E03BE028885D
:107730000422001D28800021601C0FF00BF845E09A
:107740001DE0002F27D01AE0F0680FF094FA80B205
:10775000B84201D207205DE7874201D1002006E050
:107760001099C919814201D3C01B00E010982880EC
:1077700082B2F068C1192046D2E7002F01D00B2059
:1077800048E7F168059800F02BF802212980207065
:10779000000A60701AE002202880F06800782070EB
:1077A000F0684078F5E70721F068298001782170BA
:1077B000417861708178A1704188090AE17001798E
:1077C000217181796171C088000AA071009821E758
:1077D0000E201FE700280000FFFF00003E700100A0
:1077E00010B508F05CF9002800D0807810BD0000CA
:1077F0000149887070470000404900207CB51E4652
:1078000005001CD0684601808270019500F0ACFA3A
:1078100004001FD1002E1DD0688900280FD00E490A
:107820000C200EF0BDFE002813D0002101606989F4
:1078300081800A4A86601169002903D107E002208D
:107840007CBD11460A68002AFBD1086002E0106185
:1078500000E0132420467CBD05470000404900207D
:10786000F8B50C4C0746A07815460E46FF280FD0F9
:107870000A200EF077FF01000AD0B12008704F8077
:10788000002048700871CE800D81A0780EF0DEFFD8
:10789000F8BD00004049002070B50C460546064979
:1078A000FFF79EFF800704D52146284600F0B8FA6E
:1078B00070BD012070BD0000E27000200EB56B4667
:1078C0001A81FE23002201930092022302AA00F0F3
:1078D00001F80EBDFFB583B0174602A90D9E0498AE
:1078E00000F060F804002AD06846008908F0F6F835
:1078F000002822D04568002D1FD00C9801960090DA
:107900003A462146069B0398A847050018D1FE2E4B
:1079100016D02078022813D16068417802780802D6
:107920000949104388420BD17878397802020A431A
:1079300004990398FFF794FF02E00E2500E001256B
:10794000284607B0F0BD00000229000070B51446BB
:107950000E46054608F0A3F8002806D13146054832
:1079600008F09DF8002803D005808470002070BDC9
:10797000112070BDFFFF000010B50178B0290BD1B8
:107980004178002908D10179122906D01B2903D199
:107990004088012101F084F810BD417C0129F7D015
:1079A00010BD0000F0B5104A536919E09C68658964
:1079B000A84214D39E887219824210D900220CE08A
:1079C00017013F197F89874205D1002900D00D801A
:1079D00010010019F0BD521C92B2B242F0D31B68E4
:1079E000002BE3D10020F0BD40490020FFB51B482B
:1079F00083B0002345692DE0AE68002470890190B2
:107A0000A888009016E0210188194289039FBA4294
:107A10000ED3049FBA420BD8069A002A0FD0134601
:107A2000715C4068059AFDF7C5F9002807D100236D
:107A3000641CA4B200988442E5D3002B09D00C98B2
:107A4000002802D00C99019808802001801907B005
:107A5000F0BD2D68002DCFD10020F8E7404900206F
:107A6000FEB5174600256A469580044640891D4AA2
:107A70001E46904208D001AA0092401C237880B292
:107A80006268FFF7B3FF0546237802211648626853
:107A9000FDF790F9002807D1237802211348626886
:107AA000FDF788F9002801D060890EE023780221D3
:107AB0000F486268FDF77EF900280DD0002D03D035
:107AC00068468088B84203D0384608F0A7FE04E034
:107AD0006889401E80B200E06089002E00D03080AE
:107AE0002846FEBDFFFF00003C7001003E70010013
:107AF00042700100FFB583B00E461D46174601A92E
:107B0000039807F0E5FD040022D1002F0FD069464D
:107B100008803088FFF746FF6946088800F0BCF906
:107B20000146012203980AF025F9002811D13146B7
:107B30000398FDF7E5F904000AD1FF2D08D0019B59
:107B40001E22194604489B1C08F073FE0198C5705C
:107B5000204607B0F0BD00008506010010B50446C0
:107B6000FDF7FAF90749FF200870487000204860C7
:107B700088608C700421204601F088F800F004F839
:107B800010BD00003449002070B500200D4D0E4B93
:107B90000446FF22062141435D52C918CA708A700B
:107BA000401C0C710328F5DB0120C04318800748F6
:107BB00007F024FF0648FDF755FB06480AF058FA7F
:107BC000002070BDFFFF0000D0700020CD06010036
:107BD000AF060100050601007CB516460C460546B9
:107BE000FCF7FEFE11490978884201D316207CBDBE
:107BF00001A9284607F06CFD1728F8D0002E10D0F8
:107C00000020694608802088FFF7CCFE6946088876
:107C100000F042F90146012228460AF0ABF800289C
:107C2000E5D121462846FDF781F97CBD9D4A00201B
:107C3000F8B51C4615460E4607460AF0C7F8002858
:107C40000DD0017B074808292B463246394600945F
:107C500003D0007807F052FDF8BD4078FAE7012024
:107C6000F8BD000034490020F0B587B00F46080485
:107C700070D5394EB0780EF0B1FD040064D0207894
:107C8000A0285ED10120694608732046FDF7B6F9A9
:107C9000050041D16846807800280BD0142809D00F
:107CA000152807D01A2805D01C2803D001461F39F3
:107CB00020290BD8B16800292ED0694649780029BF
:107CC0002AD169460874062008751FE0C0070AD04B
:107CD0007368002B05D0608803AA6946984705465B
:107CE0001AE0062518E0B368002B06D0608803AAC6
:107CF00069469847050001D10EE0062568464078A0
:107D0000002809D16946887808740D7500204882DA
:107D1000608804A9FDF78AF86846007B002804D033
:107D2000A068002801D00EF08FFC002D05D1684618
:107D30008078122805D01B2803D16088012100F02B
:107D4000AFFE20460EF022FD0120C003784007B0B0
:107D5000F0BDFFE70020FAE7344900200149087030
:107D6000704700003449002070B50446456800881B
:107D700000284AD02B78022125486A68FDF71AF8B6
:107D8000002807D12B78022122486A68FDF712F8F3
:107D900000283AD0A078C01F092834D81E4EF08899
:107DA00000282ED02188081801210904884228D8EB
:107DB0001A490C200EF0F4FB050020D0002207E049
:107DC00011016368F0880A315852401CF080521C3F
:107DD00020889042F4DC0020286008222146281DDB
:107DE0000EF0C2FB7069002801D105E00846016869
:107DF0000029FBD1056000E07561002070BD1320F3
:107E000070BD012070BD182070BD022070BD000043
:107E10003C7001003E700100404900200247000014
:107E2000FEB50E46074600250223194A19490120CE
:107E30000095FFF7DBFD040027D0232000900023EE
:107E400004221D21384600F0E3F8029000281AD0E1
:107E50006089694688800420C880029901200870E2
:107E60000298334645700299FF20887002990022DB
:107E7000C87001A93846FFF73DFE040006D00298FD
:107E80000EF0E2FB02E0152400E001242046FEBDD6
:107E90005A700100FFFF000000B507F0D5FB002875
:107EA00001D0807800BD102000BD00B507F0CCFBEC
:107EB000002800D0008800BD7CB50D46044609F0BE
:107EC00085FF29462046FDF7D3F9002812D16846E0
:107ED0008580204609F07AFF00280BD0027B01A99B
:107EE0000748082A009106D07F2300222146007807
:107EF00007F004FC7CBD7F23002221464078F7E791
:107F00003449002010B504460B4688060DD51046AE
:107F1000FFF7C2FF01460122204609F02BFF05288A
:107F200001D00F2800D1082010BD882003420CD0BA
:107F30001046FFF7B1FF0146180701D5012200E006
:107F40000022204609F016FF10BD880701D5002049
:107F500010BD032010BD10B50346C8060DD5104650
:107F6000FFF79AFF01460122184609F003FF052892
:107F700001D00F2800D1082010BD480705D51046B4
:107F8000FFF78AFF0146012206E0480608D51046A1
:107F9000FFF782FF01460022184609F0EBFE10BDF4
:107FA000C80701D0002010BD022010BD70B51D46CD
:107FB00003460C4688060DD51046FFF76DFF0146B7
:107FC0000122184609F0D6FE052801D00F2800D15D
:107FD000082070BD8820044214D01046FFF75CFFD3
:107FE0000146200701D5012200E00022184609F0D1
:107FF000C1FE002808D0697A0029EAD0297A002930
:1080000002D170BD880701D5002070BD032070BD6E
:10801000F8B5069F1E461546162928D00CDC0929FE
:108020001FD004DC05291CD0062911D11BE0112921
:1080300017D012290CD118E01D2916D004DC1729FD
:1080400015D01B2904D110E052290ED0D2290CD012
:108050000124114A95420CD1FCF742FF001B85B266
:108060000BE00224F5E70724F3E70324F1E70524F6
:10807000EFE7D22901D10C35ADB2601980B2394693
:1080800000F060FE002805D0002E00D0358061424F
:108090000EF018FAF8BD0000FFFF000010B507F061
:1080A000E3FA002801D00EF0CFFA10BD10B5094A4E
:1080B000014653790020002B0BD101235371C907CE
:1080C00007D01346A4331846102209219038FFF731
:1080D00095FB10BD84480020F0B500213D4C0222E4
:1080E000A1603D4D227008462954401C80B21628DC
:1080F000FAD36270374BE180A27050200C331880A5
:10810000A0205880184681807D20C000D880E27071
:108110000123304823716171143002702F4C446088
:10812000037241812E4CC460064602742D4F776164
:108130003446337671831034143EE66020240255B1
:108140000646294F3419776223727185F56230240F
:1081500002550546234E6E632C1923726987133D21
:10816000E560402402550546204E6E642C192372AA
:1081700061810E3DE560502402550546194E2C19CB
:108180006E6523726181123DE560602402550546EB
:10819000174E6E662C1923726181083DE5607024CC
:1081A000025505460F4E2C196E6723726181113DF1
:1081B000E560802402550F4A80304260037241819D
:1081C0006A1CC2600C48A03210600C485060104617
:1081D0008160F0BD84480020A07000203C70010048
:1081E000D06F010042700100507001005270010018
:1081F0005870010062700100F9080100410A010095
:1082000070B51646214A0D4611460024143103006C
:1082100004F0F1FB0A0613383818382128383138B1
:10822000152D2AD81622002119480EF093FA2A4655
:10823000314617480EF098F925E0022D1DD13088FF
:10824000D08020E0082D18D11048082231460C308B
:10825000FCF757F817E0012D0FD1CA690B493078A8
:108260003C3105E0012D08D1CA6B084930785C31FA
:1082700008F0AEFB07E0012D01D0182403E03078B0
:10828000107100E00224204670BD000084480020E8
:10829000A07000201148807C01280DD003280ED04A
:1082A00007280FD00F2810D01C2811D0222811D059
:1082B000322811D0002070471320C04370470D2092
:1082C000C04370470720C04370470220C043704737
:1082D000012070470220704703207047946F0020F0
:1082E000704710B500F0FAF810BD10B500F016F99F
:1082F00010BD10B500F02AF910BD10B5FCF766FBF3
:1083000010BD10B500F036F910BD10B500F04AF9F7
:1083100010BD10B500F060F910BD10B5FCF766FB9C
:10832000002010BD10B5FCF77BFB10BD10B5FCF7AD
:1083300087FB10BD10B5FCF793FB10BD10B5FCF723
:108340009FFB10BDFEB508AF70CF6F4670C7FCF73E
:10835000A7FBFEBDF0B585B084460AA8F1C8049716
:108360006F4671C7604600F04DF905B0F0BD38B5F5
:10837000049C009400F086F938BD10B5FCF7A0FB12
:1083800010BD38B5049C009400F09AF938BDFFB5D3
:1083900087B094468E4610A8F7C806976F4677C7F1
:1083A00062467146079800F0A9F90BB0F0BD10B510
:1083B00000F0FEF910BD10B5FCF790FB10BD10B534
:1083C000FCF79EFB10BD10B5FCF7ACFB10BD10B563
:1083D000FCF7B8FB10BD10B500F008FA10BD10B5E1
:1083E000FCF7C2FB10BDFEB508AF70CF6F4670C77B
:1083F000FCF7CCFBFEBD38B5049C009400F014FAE9
:1084000038BD10B5FCF7DCFB10BD10B5FCF7E8FB80
:1084100010BD10B5FCF7F4FB10BDF0B585B00AAC8B
:10842000F0CC03976F4670C7FCF7FAFB05B0F0BDC0
:1084300010B5FCF70BFC10BD10B5FCF717FC10BD18
:1084400010B5FCF723FC10BD10B5FCF72FFC10BDD8
:1084500070B55478157822022A43FCF737FC70BDBA
:1084600010B5FCF73DFC10BD10B500F0FBF910BDD8
:1084700010B5FCF739FC10BD38B5049C009400F031
:1084800009FA38BD38B5049C009400F0B1FA38BD43
:1084900010B500F01BFA10BD10B5FCF737FC10BD8D
:1084A00010B505280ED90C4CA0420BD2A14209D21E
:1084B000814207D3FF20F530824203D2092B01D934
:1084C000A34201D3002010BD521C4A43D80082426F
:1084D000F8DA012010BD0000810C0000F8B5074655
:1084E000084616460D460C300EF03CF9040011D03B
:1084F000912020700E206070A5702046A7800C305F
:108500002A463146A0600EF02FF803482146007835
:108510000EF09CF9F8BD0000764A002070B50546C3
:108520000C4606200EF01EF901000BD091200870B9
:108530000F2048708D700120C87003488C8000782F
:108540000EF084F970BD0000764A002010B5044694
:1085500003200EF007F9010008D0912008701A20BE
:10856000487003488C7000780EF070F910BD000060
:10857000764A002070B5064614460D4608200EF0D7
:10858000F1F801000AD091200870052048708E7023
:108590008D8003488C7100780EF058F970BD000092
:1085A000764A002070B5064614460D4608200EF0A7
:1085B000D9F801000CD0922008703E2048700820A5
:1085C00088708D808E710348CC7180780EF03EF9F2
:1085D00070BD0000764A002070B505460C460620A6
:1085E0000EF0C0F8010009D09120087030204870CA
:1085F0008D7003488C8000780EF028F970BD000063
:10860000764A0020FFB5064681B017460D46162073
:108610000EF0A8F804002FD0912020703E2060704A
:108620000120A07030460026002808D03120E070DC
:1086300020460622002108300EF08CF806E0E67095
:108640002046062208300A990DF08EFFA580A771FA
:108650000498E0710B98E0810C9820820D9860825C
:108660000E9820750548214600780EF0EFF8082D89
:1086700002D2034968000E5205B0F0BD764A0020D0
:10868000AC710020F8B507461C4615460E460C2076
:108690000EF068F801000FD0912008703E2048705D
:1086A00003208870CF708E80CD800C810698488121
:1086B000024800780EF0CAF8F8BD0000764A0020A3
:1086C000F8B507461C4615460E460E200EF04AF831
:1086D00001000FD0912008703E204870072088705C
:1086E0008F80CE800D814C81069888810248007869
:1086F0000EF0ACF8F8BD0000764A0020FFB5064643
:1087000081B017460D4622200EF02CF8040048D008
:10871000912020703E2060700A20A0703046002614
:10872000002814D03120E0702046062200210830B5
:108730000EF010F82046062200210E300EF00AF846
:1087400020460622002114300EF004F812E0E670F4
:108750002046062208300A990DF006FF2046062220
:108760000E300B990DF000FF2046062214300C99B4
:108770000DF0FAFEA580A7710498E0710D98608352
:108780000E98A0830F98E083202110980855064882
:10879000214600780EF05AF8082D02D203496800ED
:1087A0000E5205B0F0BD0000764A0020AC710020EA
:1087B000F8B5064615460F4610200DF0D3FF04000D
:1087C00011D0922020703E2060700520A070A680FD
:1087D00008223946A01D0DF0C7FE0348E5818078C8
:1087E00021460EF033F8F8BD764A0020F8B506466B
:1087F00017460D460E200DF0B5FF040011D0922053
:1088000020703E2060700420A070E670A5800822D1
:108810003946A01D0DF0A8FE0248214600780EF052
:1088200015F8F8BD764A0020F8B507461C461546EF
:108830000E460E200DF096FF01000FD0912008701B
:108840003E204870062088708F80CE800D814C813C
:1088500006988881024800780DF0F8FFF8BD000006
:10886000764A002070B514460D4608200DF07AFFB8
:1088700001000BD0902008701320487001208870F0
:108880008D800348CC8000780DF0E0FF70BD0000C3
:10889000A44A0020F8B507461C4615460E460C2093
:1088A0000DF060FF01000DD0912008700C20487081
:1088B0008F708E808D710C810698488102480078F7
:1088C0000DF0C4FFF8BD0000764A0020FFB581B06E
:1088D000444E02990025F068174602292CD0B18831
:1088E00000297CD07288CB19121D934271D8401890
:1088F0003A4604990DF038FEB088C01980B2B080B5
:108900007188091D88425CD10C200DF02BFF0100FD
:108910005ED090200870FF204870019848800220A7
:108920000871B088C880F06888602F4800780DF022
:108930008DFFB580357044E004994A780B781102B8
:1089400019433A1F7180914222D10C200DF00AFF89
:1089500004003BD090202070FF2060700198608060
:1089600002982071E780214938460DF019FEA06079
:10897000002809D03A4604990DF0F6FD1A48214620
:1089800000780DF063FF1CE020460DF05DFE1DE059
:1089900091421BDD3178002903D0002801D00DF071
:1089A00053FE70881149001D80B20DF0F9FDF06092
:1089B000002814D03A4604990DF0D6FDB780012066
:1089C0003070002005B0F0BD09E002E0B58006E09F
:1089D000F068002801D00DF037FEB5803570012019
:1089E000F0E70000704A0020A44A00200180000047
:1089F000FFB583B01C4615460E460C9F039809F040
:108A0000E5F9002809D06846068045808480C78043
:108A1000FF226946039800F00FF807B0F0BD000090
:108A200008B51346034A00920A46012108F070FF78
:108A300008BD0000F90B01003EB50023019204249B
:108A400002930A460094024B122109F06DF83EBDD4
:108A50009F0C010008B51346034A00920A461321F1
:108A600008F056FF08BD0000CB0C01001FB5694699
:108A7000C8810022FF2103206C4607C4034B03AAD0
:108A80000621034809F050F804B010BD6F0C010036
:108A9000FFFF000001484089704700009C4A002009
:108AA00013B504484079012803D101AA6946FFF7AC
:108AB00034FC1CBD9C4A002070B50025254C30229A
:108AC00025706570E57025716571A571E571658129
:108AD00025612072294620480DF03CFE09F01AFA63
:108AE00026460C36307800280ED000011B490DF0C8
:108AF00057FD6061002807D0717821713178E170ED
:108B00000A0100210DF026FE154821790078401851
:108B1000C0B2124920700001491C0DF041FD2061D6
:108B2000002811D021780A0100210DF013FE002049
:108B3000FF2105E023690201D218401C5172C0B226
:108B400022789042F6D301E025702571054809F09E
:108B50008FFA70BD9C4A0020BC710020044C0000BC
:108B6000B04900203D1001000A2A01D001207047C1
:108B70004A780B7812021A430280CA788B78120264
:108B80001A4342804A790B7912021A438280CA79C9
:108B90008B7912021A43C2804A7A0B7A1102194366
:108BA000018100207047042A01D0012070474A78D3
:108BB0000B7812021A430280CA788B78110219438B
:108BC000418000207047082A01D0012070474A7870
:108BD0000B7812021A430280CA788B7812021A4369
:108BE00042804A790B7912021A438280CA798B79C2
:108BF00011021943C180002070470000F8B5214ED2
:108C00000D4608042ED5307A0DF0E8FD04000BD097
:108C10002078902805D16078132808D0204608F0E5
:108C200075FD20460DF0B2FD0120C00328E0164975
:108C30000020097CA7780BE0420012199279737822
:108C4000D218D2B27270914200D27170401CC0B280
:108C50008742F1D870780028E3D00121307A0DF0F6
:108C600047FEDEE7E8070CD008F03EFF002806D0FC
:108C70007078002803D00121307A0DF039FE0120F0
:108C80006840F8BD9C4A0020946F0020042907D05A
:108C9000052905D0062903D0072901D002207047F5
:108CA0000C22044B4A43D218403A1182907400209F
:108CB00070470000BC71002070B50C46098805465D
:108CC000042905D0052903D0062901D0072929D177
:108CD0006068002826D00121284609F0FDF9002807
:108CE0001ED0284609F048F90F498D420BD00028C4
:108CF00009D12189002906D9208806280ED10B48E0
:108D0000008881420AD20A480078002804D021460F
:108D1000284608F03DF870BD162070BD1B2070BDC0
:108D2000142070BD022070BDFEFF0000A64A002086
:108D30009D4A0020024A001F508151709170704777
:108D40009C4A002010B5001D80B205490DF028FC9A
:108D5000002803D00321C9430DF0B4FB10BD00006F
:108D6000034C00000C480B4A0068918841610A21BD
:108D7000C16141623223C3624163C3639388436428
:108D8000C1641189816541681F2211434160034913
:108D9000C1607047C86F0020384800201F030000E2
:108DA00070B515461C46214A0B46916B90B00029C0
:108DB00002D0097B002934D1116C002902D0C97975
:108DC00000292ED1916C002902D0C979002928D11F
:108DD000164940318E8E16498988890A8E4202D3FF
:108DE000072010B070BD11496031097F490618D5C0
:108DF0006946C8700622194601A80DF0B5FB0AA8FD
:108E00001022294602300DF0AFFB06A810222146A1
:108E100002300DF0A9FB684601F090FB801B012891
:108E200001D00C20DDE70020DBE70000EC71002022
:108E3000946F00201CB51B4B9A6B002A05D0147B45
:108E4000002C02D0D27A002A11D11A6C002A05D047
:108E5000D479002C02D0127BD20708D19A6C002A58
:108E600007D0D379002B04D0D27B002A01D0122066
:108E70001CBD0C4A0C4B40329B88928D9B0A9A4237
:108E80000BD26A46507000A8062202300DF06CFB2F
:108E9000684602F05FF9012801D007201CBD0020C0
:108EA0001CBD0000EC710020946F0020F0B51F4C39
:108EB00089B00D4606462146002004F08AF80028B5
:108EC000F9D0A042F7D000210446012080052746B2
:108ED000074300910191029103910491059106913C
:108EE00007916A46D773390A9173390C517330462A
:108EF00004AA694600F068FC6A46907F517F000230
:108F000009044018D17F40182870010A6970000CCC
:108F1000A8700121200A89030843EF702871200CF2
:108F200040210843687109B0F0BD0000FFFF3F0019
:108F3000F8B544490D468035C86A2877020A6A7731
:108F4000000CA877886AE877010A2C462034217043
:108F5000000C60703C49002004F02CF80026074605
:108F6000711E304604F035F830433A460AE00020DE
:108F700004F020F800270646791E384604F029F848
:108F800038433246930430499B0C0343EFD0D64319
:108F9000C3430E403343EAD0FF231B020340207239
:108FA0001B0A6372FF231B0403401B0CA372000EF9
:108FB000E0722273100AC0221043607301200090F7
:108FC0002149002003F0F6FF00270646791E3846A7
:108FD00003F0FFFF0146394330460A460243EFD013
:108FE000194BCA4343401A43EAD0FF230A461B02E7
:108FF0001A40130A0A46FF273F043A40CEB2A6732E
:10900000C7B2E373120C2274090E61748004A77452
:10901000800EBC46E0742F7FBE4211D16E7FB342FA
:109020000ED1AB7F9A420BD1EA7F914208D12278D0
:10903000944505D16178884202D100980028BFD1BB
:10904000F8BD0000EC710020FF3F000010B500F0FB
:109050001DF882228021002001F05AFA10BD000084
:1090600010B50648C078002804D1054803F0FAFA84
:1090700000F0E6FC04490348C86310BDC86F002037
:10908000799D000069210100EC71002010B50B48AA
:10909000846B04F069F800202073A0722071084CE2
:1090A0000121E0780DF0D4FDE07802210DF0D0FD33
:1090B000E07804210DF0CCFD10BD0000EC71002023
:1090C000C86F002010B501F0D1FA002010BD0000DB
:1090D00010B51149886B002805D0027B002A02D008
:1090E000C07A002811D1086C002805D0C279002A66
:1090F00002D0007BC00708D1886C002807D0C17956
:10910000002904D0C07B002801D0122010BD02F03D
:1091100059F8002010BD0000EC710020FFB581B0AF
:109120000D4600F083FA040022D01920C0018542C8
:109130001ED8062D1CD30399814219D8A94217D3F2
:10914000FF220499F432914212D80A9981420FD831
:109150000498C900401C6843814209DDA07BC00718
:1091600006D126468036B168480701D4880702D563
:10917000122005B0F0BD20464030C585039A028616
:109180000B9A42860C9A8286049A82820A9A074631
:10919000C282E07902220028A07E02D000282ED0D0
:1091A00037E0002835D1E420005D800702D5114367
:1091B000B16022E0039885420BD028184108284668
:1091C00003F0F8FE78822146523103980AF09CF9A8
:1091D00000E07D821048006E411C042901D9042062
:1091E00000E0401CF87320460AF038F9208F042173
:1091F0000A303883B0680843B060122008E0E420E9
:10920000005D800701D41A20B3E711431320B16039
:10921000A0760020ADE70000EC710020017A4A073B
:10922000D30FF022125812781207D20F934204D1B2
:109230000422514001720020704701207047017ADA
:109240000A07D30FF022125812785207D20F934216
:1092500004D008225140017200207047012070475D
:10926000F8B506460021084603F012FA184F386890
:1092700000282AD01748006E012826D1982081594D
:10928000308E0025814201D30C1A02E0091A1248DF
:109290000C18124800688047A04203D9011B06D56C
:1092A000844201D3251A02E0211A0B480D180C48FC
:1092B000807F4008A84205D27D21281AC900484372
:1092C000400900E0002039688847B0203073F8BDBD
:1092D000DC4A0020EC7100200000C0A834480020C7
:1092E000946F002001468031CA6C521CCA640A6D1A
:1092F00001D1521C0A65120603D50122CA6400225C
:109300000A652030C1784A0602D520221143C17077
:109310007047000070B50546FF2000022C468034DF
:10932000616F05E0CA890243CA81616F096861679C
:109330000029F7D1E16F002906D0CA890243CA810A
:10934000E16F0968E167F6E7E06E002801D00DF0F3
:109350007BF92C4620346078FF2801D00DF054FCB6
:109360002078FF2801D00DF04FFCA078FF2801D015
:109370000DF04AFCA88800F0D9F808488068002859
:109380000BD00748006E002807D1064CE069002882
:1093900003D00DF059F90020E06170BD946F0020FA
:1093A000EC710020C86F002070B504461C480E46C2
:1093B000C16D0025A14200D1C565FC2000590028DF
:1093C00004D0A0880022802101F0A2F8E08F0028BC
:1093D00004D0A0881322812101F09AF8A0880522E8
:1093E000812101F095F8A57165734E200655E0794D
:1093F000002807D109F06EFE012803D801210020C2
:1094000003F046F9E079012807D109F071FE01283F
:1094100003D80221002003F03BF9002070BD0000BA
:10942000EC710020014680314A6C521C4A648A6CFF
:1094300001D1521C8A64120603D501224A6400221B
:109440008A642322125C520609D5028F4030438879
:10945000D218028001228868920290438860704787
:1094600070B5044618206072EC20005900282BD0FB
:109470000F21817021464031CA8DC270120A0271DB
:109480000A8E4271120AC31C82711D468A8A2A7191
:10949000120A6A71CA8A4272120A82728A7FC27280
:1094A000098C0173090A417321460C2262310E3086
:1094B0000DF05AF820462030C17804221143C170C3
:1094C00092206073002070BD012070BD70B505460C
:1094D00018206872EC204059002825D010212C4615
:1094E00081704034E18DC170090A0171218E417192
:1094F000090AC31C81711A46A18A1171090A5171A6
:10950000E18A4172090A8172A17FC172218C0173C3
:10951000090A417329460C2262310E300DF024F8FD
:1095200097206873002070BD012070BD70B5164C87
:109530000346206D002102460D461CE0FF265D36E5
:10954000365A9E4215D1002904D0626D824204D160
:10955000616504E01168216501E002680A600DF0B0
:1095600073F8606D0560206E002809D0401E2066EB
:1095700004E0014600680028E0D1206E002802D1F6
:1095800000F004F8256570BDEC71002070B5064D43
:109590006C6B03E020460DF057F82468002CF9D1DD
:1095A0000020686370BD0000EC710020F8B51C4E0F
:1095B000706B002832D1348C1A48213404401A4D83
:1095C0002146287C1031401C484380B21B210CF0FE
:1095D000E7FF002822D07063297C124E09010A1887
:1095E00000218C3E0F46103214E0002909D0C681BC
:1095F000426087812B7C8B4207D90346103303607E
:1096000004E0084B8E3BC381F2E70760491C121946
:1096100089B210302B7C5B1C8B42E6D8F8BD000071
:10962000EC710020E0FF0000946F00200146064826
:10963000006D05E0FF225D32125A8A4202D00068B6
:109640000028F7D170470000EC71002030B50C4ABB
:1096500004460948137C0021406B084D5B1C07E061
:10966000C289A24207D0AA4205D0491CC9B2103013
:109670008B42F5D8002030BDEC710020FFFF0000C8
:10968000946F002010B51422002102480DF062F8FA
:1096900010BD00003C72002070B5FF25613510211F
:1096A00028460CF07DFF04462A4600210DF052F8B2
:1096B000002C0FD01F4D01232A6D002A0CD0686D9D
:1096C000FF304130818B491C89B2080400D501214B
:1096D000104609E0002070BD19460AE0FF265D36FD
:1096E000365A8E4203D000680028F7D101E00028E6
:1096F000E9D12646FF364136B183002910D0002A31
:1097000012D0686D04606C65286E401C2866696D17
:1097100000200860B18BA180A0712073A08870BD6B
:1097200020460CF091FFF9E72C656C652B66FFF77E
:109730003DFFECE7EC71002010B50648806C002876
:1097400006D0C079002803D000F0E0F9002010BD59
:109750000C2010BDEC71002010B50C46FFF766FF21
:1097600000280FD08179102901D0022010BD4E2190
:109770000C54C179002903D031214173002010BD60
:109780003021FAE7122010BD70B504460D2060723A
:10979000EC200059002815D0054604202146A87069
:1097A000FF3108222D31E81C0CF0DEFE2146FF318E
:1097B0002846042235310B300CF0D6FE442060736D
:1097C000002070BD012070BD30B5447803782402BC
:1097D0001B198478C57824042D06641989B01B19D7
:1097E00000934479037924021B198479C5792404F0
:1097F0002D0664191B190193447A037A24021B195C
:10980000847AC57A24042D0664191B190293447BBB
:10981000037B24021B19847BC07B240400062018D0
:10982000181803904B7808781B02C0188B78CC78F6
:109830001B0424061B19C01804904B7908791B02DD
:10984000C0188B79CC791B0424061B19C01805900D
:109850004B7A087A1B02C318887ACC7A0004240653
:109860000019181806904B7B087B1B02C0188B7BD5
:10987000C97B1B04090659184018079004A96846BB
:10988000FAF78CFF002009B030BD10B5092301465E
:1098900043728031CA6E002A0FD09370C279CB6EAA
:1098A000002A06D008225C31D81C0CF05DFE002096
:1098B00010BD08220146D431F6E7012010BD00009A
:1098C000F8B507462A48C1780020C04300294BD08C
:1098D000002F49D027490C6D002C45D00646E07971
:1098E000012811D1608EA18D88420DD2627B012AA0
:1098F0000AD1254680356A6F002A05D1AA68002A58
:1099000002D1E27B802A03D098200159208E0EE0FC
:10991000091A6869401E41430091A16F0098FAF747
:1099200079FC401C80B22086AA69009951188142B6
:1099300001D30D1A02E0091A0F480D18AE4200D9E2
:109940002E462468002CCAD10C4800688047B042DB
:1099500001D8301A06E0B04207D58642F9D2311A52
:109960000548081838603046F8BD00213960F8BD58
:10997000C86F0020EC7100200000C0A8344800200F
:10998000F1B5002582B02C460420029A290E121847
:1099900024020C43FF32290201321579401E0D4387
:1099A00040B20028F1DA0298C17C203040790818D2
:1099B000C7B2252F01D3253FFFB202983A46C7749C
:1099C00001200021FAF78DFC28402140084302D0F5
:1099D00002988774FEBD00200646009032460120A2
:1099E0000021FAF77EFC28402140084303D000986C
:1099F000401CC0B20090761C76B2252EEEDB3846B5
:109A00000099FAF707FC00273E46009132460120F4
:109A10000021FAF766FC28402140084307D000984F
:109A2000874202D102988674FEBD7F1C7FB2761CED
:109A300076B2252EEADBFEBD0021C174704700001E
:109A400070B505462948002404602948C0220460F6
:109A5000214628480CF07EFE2748284AC570D07D54
:109A6000117E000209044018917D254D41182148BE
:109A7000C162917ED37E09021B04C918537EC918A6
:109A800081620821C18105821E4B43820175C38218
:109A90004175058343830146FF2360310B774C7783
:109AA0008C77CC7720310C704C708C70CC7020315E
:109AB0008B76CB760B774B771F238B77D17B01840B
:109AC000CA00703242848184C2841B218183FF21B9
:109AD0004931C1830C490163FBF70AFCFFF7D2FD52
:109AE00001F082FB00F0DAFD70BD00006C4A00203E
:109AF000DC4A0020EC710020C86F0020946F002029
:109B0000D70700007081000000F9150070B50E48FD
:109B1000846C03F029FB0D4DFF21E87801310DF035
:109B200097F80121E87849020DF092F8032100200E
:109B300002F0AEFD0020E0712071A0718122802131
:109B400000F0E6FC70BD0000EC710020C86F002042
:109B50000449098C0170002141700349097C81701E
:109B600000207047EC710020946F002070B509212F
:109B70004172EC210958002933D014228A70024620
:109B8000FF3224321346547E127E25021543CA1C2E
:109B90001446CD7002462D0AFF320D712232557FD8
:109BA000167F2A0232434A71120A8A715A7F1B7F3A
:109BB00012021A432271120A62710246FF324232C5
:109BC000537814781A0222434A72120A8A720146A2
:109BD0002031CA7804231A43CA70B221417300208D
:109BE00070BD012070BD70B509214172EC2109588A
:109BF00000292AD015228A700246FF3224321346E9
:109C0000547E127E25021543CA1C14460246CD70AE
:109C1000FF322D0A22320D71557F167F2A02324300
:109C20004A71120A8A715A7F1B7F12021A432271EB
:109C3000120AFF30627142304278037810021843F2
:109C40004872000A8872002070BD012070BD10B5F6
:109C5000FFF7ECFC002805D0C179012902D1417B36
:109C6000462901D0022010BD0146062220310A718A
:109C70004722427348780CF0C7FF002010BD70B532
:109C80000C46FFF7D3FC002802D0C179012901D08E
:109C9000012070BD417B46292FD1A27BE17B1202BE
:109CA0008918627B237B12041B06D2188A1801468E
:109CB0008031CA62A37AE27A1B02D218637A257ACB
:109CC0001B042D065B19D2180A63A379E2791B02E3
:109CD000D218637925791B042D065B19D2184A63C3
:109CE000A378E2781B02D218637824781B04240638
:109CF0001B19D2188A6350214173002070BD70B5C2
:109D00000D46FFF793FC040006D02946FFF74CFBF5
:109D100020342071002070BD122070BD01214172DD
:109D2000EC210958002905D00B228A707421417357
:109D3000002070470120704701214172EC21095831
:109D400000290AD012228A70A22141732030C178E2
:109D500004221143C1700020704701207047012187
:109D600041728030C06E002803D013218170002022
:109D7000704701207047000070B50C460146200472
:109D800012D508460CF02AFD05000AD02878802854
:109D900001D0812802D1284600F072F828460CF044
:109DA000F5FC0120C00363E03349E207886B803093
:109DB000002A05D00068002800D08047012057E025
:109DC000A20705D54068002800D0804702204FE058
:109DD000600703D5FFF73AF9042049E02648A206B8
:109DE000006C05D5806C002800D0804720203FE023
:109DF000E20605D5406C002800D08047102037E0EF
:109E00001D48A205806C06D5006E002800D0804752
:109E1000012040022CE0E20506D5C06D002800D0EC
:109E20008047FF20013023E0134AE004157915D55F
:109E300012484278D2070FD00022427040690323B3
:109E40004278521D1A43805CC00602D40889401C27
:109E50000881284600F086FA204670BDA00409D586
:109E6000CB798A794979284601F0D0F8012040035E
:109E7000604070BD002070BDEC710020E86F0020D4
:109E8000F0B5017800248DB0802902D081297DD0E1
:109E9000D3E1FC4E417835468035062977D006DC83
:109EA0000B0002F0A8FD060D3EEFEEEDECEF0729EA
:109EB0006ED081296DD082296CD08629E8D178E1D5
:109EC0004088FFF7B3FB05007ED02E46AC75803688
:109ED000F06F002823D04368827A017AA8889B1CFF
:109EE000FEF7D6FA00280DD1F06FFF22C1891202C9
:109EF0001143C181F06F0068F067A88F002801D07E
:109F0000401EA887F06F002809D0A8880022802171
:109F100000F0FEFA002801D10120A87501E2AC870B
:109F2000FFE14088FFF782FB0700CDD0F8790128D8
:109F300034D0B66C002EC7D0687D800772D534202F
:109F4000805D02286FD00622002107A80CF002FCD9
:109F500035464035287902287FD00622002109A8FD
:109F60000CF0F8FB0622A91D0BA80CF0FDFAF98DE8
:109F7000B88D7A8D039204AB13C309AA07A90BA865
:109F80006B4607C3B9886B79203704E042E1FAE0F9
:109F90001FE189E09AE038790022A8E0B46B002C38
:109FA00092D0687D80073FD5254660352879022804
:109FB00014D00622002107A80CF0CCFB687D0228F3
:109FC00013D30622214600E0F0E0763109A80CF018
:109FD000CBFA216E06220BA8091D0FE021460622AE
:109FE00007A866310CF0C0FAE8E70622002109A8AC
:109FF0000CF0B0FB2146062276310BA80CF0B4FA27
:10A0000038462030798D8479FB8DBA8D03AE1EC61B
:10A0100009AB07AA0BA96C460EC46B7DB988007901
:10A02000012264E02FE011E038462030798D8579F7
:10A03000FB8DBA8D01AE2EC621467631009160347B
:10A04000637DB9880079012260E006E0314606228E
:10A05000363107A80CF088FA7AE7314606224631F5
:10A0600009A80CF081FA716D06220BA8091D0CF0ED
:10A070007BFA706D0221C0780843687177E76FE062
:10A0800058E046E0D9E0F88DB98D7A8D03903046DE
:10A09000463004940192029100904036B9882037EE
:10A0A00073793879002231E0B06C00287ED0C28A02
:10A0B000818AC38C02AD019316C5014646310091D9
:10A0C000403000224379114602201FE0B06B002887
:10A0D000ECD0697D89070DD505940694002303947F
:10A0E000049400940194012219463C200294FEF746
:10A0F0004EF916E101466E310091019402940394E9
:10A1000060300494437B012200213C20FEF722F9B9
:10A1100007E14088FFF78AFA0028C7D0014640319E
:10A12000CA8A00928B8A4A8A818820300079FEF799
:10A130001EF9F6E04088FFF779FA0028B6D0C17919
:10A140000129818807D02422135C0246DC3218469C
:10A15000FEF741F9E5E02422135C0246D432F6E72B
:10A160004088FFF763FA002820D0C11DFC314A7EE9
:10A17000097E12020A4301468388FF3114311846D2
:10A18000FEF715F9CDE04088FFF750FA04000DD036
:10A1900020464030C18A0091838A028EC18DA088FA
:10A1A000FEF729F9A07B0421084300E077E0A073C3
:10A1B000B7E04088FFF73AFA002870D001464031F6
:10A1C000CA8A00928B8A0A8EC98D8088FEF75AF956
:10A1D000A7E04088FFF72AFA002860D00146FF3147
:10A1E00044314B7C0A460C7C190221430091014604
:10A1F000FF3142314B7C0C7C1B022343547D157D87
:10A2000022022A434C7D0D7D210229438088FEF7DE
:10A21000B8F886E041781A2968D008DC05290FD003
:10A22000082931D00C2942D0132906D150E0302919
:10A2300066D0572972D0FF2973D001200DB0F0BD30
:10A240004088FFF7F3F9050066D0F4204059002854
:10A250000DD0E98F0068491CE9870028F9D10A046C
:10A26000120C04D0A9880120FEF7FEF8EC874E20DE
:10A27000425D2420A988405DFEF743F82846FFF799
:10A2800049F84EE0EC7100204088FFF7CFF9002834
:10A2900042D04621095C002902D0012201E03BE0C6
:10A2A0000022818820300079FEF72FF839E04088BD
:10A2B000FFF7BCF900282FD0014640318A8900926F
:10A2C0004B894A7A818820300079FEF7D5F828E05A
:10A2D0004088FFF7ABF905001ED0EA8F002A20D096
:10A2E000A9880120FEF7C0F8EC871AE04088FFF744
:10A2F0009DF9002810D020300079FDF7FAFF10E01A
:10A300004088FFF793F9002806D081882030007933
:10A31000FDF7FFFF05E001E002208FE74088FDF731
:10A32000DFFF00208AE770B505460024FF210120E9
:10A3300002F05DFE2855641CE4B2082CF6D3002020
:10A3400070BD0000064A0021531880331B7F037044
:10A35000491CC9B2401C0629F6D3002070470000F2
:10A36000EC71002010B5002803D00B2803D8401E44
:10A3700006E025200CE00C2804D0262804D8801EF6
:10A38000C0B205E0262003E0272801D0122010BD2E
:10A3900002F0B4FE002010BD02214172014680315E
:10A3A0000A46C96E002907D00D238B702030D16E6C
:10A3B0000079C87000207047012070470322427264
:10A3C000EC221258002A07D011239370D17020304C
:10A3D00000791071002070470120704710B50C46BD
:10A3E000FFF724F900280FD024210C54817B4A0761
:10A3F0000AD5FB22114081738030012281689203CB
:10A4000011438160002010BD122010BDFFB581B046
:10A4100016460F46FFF70AF904463A49B81F884224
:10A420006ED2481D86426BD8BE4269D3FF22049982
:10A43000F432914264D80A99814261D80498C900E3
:10A44000401C7043400081425ADD002C58D0A07B54
:10A45000410749D5FB2108402546A0734035EF85CB
:10A460002E86E079002808D02046803001228168BD
:10A47000520311438160102035E0688C22498842E4
:10A4800004D0B74202D12882608D09E0E88B0090A9
:10A49000002807D001463046F9F7BCFE0099484332
:10A4A00068820AE0B8194108384602F083FD6882E4
:10A4B00021465231304609F027F81448006E411CFD
:10A4C000042901D9042000E0401CE873204608F06C
:10A4D000C5FF208F04220A302883204680308168FF
:10A4E000114381601120A07640340B9860860C984F
:10A4F000A0860498A0820A98E082002005B0F0BDF2
:10A500001220FBE77B0C0000FFFF0000EC71002035
:10A5100070B5064614460D4604200CF023F90100E0
:10A5200007D00D704C7004484E80C0780CF08EF946
:10A5300070BD042070BD0000C86F0020F0B500277A
:10A5400087B00546384800970197029703973E4623
:10A55000846F0CE0E078E978884206D11022291D4A
:10A56000201D0BF0F3FF012842D02646E46B002C9F
:10A57000F0D11A2140200CF013F8040038D0E8780C
:10A58000E0700622291D201D0BF0EEFF20461A3038
:10A59000294610221A31059004900CF09FF91022E0
:10A5A000694604980BF0D2FF002823D0A7722946F1
:10A5B00020462A3010222A3105460CF08FF910224D
:10A5C000694628460BF0C2FF00281FD0A774164D1D
:10A5D0002046296B09F0ACF8002E23D0F463124911
:10A5E000E7634031888E401C80B2888607B0F0BD9A
:10A5F0000020FBE70120A072E07802210843E0720E
:10A6000021460C310598FEF751FCD0E70120A074DB
:10A61000E07802210843E074214614312846FEF711
:10A6200045FCD4E7AC67DAE7EC710020F7B50E48DB
:10A6300015466E46846F0CE068464078E1788842A3
:10A6400006D10622211DB01C0BF080FF012804D08A
:10A65000E46B002CF0D10020FEBD204629462A30B4
:10A6600009F018F8FEBD0000EC71002070B50A4D2D
:10A67000FF26AC6F07E020780CF0C6FA2670204663
:10A68000E46B0BF0E1FF002CF5D100200249A86734
:10A690004031888670BD0000EC71002010B504497F
:10A6A0000020888640398867FEF742FC10BD000014
:10A6B0002C72002070B505460B48846F0DE0687859
:10A6C000E178C007C00F884206D10622211DA81CD0
:10A6D0000BF03CFF012804D0E46B002CEFD10020EC
:10A6E00070BD204670BD0000EC71002070B50546BD
:10A6F0000848846F07E02046A91C2A3008F0CAFFEA
:10A70000012804D0E46B002CF5D1002070BD204658
:10A7100070BD0000EC710020F8B504468030016F78
:10A72000C81C0A798446CB78100218432E4B821F2E
:10A730009A4225D28B794D791B0219264A1C2B434C
:10A74000F601B3421CD883421AD365466F792D793E
:10A750003F022F43FF25F435BE46AF4210D8557A4D
:10A76000177A2D023D43B5420AD87646761C4643F9
:10A77000EF00BE4204DACE7A002E03D09E4201D909
:10A780001E20F8BD668D0027864208D19E4206D164
:10A79000A38D734503D1E38DAB4200D1012723463E
:10A7A0004033D885507915790002284318866046D1
:10A7B00045790679280230439882507A127A00024D
:10A7C0001043D882C87AD883487B0A7B00021043A2
:10A7D000188420460C2262300E310BF0C5FE042096
:10A7E000A0763846F8BD00007B0C000070B5F02163
:10A7F0000B58DA1C197914460A02DD780146FF313C
:10A800002A434131CA805A1C9B7915791B022B437C
:10A810000B81637924791B0223434B81537A147A89
:10A820001A0222438A8108F0E0FA70BDF02109582B
:10A830004030CA7842724A790B7912021A43428137
:10A84000CA798B79110219438181704770B50F481D
:10A85000046C02F089FC0025A5710421284601F052
:10A8600017FF0B4928208877E5712571E0690BF007
:10A87000EBFE2583E5612562064C1021E0780CF0A3
:10A88000E7F9E07820210CF0E3F970BDEC710020CD
:10A89000946F0020C86F002000214172017A0122CC
:10A8A00089088900114301728030C06E002801D0F0
:10A8B0000020704701207047FFB581B01F46154644
:10A8C000FEF7B4FE06000BD03046FF304230009059
:10A8D000417D027D08021043A84204D2C4B203E0C5
:10A8E000022005B0F0BDECB21C48FEF7AFFE01003F
:10A8F00026D0887BC88130468030426F002A1DD028
:10A90000826F11608167826F00211160816F4C81BD
:10A91000826F01219181826F02991172806F2246AC
:10A9200040683946801C0BF01FFE281B05042D0CC7
:10A930000FD03F19012002900098C9E74167E1E775
:10A940000748026B002A02D00649022090470720E0
:10A95000C7E738460BF078FE0020C2E754FF00003E
:10A96000946F0020AA55000030B5C37D0146027ADD
:10A970008031002B09D04B6F5B681A704B6F427AA5
:10A980005B685A70496F496805E0CB6E1A70CB6EF0
:10A99000427A5A70C96E1A4C437A226941339B0934
:10A9A0000D6815604D6855608D689560CD68D560FF
:10A9B0000D6915614D6955618D699561CD69D561E7
:10A9C0000D6A15624D6A55628D6A9562CD6AD562CF
:10A9D0000D6B15634D6B55638D6B9563CD6BD563B7
:10A9E000403140325B1E1B061B0ED9D1407A05490F
:10A9F000401D80082269897C8000115030BD000014
:10AA0000E86F0020946F0020114A916B002902D05A
:10AA1000097B00290BD1116C002902D0C9790029CA
:10AA200005D1916C002904D0C979002901D01220E8
:10AA300070475070064A8032517D002802D00620AF
:10AA4000014301E0F92001405175002070470000EA
:10AA5000EC71002070B53849C96B00296AD0364ABC
:10AA60000028946B02D0012809D063E0002C61D04B
:10AA7000207B00285ED0FEF709FB002070BD012678
:10AA80000025F602002C10D18847040018D0268239
:10AA90006682A5760720E076652005552649204682
:10AAA00006229C3166300BF05FFD207B012841D0EF
:10AAB000A07E010706D00007000F012802D009E0A0
:10AAC000032070BD08F014FB1C49097F8907890F1A
:10AAD00088422FD0A07E0107090FA17101280AD05A
:10AAE000208A628A8018400801229203A082904244
:10AAF0000BD9A28214E00620A0821148E582C0781A
:10AB0000324604210CF046F80FE0022904D0062951
:10AB100002D020280CD302E0A02800D2A020A082DE
:10AB20001021002002F046FAE082E06F804770BDFD
:10AB30002020F4E7122070BDEC710020946F0020FB
:10AB4000C86F002070B504460D480D46C26B002A40
:10AB500003D0806B002802D004E0122070BD904723
:10AB600000280AD0E206D20E0277002C03D0294634
:10AB70001E300BF0F9FC002070BD032070BD0000FA
:10AB8000EC710020FFB5294981B0C86B0B9D1E46B2
:10AB90001746002803D08C6B002C03D005E0122050
:10ABA00005B0F0BD8047040015D0019820820298BE
:10ABB000012100226082012F0FD0022F0FD0032F1E
:10ABC0000FD0042F0FD0A2762046603046712B782C
:10ABD000002B1AD10AE00320E2E7A176F4E7062071
:10ABE00002E0022000E01120A076EDE76B78002B58
:10ABF0000BD1AB78002B08D1EB78002B05D12B794A
:10AC0000002B02D16B79002B09D001730A99417393
:10AC10002046062229466E300BF0A6FC00E00273A7
:10AC20000C98E0760D98E0720020B9E7EC710020F6
:10AC300070B515460C46FEF7F9FC002827D0154ADA
:10AC4000138CA34205D30146FF3124310C77230A2C
:10AC500004E00146FF3124310B771B0A4B77518CFE
:10AC6000A94206D30146FF3142310D702A0A4A70CB
:10AC700005E00246FF3242321170090A51708030FD
:10AC800001228168120311438160002070BD1220EF
:10AC900070BD0000EC71002010B5040024D01C49E8
:10ACA0008A6B002A02D0107B00280BD1086C002888
:10ACB00002D0C079002805D1886C002804D0C07962
:10ACC000002801D00C2010BD0120887010480622F9
:10ACD0002146A2300BF048FC62799309032B05D082
:10ACE000900908D0012B0BD0122010BD0848062275
:10ACF0002146A83008E0064806222146AE3003E08F
:10AD0000034806222146B4300BF02EFC002010BD73
:10AD1000EC71002070B51921084D89014843286362
:10AD2000AC6F06E02078FF2802D0296B0BF0ACFF57
:10AD3000E46B002CF6D1002070BD0000EC71002007
:10AD400010B50C461E494B6C002B05D00A6C002830
:10AD500004D0012807D00EE00C2010BD002A0AD034
:10AD6000FFF774FD29E0002A07D01046C1790129B8
:10AD700001D000290ED0122010BD9847002807D01E
:10AD80000021C17210224282828225221154EDE7F5
:10AD9000032010BD428A012189038A4200D94182E1
:10ADA000828A418A8A4200D98182818A552251430E
:10ADB000090AC1828473006C8047002010BD000026
:10ADC000EC71002070B505460C480C46C26B002A99
:10ADD00003D0806B002802D004E0122070BD9047A1
:10ADE000002808D0EA06D20E427721463E300BF00A
:10ADF000BBFB002070BD032070BD0000EC71002083
:10AE000010B5FEF72DF904480249416603498166F1
:10AE100010BD000061230100EC7100200924010035
:10AE200010B504460920214660728031C86E0028A2
:10AE300011D00E228270C86E08225C31C01C0BF04B
:10AE400093FB20462030C17804221143C170622058
:10AE50006073002010BD012010BD01214172EC2162
:10AE60000958002905D005228A705221417300201B
:10AE700070470120704701214172EC2109580029D7
:10AE800005D006228A7054214173002070470120AA
:10AE90007047F8B51C4616460F46FEF7C7FB05007F
:10AEA00002D0E879002801D00220F8BD2846FF3002
:10AEB0000822394614300BF057FBE81DFC300676AB
:10AEC000310A4176A17BE07B09024118607B227B3D
:10AED0000004120680182E4608188036F062A17A07
:10AEE000E07A09024018617A227A09041206891868
:10AEF00040183063A179E07909024018617922791C
:10AF000009041206891840187063A178E0780902D4
:10AF10004018617822780904120689184018B06335
:10AF2000284640308179002904D00121C1712021B7
:10AF3000B06851E00BF0B6FC02460020C300114699
:10AF4000D9402B18FF330133401C59770428F5D31F
:10AF50000BF0A8FC02460020C3001146D9402B1874
:10AF6000FF332133401C59700428F5D32C46E81DCB
:10AF7000FF34F9302134C27F217812028918827F90
:10AF8000407F1204000610180818B062E17820799A
:10AF900009024018A178627809041206891840183D
:10AFA00070620BF07FFC02460020C3001146D940BE
:10AFB0002B18FF332133401C59710428F5D3A17994
:10AFC000607909024018E179227A09041206891889
:10AFD0004018F063B06840210843B0600020F8BD1D
:10AFE00002224272EC21095800290DD08A704E22AB
:10AFF000125CCA7001462031CA7808231A43CA700D
:10B00000322141730020704707207047FFB50500CB
:10B01000364881B00469164603D00B2D03D86D1E47
:10B0200006E025250AE00C2D04D0262D04D8AD1EFF
:10B03000EDB203E0262501E0272D0FD1002E10D020
:10B04000012E19D0022E1AD0032E1BD0042E24D08C
:10B05000052E25D0062E26D0072E27D0122005B08B
:10B06000F0BD002704E0FAF73DFBE11988707F1C72
:10B0700002988742F7DB1EE0F021029A18E0AA212D
:10B08000029A15E0002704E0FAF70AFBE11988703C
:10B090007F1C02988742F7DB0DE0FF21029A07E050
:10B0A0000021029A04E00F21029A01E0029A552140
:10B0B000A01C0BF04FFB3007000F2070029860704F
:10B0C0000498029A000601D5012100E000212846DB
:10B0D00002F0D0F9054800E000BFC1780029FBD09C
:10B0E00003490889401C08810020B8E7E86F002068
:10B0F000EC71002002214172014680310A46C96E7E
:10B10000002906D007238B70D16E407DC8700020C7
:10B11000704701207047000006214172EC21095858
:10B12000002912D00C220A4B8A709A7BCA701A8AA4
:10B130000A71120A4A715A8A8A71120ACA71C17E48
:10B140004906490EC176002070470720704700006D
:10B15000EC710020F8B51A4F054600263C6F0CE054
:10B1600060786978884206D10622A91CA01C0BF0E1
:10B17000EDF901281ED02646A468002CF0D1192133
:10B180000C200BF00DFA040015D0687860700622D0
:10B19000A91CA01C0BF0E8F9386F00280DD0002E78
:10B1A00000D0B4600020A06005484030818D491C6B
:10B1B00081850120F8BD0020F8BD3C67F2E7000062
:10B1C000EC71002070B5074D2C6F03E02046A46899
:10B1D0000BF03AFA002CF9D10020024928674031DF
:10B1E000888570BDEC71002002490020086740315D
:10B1F00088857047EC71002073B50A486D46046F6E
:10B200000CE0694660784978884206D10622A91C7C
:10B21000A01C0BF09BF9012803D0A468002CF0D1EE
:10B2200000207CBDEC71002070B531480921006818
:10B23000C9018162826C0721090703238A435B07E6
:10B24000D2188264836C0F22120303249343640395
:10B250001B198364836CCC0023438364C36C0C157B
:10B26000A343C364436D802423434365C36B93436B
:10B2700022029A18C263C36B0A119343A4041B19D8
:10B28000C363C36BDC000123E4089B07E418C463B9
:10B29000C46D0C43C465C56D0C122543C565C56DF1
:10B2A0000E133543C565C56D9543C565C56AA54390
:10B2B0005C122C19C462C46A944305221206A218B7
:10B2C000C262C26A032424032243C262C26A240106
:10B2D0002243C262026B120912010263026BF02464
:10B2E000A2430263026B8A43D118016370BD000060
:10B2F000684A0020FFB53B480068826D01210904BF
:10B300008A43826582680A43826000250146803153
:10B310002B468C466E46C168FF240134A143C160B0
:10B320004168220211434160C1682143C160614606
:10B33000C968C905FBD500BF00BF00BF00BF61469B
:10B34000C9680C074168240F914341600F2C01D05C
:10B350006D1CEDB2002110E0725CA2420BD91A46BE
:10B3600005E0B718203FFF7FB754521ED2B28A4281
:10B37000F7D1745403E0491CC9B29942ECD3994205
:10B3800000D17454032D05D05B1CDBB2102BC2D34B
:10B39000002D1ED03178082902D93246C91E0DE091
:10B3A000042902D93246891E08E0012902D9324611
:10B3B000491E03E0002902D1032132461170816D3C
:10B3C0000F22D201914332781207520D1143816549
:10B3D000FFBD826D0F21C9018A430521C9015118A2
:10B3E000F5E70000684A002010B51A480068016DB2
:10B3F00001231B049943016581685C01214381603D
:10B40000C26810210A43C260C2688A43C26000BF9A
:10B4100000BF00BFC2680A43C26041680122120334
:10B420001143416001468031CA69D205FCD500BF95
:10B4300000BF00BFC969026DC906C90E1A43026583
:10B44000026D520952010A4302658168A14381607D
:10B4500010BD0000684A0020F0B5FF4887B00568BD
:10B460006868FF21013188436860A86A0901884340
:10B47000A862E86A10218843E862A8684A0310437A
:10B48000A8606868084368606868400840006860B1
:10B49000A86BF24A0321104089034018A86368682A
:10B4A0000123184368602C46803420694001C10F95
:10B4B00020698001C00F0029F7D00028F5D020694D
:10B4C00086066069B60EC003400E019068684008A9
:10B4D00040006860A86BE721104009024018A8638B
:10B4E00068681843686020694001C10F20698001C5
:10B4F000C00F0029F7D00028F5D020698006800E03
:10B5000004906069C003400E0690686840084000DF
:10B510006860A86BD321104009024018A8636868CE
:10B520001843686020694001C10F20698001C00F85
:10B530000029F7D00028F5D020698006800E0390FE
:10B5400060692721C003400E02900398301A064616
:10B550004843F8F775FE0007216A000F0909090141
:10B5600008432062262070432721F8F769FE000770
:10B57000226A000EF0218A43104320622520704386
:10B580002721F8F75DFE0007226A000D0F2109024E
:10B590008A4310432062242070432721F8F750FE8D
:10B5A0000007226A000C0F2109038A43104320621E
:10B5B000232070432721F8F743FE0007226A000B7F
:10B5C0000F2109048A43104320622220704327215F
:10B5D000F8F736FE0007226A000A0F2109058A43A0
:10B5E00010432062700130182721F8F729FE000768
:10B5F000216A00090F273F06B94308432062700102
:10B600002721F8F71DFE216A0007090109090843EF
:10B6100020627001801B2721F8F712FE0007616A83
:10B62000000F09090901084360621E2070432721A9
:10B63000F8F706FE0007616A000EF0229143084306
:10B6400060621D2070432721F8F7FAFD0007616A48
:10B65000000D3A149143084360621C207043272177
:10B66000F8F7EEFD0007616A000C3A1391430843B6
:10B6700060621B2070432721F8F7E2FD0007616A32
:10B68000000B3A1291430843606230461A21484346
:10B690002721F8F7D5FD0007616A000A3A119143A6
:10B6A000084360623046192148432721F8F7C8FD56
:10B6B0000007616A0009B9430843606230461821F7
:10B6C00048432721F8F7BCFD616A00070901090911
:10B6D000084360623046172148432721F8F7B0FD40
:10B6E0000007A16A000F090909010843A06216209A
:10B6F00070432721F8F7A4FD0007A16A000EF0228D
:10B7000091430843A062152070432721F8F798FD64
:10B710000007A16A000D3A1491430843A062142067
:10B7200070432721F8F78CFD0007A16A000C3A133B
:10B7300091430843A062132070432721F8F780FD4E
:10B740000007A16A000B3A1291430843A06212203D
:10B7500070432721F8F774FD0007A16A000A3A1127
:10B7600091430843A062300130182721F8F768FDA3
:10B770000007A16A0009B9430843A06230012721EC
:10B78000F8F75EFDA16A0007090109090843A062F4
:10B790003001801B2721F8F753FD0007E16A000FF5
:10B7A000090909010843E06230460E214843272178
:10B7B000F8F746FD0007E26A000EF0218A431043C5
:10B7C000E06230460D2148432721F8F739FD000794
:10B7D000E26A000D39148A431043E06230460C21BE
:10B7E00048432721F8F72CFD0007E26A000C3913C3
:10B7F0008A431043E06230460B2148432721F8F783
:10B800001FFD0007E26A000B39128A431043E06211
:10B8100030460A2148432721F8F712FD0007E26A63
:10B82000000A39118A431043E062F00030182721E2
:10B83000F8F706FD0007E16A00093A46914308431C
:10B84000E062F0002721F8F7FBFCE16A000709013C
:10B8500009090843E06203E0684A0020FF00FEFF98
:10B86000F000801B2721F8F7EBFC0007216B000F8D
:10B87000090909010843206330460621484327216E
:10B88000F8F7DEFC0007010E206BF0229043014325
:10B890002163B00030182721F8F7D2FC0007226B93
:10B8A000000D39148A4310432063B0002721F8F7B4
:10B8B000C7FC0007226B000C39138A431043206336
:10B8C000700030182721F8F7BBFC0007010B206B34
:10B8D0003A1290430143216370002721F8F7B0FC2E
:10B8E0000007226B010A381182431143216330465D
:10B8F0002721F8F7A5FC0007226B000939468A4387
:10B9000010432063206B0001000920630499039811
:10B91000471A28213846F8F793FC0007616B000F9F
:10B92000090909010843606378002821F8F788FCB9
:10B930000007616B000EF0229143084360637800BA
:10B9400038182821F8F77CFC0007616B000D0F22E6
:10B950001202914308436063B8002821F8F770FC95
:10B960000007616B000C0F221203914308436063D0
:10B97000B80038182821F8F763FC0007616B000B4A
:10B980000F22120491430843606306207843282164
:10B99000F8F756FC0007616B000A0F22120591436D
:10B9A00008436063F800C01B2821F8F749FC000732
:10B9B000626B00090F2109068A4310436063F80097
:10B9C0002821F8F73DFC616B0007090109090843CC
:10B9D0006063F80038182821F8F732FC0007A16BE3
:10B9E000000F090909010843A06338460A214843AA
:10B9F0002821F8F725FC0007A26B000EF0218A43EE
:10BA00001043A06338460B2148432821F8F718FC5F
:10BA10000007A26B010D0F20000282431143A163B6
:10BA200038460C2148432821F8F70AFC0007A26B8E
:10BA3000010C0F20000382431143A16338460D21FE
:10BA400048432821F8F7FCFB0007A26B000B0F21ED
:10BA500009048A431043A06338460E214843282135
:10BA6000F8F7EEFB0007A26B010A0F2000058243E6
:10BA70001143A1633801C01B2821F8F7E1FB00073F
:10BA8000A26B00090F2109068A431043A063380105
:10BA90002821F8F7D5FBA16B000709010909084324
:10BAA000A063380138182821F8F7CAFB0007E16BBA
:10BAB000000F090909010843E06338461221484391
:10BAC0002821F8F7BDFB0007E26B000EF0218A4346
:10BAD0001043E0633846132148432821F8F7B0FBB0
:10BAE0000007E26B000D0F2109028A431043E06357
:10BAF0003846142148432821F8F7A2FB0007E26BDF
:10BB0000010C0F20000382431143E16338461521E5
:10BB100048432821F8F794FB0007E26B010B0F2044
:10BB2000000482431143E16338461621484328212B
:10BB3000F8F786FB0007E26B000A0F2109058A432C
:10BB40001043E0633846172148432821F8F778FB73
:10BB50000007E26B00090F2109068A431043E063E6
:10BB60003846182148432821F8F76AFBE16B0007A3
:10BB7000090109090843E06338461921484328218F
:10BB8000F8F75EFB0007216C000F09090901084363
:10BB9000206438461A2148432821F8F751FB000752
:10BBA000226C000EF0218A431043206438461B218A
:10BBB00048432821F8F744FB0007226C000D0F21B1
:10BBC00009028A431043206438461C214843282137
:10BBD000F8F736FB0007226C000C0F2109038A439B
:10BBE0001043206438461D2148432821F8F728FBDC
:10BBF0000007226C000B0F2109048A4310432064C4
:10BC000038461E2148432821F8F71AFB0007226C0A
:10BC1000000A0F2109058A43104320647801C01BE4
:10BC20002821F8F70DFB0007226C00090F210906F7
:10BC30008A431043206478012821F8F701FB216C26
:10BC400000070901090908432064780138182821F0
:10BC5000F8F7F6FA0007616C000F090909010843BB
:10BC600060643846222148432821F8F7E9FA0007A2
:10BC7000010E606CF0229043014361643846232139
:10BC800048432821F8F7DCFA0007626C010D0F2009
:10BC9000000282431143616438462421484328212D
:10BCA000F8F7CEFA0007626C000C0F2109038A43F3
:10BCB000104360643846252148432821F8F7C0FA2C
:10BCC0000007626C000B0F2109048A431043606473
:10BCD0003846262148432821F8F7B2FA0007626C5B
:10BCE000010A0F2000058243114361643846272171
:10BCF00048432821F8F7A4FA0007626C00090F21D5
:10BD000009068A4310436064384628214843F8F7FF
:10BD100097FA616C00070901090908436064384615
:10BD2000292148432821F8F78BFA0007A16C000F5E
:10BD3000090909010843A06438462A2148432821FB
:10BD4000F8F77EFA0007A26C000EF0218A43104338
:10BD5000A064069A02983946801A0A22009050433D
:10BD6000F8F76EFA082108430007A16C000D0F22B6
:10BD7000120291430143A16400983946C200801821
:10BD8000F8F75EFA082108430007A16C000C0F22A7
:10BD9000120391430143A16400983946C000F8F7AB
:10BDA0004FFA082108430007A16C000B0F22120470
:10BDB00091430143A16400983946C200101AF8F774
:10BDC0003FFA082108430007A16C000A0F22120560
:10BDD00091430143A1640098062239465043F8F785
:10BDE0002FFA082108430007A16C00090F22120650
:10BDF00091430143A1640098394682008018F8F706
:10BE00001FFA08210843A16C000709010909014331
:10BE1000A164009839468000F8F712FA0821084317
:10BE20000007E16C000F090909010143E164009872
:10BE3000394642008018F8F703FA08210843000742
:10BE4000E16C000EF02291430143E1640098394611
:10BE50004000F8F7F5F9082108430007E16C000DF0
:10BE60000F22120291430143E16439460098F8F72A
:10BE7000E7F9082108430007E16C000C0F221203C8
:10BE800091430143E16431460020F8F7D9F90007F6
:10BE9000E16C000B0F22120491430143E164029A0A
:10BEA00001983146871A3846F8F7CAF90007E16C5D
:10BEB000000A0F22120591430143E16431467800E4
:10BEC000F8F7BEF90007E16C00090F221206914352
:10BED0000143E164780031463818F8F7B1F9E16CB4
:10BEE0000007090109090143E1643146B800F8F788
:10BEF000A7F90007216D000F090909010143216518
:10BF0000B80031463818F8F79BF90007216D000E8C
:10BF1000F022914301432165062031467843F8F72A
:10BF20008FF90007216D000D0F221202914301438A
:10BF30002165F8003146C01BF8F782F90007216D32
:10BF4000000C0F2212039143014321653146F80092
:10BF5000F8F776F90007216D000B0F2212049143C8
:10BF600001432165F80031463818F8F769F90007F0
:10BF7000216D000A0F2212059143014321650A2019
:10BF800031467843F8F75CF90007216D00090F226C
:10BF9000120691430143216569681020814369605D
:10BFA0006968490849006960A96A02021143A962E7
:10BFB000E96A0143E962A86B810903988901014399
:10BFC000A963A86B7F2109068843029909060843E3
:10BFD000A86307B0F0BD0000034800684168FF2275
:10BFE0000132114341607047684A002008B5044897
:10BFF000816B0091816B009A9142F9D1104608BD86
:10C000000010004038B51648816B0091816B009A92
:10C010009142F9D1134C1046217DC90705D0124930
:10C0200000F0D1FC8A04810B04E0192100F0CBFC64
:10C03000CA05410A11430D4A906988420DD08842D1
:10C0400001D2081A07E0237DDB0701D0084B00E08E
:10C05000084B181A4018916138BD002038BD000007
:10C0600000100040946F002033030000C86F0020D0
:10C0700000796F0800603D08002908D0002A02D12D
:10C0800005E008C808C2491EFBD200207047FD2009
:10C09000704738B50D46040019D0002D17D0032184
:10C0A000684608F055FE6946887840218006800E73
:10C0B0000843694688702A46204609F070FC04004F
:10C0C00006D103226946E81C0AF04EFA00E0022479
:10C0D000204638BDF7B58CB00C9815460F460028A1
:10C0E00031D0002D2FD0381D0A9080B253210AF094
:10C0F00057FA04003BD002F005F906463A46201DE7
:10C100000C990AF0EBFBF0B20990E0703004000EDD
:10C110000890A0703002000E07906070370E2770F4
:10C1200002F0EAF80146102201A80AF0D7FB082025
:10C1300000900A9805AB82B2214601A809F09CFB49
:10C14000060002D00FE0022612E009982870089835
:10C1500068700798A870EF70082205A9281D0AF0DA
:10C16000BDFB02F0D5F820460AF06EFA00E0132677
:10C1700030460FB0F0BD000010B5024600F01EF8CA
:10C180000448062182701046FCF780FD024805F045
:10C190006FFF10BD764A0020FD4E0100054806499C
:10C1A000C078000702D508460C3000E00020486047
:10C1B00000207047764A0020B44A00200A49002037
:10C1C000086048608860084808490C3001600849E8
:10C1D00041600849816008490C30016007494160AD
:10C1E0000749816070470000B44A00209F5D01004C
:10C1F0009D4D010071C300003762010039540100F8
:10C20000B952010070B506460D46084605F0DEFD40
:10C2100000280ED0446B002C06D0E078022805D010
:10C22000032803D0042801D0122070BDA088A842A2
:10C2300001D0022070BD10223146E01D0AF094F9B1
:10C2400020462C301021054608F082FD23461C3381
:10C250002A46E11D204609F0CFFB20780221002864
:10C26000607803D0032807D1617009E0042802D068
:10C27000032803D000E06170002070BD05206070CD
:10C28000204608F039FD70BDF8B50D46080417D5F5
:10C290001B4EB0780AF0A2FA040009D008F0C8FFDB
:10C2A000002809D17078FF2806D021460AF0CEFA7E
:10C2B0000120C0036840F8BD20460AF067FAF7E79E
:10C2C000E8070127002804D008F028FE2846784017
:10C2D000F8BD002D12D001240CE03846A04086B2F3
:10C2E000354205D0304609F0B9FA28467040F8BD0D
:10C2F000641CE4B205F082FEA042EED80020F8BD36
:10C30000764A00207CB50D46040015D0002D13D0D0
:10C310000322E91C68460AF027F96946887840211B
:10C320008006800E08436946887001AA204609F0FD
:10C3300036FB040002D009E0022407E0032229466C
:10C3400001A80AF003F9012800D0012420467CBD91
:10C3500005480649C078400702D50846183000E075
:10C360000020886000207047764A0020B44A0020F0
:10C37000FFB50F4683B01E461446532110200AF025
:10C380000FF9050029D0002F22D069460C72200A2F
:10C3900048721022002128460AF0DCF93946284666
:10C3A0000C9A0AF0E1F8002E05D0082231466846C2
:10C3B0000AF0DAF804E00822002168460AF0CAF917
:10C3C0002B4602AA69460398FCF742F8044600E0AF
:10C3D000022428460AF038F900E01324204607B06A
:10C3E000F0BDFFB581B01F46039805F0EFFC0600D5
:10C3F00005D0706B0025002804D011253AE00220FA
:10C4000005B0F0BD1320FAF7A1FCC4B21420FAF76E
:10C410009DFCC1B2002F2CD0387EA04229D3884287
:10C4200027D8532170200AF0BBF80446706320001F
:10C430001DD0702200210AF08DF900206070019952
:10C4400021700299A1700399A180E765A061E07055
:10C450000198002803D0204608F060FC0546012022
:10C460006070002D06D0304608F01EFC02E0132557
:10C4700000E002252846C3E7FFB587B00998109D64
:10C480000E4600281FD0002D1DD0079805F09EFCF9
:10C4900004001BD0532110200AF082F801900028DC
:10C4A0005FD06978287809024018A978EA780904E9
:10C4B0001206891841180691A06A884208D3401CC8
:10C4C00006D0022449E002200BB0F0BD1420FBE7A7
:10C4D000002E02D0207980073ED50822002102A834
:10C4E0000AF038F90A9F53213F1DB8B20AF058F8F4
:10C4F00006002FD0301D0A9A09990AF0EFF904229C
:10C50000294630460AF0EAF92146102218310198EE
:10C510000AF0E4F908200090BAB202AB3146019863
:10C5200009F0AAF904000CD1082202A904A80AF013
:10C53000D5F90822291D04A80AF008F8012804D01A
:10C54000012430460AF080F807E00699079802F0C7
:10C55000CDFFF6E7132400E0012401980AF074F8F7
:10C5600000E013242046AFE770B50C4601462004D6
:10C570000AD508460AF032F9002801D00AF006F977
:10C580000120C003604070BD6004FCD0002632462C
:10C590002046D040C00713D0002901D00F2000E072
:10C5A00000200B4980184968C000451801209040C0
:10C5B00086B229686868884700202860686003E0C0
:10C5C000521CD2B20F2AE3D32046704070BD000047
:10C5D0001848002070B50AF08DF81C2200211E4872
:10C5E0000AF0B8F81C482022002150300AF0B2F8B6
:10C5F0001A4D0020286168611748174C1C30007FD5
:10C6000050348107890F80080818410040180D3008
:10C61000C0B2A07006214843FF210231F03009F07A
:10C62000BFFF6860F030A860A17889000818E86052
:10C630000AF0CEF80AF092F96078094A8100A868F9
:10C6400042506178491CC9B26170890042506078DB
:10C65000401C607070BD0000786F002018480020FA
:10C6600069C5000010B50849024648788B789842A1
:10C6700007D2064C8300A468E2504A78521C4A70E4
:10C6800010BDFF2010BD0000C86F0020184800201A
:10C69000072902D2014A890050507047786F002064
:10C6A000FEB5864D02E0804700F0C4FF28680028F0
:10C6B000F9D10124A0002858002807D080477F48DE
:10C6C0001C30407D002801D0F8F78EFE2868002835
:10C6D00075D1641CE4B2072CECD3784C784E5034FE
:10C6E0006278F06821784B00C35A002B04D1491CB2
:10C6F000C9B221709142F5D3C9B2914211D24A0018
:10C70000815A002383522078B36882009A58904758
:10C710002178F2684900535A034353522078401C51
:10C72000207020786178884201D30020207063480F
:10C730000068002843D17069002840D08047002855
:10C740003DD061690546091861610021C9435C4813
:10C7500021610669002E29D00027B068A84201D8BF
:10C76000002000E0401BB06054481C30406A0028A4
:10C7700004D02169B068814200D92061B0680028E6
:10C780000DD1718800291BD030780AF0B1F870689B
:10C79000002801D0B06002E0B068002810D0708896
:10C7A00000280DD03746F668002ED6D1434D1C35F3
:10C7B000686A002803D00020414A617814E07CE0D8
:10C7C000002F06D0F068F8603046F66809F03CFFAC
:10C7D000EAE73B48F1680161F6E7D6684300F35A9F
:10C7E000002B6AD1401CC0B28142F6D833490320E5
:10C7F00082008A58002A60D1401CC0B20728F7D3B3
:10C8000001A8FDF75DF802462E49401C24D0EB7CC0
:10C81000019EB34251D22069471C16D02A7DD2070F
:10C8200002D01422504302E02922504340088342A0
:10C8300043D2864200D23046C61A2348826B009209
:10C84000826B009B9A42F9D11DE09A4201D3D01A23
:10C850001FE0D01A40181CE02069421C2DD02A7D10
:10C86000D20702D01422504302E02922504340084C
:10C87000EA7C824221D2861A1348826B0092826B34
:10C88000009B9A42F9D19819884202D30D4A52422C
:10C890008018002802D0696A884702E06A6A084660
:10C8A00090470006000E08D12089002805D0F8F72F
:10C8B0003BFFFCF757FAF8F7F9FCFEBD786F002054
:10C8C000184800200000C0A80010004010B5044621
:10C8D0000848C16A002900D088470748002C01D0C9
:10C8E000046001E005490160054800F00BF80020F4
:10C8F00010BD0000946F002034480020EDBF000000
:10C9000005C0000010B503494861804702498861AD
:10C9100010BD000018480020C86F0020F0B5144E6C
:10C92000FD23757A84247472124CA768002F07D0F7
:10C93000A77B002F04D0A489E71FFF3FFA3F02D056
:10C940007572FF20F0BD7D24E402A0420AD3402787
:10C95000491E07D3706008CA33609A233372B37AD2
:10C960007B4002D075721846F0BD001DF0E7000054
:10C9700000180040946F00200FB410B503A9044BB9
:10C98000044A029800F054F810BC08BC04B01847E0
:10C990006D370000E04A00202021020C01D0102158
:10C9A0001046020A01D010460839020901D010468B
:10C9B000091F820801D01046891E420801D0881E36
:10C9C0007047081A7047F8B5040C8BB2264682B23D
:10C9D0005E430D0C1046370C584336048019002175
:10C9E000794116466E43370C360480197941264644
:10C9F0006E438919F8BD30B47446641E2578641CF2
:10CA0000AB4200D21D46635D5B00E31830BC1847A3
:10CA100002E008C8121F08C1002AFAD17047704707
:10CA2000002001E001C1121F002AFBD17047000065
:10CA3000FFB591B00F460546002606E025280AD02E
:10CA4000149A139990476D1C761C28780028F5D10C
:10CA5000304615B0F0BD002400940121F34A029441
:10CA600000E004436D1C2B780846203B98401042A0
:10CA7000F7D128782A280ED00222287801463039AA
:10CA8000092915D800990A2359433039401814430D
:10CA90006D1C0090F1E701CF0090002805DA01201D
:10CAA00040030443009840420090022004436D1C60
:10CAB00028782E2815D10420044368786D1C2A2874
:10CAC0000AD101CF6D1C02900BE002990A2251435A
:10CAD000303940186D1C02902878014630390929F8
:10CAE000F3D928786C2810D006DC4C281AD0682896
:10CAF0000ED06A2817D104E0742813D07A2812D1F6
:10CB000010E00120400504430CE00121090501E08B
:10CB1000032109050C436978814203D101200005F6
:10CB200024186D1C6D1C28786E281ED00CDC632820
:10CB300031D004DC00288BD0582811D1B2E0642811
:10CB40007BD069280CD178E073282DD004DC6F28C5
:10CB500070D0702804D1A7E075286CD078286BD0ED
:10CB6000149A13999047761C62E06002400F0228E5
:10CB700007D003280AD0042838680AD006603F1D71
:10CB800056E03868F11706604160F8E738680680BB
:10CB9000F5E70670F3E738786946087400204874B2
:10CBA00004A80390012003E0386803900020C043EC
:10CBB0003F1D61070FD5002101E00199491C029A30
:10CBC0000191914213DA8142F7DB019A0399895C62
:10CBD0000029F2D10BE0002101E00199491C0191EB
:10CBE0008142FADB019A0399895C0029F5D1019908
:10CBF0000098139A401A00902146149B00F03CF9CB
:10CC000001998019461807E0039803990078491C98
:10CC10000391149A139990470198401E0190401C6B
:10CC2000F2D12146149B139A009800F015F9861949
:10CC30006D1C0AE741E033E034E00A200021049053
:10CC400005916002410F022905D001CFC217944619
:10CC5000032905D007E0FF1DFF08FF0003CF06E012
:10CC600000B2C2179446042902D140B2C1178C46C3
:10CC700000226146944506DA0A460021404291416D
:10CC80008C462D2102E0210504D52B216A46117620
:10CC9000012103E0E10701D02021F7E7019155E0F0
:10CCA0000A200BE0102009E010200490002104204D
:10CCB000044308200591029003E00820002105911B
:10CCC00004906002410F022905D001CF0022944652
:10CCD000032906D006E0FF1DFF08FF0003CF8C46A6
:10CCE00003E080B2042900D1C0B2002101912107E4
:10CCF0002CD529780391702906D0049A1021059B20
:10CD00004A401A4305D00EE040216A4611760121BF
:10CD100008E06146014306D030216A461176039946
:10CD2000517602210191049A0821059B4A401A4339
:10CD30000CD16146014301D1610707D530216A4614
:10CD40001176012101910299491E029129785829F1
:10CD500004D037A103910FA90F910DE039A1F9E794
:10CD60006146059B049AF7F7FFFB039B8C469B5C8F
:10CD70000F9A521E0F92137061460143F0D10F9823
:10CD800007A9081A20300390600704D50120000489
:10CD90008443029801E0012002900399884201DD5A
:10CDA000401A00E0002041180290019809180098EC
:10CDB000401A0090E00306D42146149B139A009871
:10CDC00000F05AF886190020049008E006A9085CD3
:10CDD000149A139990470498401C761C049001996A
:10CDE0008842F3DBE0030CD52146149B139A00988C
:10CDF00000F042F8861904E0149A30201399904705
:10CE0000761C0299481E02900029F5DC08E00F9874
:10CE10000F990078491C0F91149A13999047761C2A
:10CE20000399481E03900029F1DCFAE60928010065
:10CE30003031323334353637383961626364656690
:10CE40000000000030313233343536373839414252
:10CE50004344454600000000F8B5044600251E4640
:10CE60001746880404D405E039462020B0476D1CDD
:10CE7000641EF9D52846F8BDFFB50446002581B0EB
:10CE80001E46C80301D5302700E02027880404D5BA
:10CE900005E038460399B0476D1C641EF9D5284655
:10CEA00005B0F0BDFFB583B00C9C1646002C01D038
:10CEB000002708E001270398F8F712F80421FBF790
:10CEC00041FF040014D0267004980125002805D0E5
:10CED000049A601C06999047401C85B2300614D510
:10CEE0001021039805F0F8F8002804D0192616E060
:10CEF000132007B0F0BD621929462046FFF7EAF873
:10CF00000C350646ADB2002809D1042069460880D8
:10CF100001940D810398FBF7CFFE0600E9D0002FA6
:10CF200002D0204609F090FB3046E2E7F8B507460C
:10CF3000069800901E4614463846FFF7B3FF0500DA
:10CF40000BD107480268002A07D0012C02D13078A3
:10CF5000401CC4B22146384690472846F8BD000020
:10CF6000804A002030B5437803245B1D2343C45C12
:10CF7000E50601D5012030BD002903D0210601D5E9
:10CF8000022030BD002A03D0C1182039C97F11709A
:10CF9000C1182039487F897F4907490D0843044952
:10CFA000420502D51F22D20210430880002030BD66
:10CFB0003C48002070B50D46044609F073FC2D1B5B
:10CFC00002460023E9172846F7F74EF9081980B200
:10CFD00070BD70B50D46044609F064FC00232D1B9E
:10CFE000024628461946F7F73FF9081970BD70B593
:10CFF0000D46044609F056FC2D1B02460023E91796
:10D000002846F7F731F90819C0B270BDF0B5364EB1
:10D010009446326813689B0713D0136DDB08DB005E
:10D020001365136808242343136013681B0703D593
:10D0300000BF00BF00BF00BF136DDB08DB005B1C3F
:10D0400013652A4F3B68DC6A0722120594430122CC
:10D050005205A218DA62DD6A072424060522A543D8
:10D060001206AA18DA62224A1368DA6A9208920053
:10D07000921CDA621D680122120715431D601A68AE
:10D080006546D209D2016D066D0E2A431A6098607A
:10D0900018615960D96030684168012319434160C3
:10D0A0003968144D00200A4680322D890EE0176938
:10D0B000FF0108D5C86A072212051043C862C86A72
:10D0C000A043C86204E000BF00BF401C8542EEDC04
:10D0D00009484068002804D0C1680A6840690243D2
:10D0E0000A6030680360F0BD38480020684A0020BC
:10D0F000604A0020C86F00203C48002010B5144A48
:10D10000592113681965134909680B684024DB0924
:10D110002043DB014006400E03430B600E480861CC
:10D120000E48C8600E4900204870106841684908E0
:10D13000490041600B484068002804D0C1680B6872
:10D14000406903430B6011680120086010BD0000B6
:10D1500038480020604A0020294176715555550015
:10D16000E86F00203C48002010B5144800680168B2
:10D1700089070ED0016DC908C90001650168082240
:10D18000114301600168090703D500BF00BF00BF5C
:10D1900000BF002202650A4B586800280AD0416887
:10D1A0000C68806804430C60586801690B6840692A
:10D1B00003430B600348C27110BD000038480020D3
:10D1C0003C480020E86F0020FFB5804C06462068F0
:10D1D0000D46016881B0174689071AD0016DC9084C
:10D1E000C900016501680823194301607848407D42
:10D1F000002801D0F8F7F8F820680168090703D57E
:10D2000000BF00BF00BF00BF016DC908C900891C75
:10D210000165704A1068C16A07231B059943012301
:10D220005B05C918C162C16A07231B069943052320
:10D230001B06C918C1626848006801687B06C909F5
:10D24000C9015B0E19430160866006614560C560D7
:10D25000C16A89088900C162016801231B079943DB
:10D2600001605E4D2B6898680499400B40030843A9
:10D27000986056480068416801242143416058483D
:10D280008178A14381701168564E00200C4680348D
:10D2900032890FE02669F60109D5CC6A07263605E2
:10D2A0003443CC62CC6A3601B443CC620AE000BF9E
:10D2B00000BF401C8242EDD804E000BF00BF00BFA9
:10D2C00000BF401C8242F8D89868474BC004C00C8D
:10D2D0003A2805D91F6830204349C043803108608F
:10D2E00042484068002804D001680A688068024308
:10D2F0000A60364802210068016028688068C0041E
:10D30000C00C3A2860D900BF00BF00BF00BF00BFFB
:10D3100000BF00BF00BF00BF00BF00BF00BF00BF15
:10D3200000BF00BF00BF00BF00BF00BF00BF00BF05
:10D3300000BF00BF00BF00BF00BF00BF00BF00BFF5
:10D3400000BF00BF00BF00BF00BF00BF00BF00BFE5
:10D3500000BF00BF00BF00BF00BF00BF00BF00BFD5
:10D3600000BF00BF00BF00BF00BF00BF00BF00BFC5
:10D3700000BF00BF00BF00BF00BF00BF00BF00BFB5
:10D3800000BF00BF00BF00BF00BF00BF00BF00BFA5
:10D3900000BF00BF00BF00BF00BF00BF00BF00BF95
:10D3A00000BF00BF00BF00BF00BF00BF00BF00BF85
:10D3B00000BF00BF00BF00BF00BF00BF00BF00BF75
:10D3C00000BF00BF00BF1F6005B0F0BD384800209F
:10D3D000946F0020684A0020604A0020644A0020C0
:10D3E000E86F0020C86F002000E100E03C4800200A
:10D3F00010B51D4909688A68520B520302438A60BE
:10D400003A282ED9194A1168194883689B029B0E45
:10D410003E2BFAD083681B0CDB439B060CD0836841
:10D420009B029B0E332B03D283681B0C9B06ECD113
:10D43000FFF79AFE002010BD30230C4CDB438034F4
:10D44000236083681B0CDB439B06FAD083689B0236
:10D450009B0E302B04D383689B029B0E332BF0D39F
:10D460001160012010BD0000644A002000E100E0CE
:10D4700000C20040F0B5614E0446306817460068AF
:10D480000D46800701D0FFF76FFE31685A2008650E
:10D490005B49002D0868026809D04023D2091C436B
:10D4A000D20163065B0E1A430260564A07E0D209B6
:10D4B000D20163065B0E1A430260524AD243826075
:10D4C000096851484860514A11688868400B400318
:10D4D000384388604E4B0020D870306843685B0842
:10D4E0005B0043604B4B00201B8904E000BF00BF82
:10D4F00000BF00BF401C8342F8D88868464BC00478
:10D50000C00C3A2805D91D6830204349C0438031FA
:10D51000086042484068002804D001680C688068B0
:10D5200004430C6031680220086010688068C00401
:10D53000C00C3A2860D900BF00BF00BF00BF00BFC9
:10D5400000BF00BF00BF00BF00BF00BF00BF00BFE3
:10D5500000BF00BF00BF00BF00BF00BF00BF00BFD3
:10D5600000BF00BF00BF00BF00BF00BF00BF00BFC3
:10D5700000BF00BF00BF00BF00BF00BF00BF00BFB3
:10D5800000BF00BF00BF00BF00BF00BF00BF00BFA3
:10D5900000BF00BF00BF00BF00BF00BF00BF00BF93
:10D5A00000BF00BF00BF00BF00BF00BF00BF00BF83
:10D5B00000BF00BF00BF00BF00BF00BF00BF00BF73
:10D5C00000BF00BF00BF00BF00BF00BF00BF00BF63
:10D5D00000BF00BF00BF00BF00BF00BF00BF00BF53
:10D5E00000BF00BF00BF00BF00BF00BF00BF00BF43
:10D5F00000BF00BF00BF1D60F0BD00003848002024
:10D60000604A00202941767155555500644A002032
:10D61000E86F0020C86F002000E100E03C480020D7
:10D620000249C8600249802008717047C86F002015
:10D63000E86F002008B51148407D002801D0F7F7B9
:10D64000D3FE0F4B1879000612D50E48816B00915E
:10D65000816B009A9142F9D10B491046C9680122A9
:10D66000814202D8401A02D502E0081A00D51A7188
:10D6700006488069002800D0804708BD946F0020CC
:10D68000E86F002000100040C86F0020786F002075
:10D6900010B50C4604F0B2FB002804D040882146A7
:10D6A000FAF72BFE10BD122010BD002917D000285C
:10D6B00015D0012804D0022805D0032807D00CE09B
:10D6C0004879C02207E048798006800E04E0487956
:10D6D0008006800E402210434871012070470020D0
:10D6E0007047000010B5054C606B002803D009F0AE
:10D6F0004DF800206063207E607610BDB8490020A0
:10D70000F0B54D4D0746686B87B00E4600281CD11A
:10D71000002F7DD0002E7BD0384600F04FFA68767F
:10D72000297E884211D300240AE0E96B20014018C9
:10D730000622FF2108F0FBFE002805D1641CE4B29C
:10D74000287E8442F1D3C4B26C76687E297E8842FA
:10D7500070D2696B00290DD08A680024002A27D076
:10D76000062148432130C0B21C2109F075F9686BCD
:10D77000846050E0062148432030C0B23A46102170
:10D7800009F06AF91822FF21684608F0E3FF687E75
:10D790006A467030C0B2182109F05EF9687EE96B04
:10D7A000000140181022394608F0DEFE6E6332E0B8
:10D7B0000A69002A09D0062148432230C0B21C2140
:10D7C00009F04AF9686B046125E04A69002A09D02A
:10D7D000062148432330C0B2102109F03DF9686B9F
:10D7E000446118E0CA68002A18D006214843243052
:10D7F000C0B2102109F030F9686B0621C268687E5A
:10D80000103248432530C0B2042109F025F900E068
:10D8100010E0686BC460002007B0F0BD687C002891
:10D8200001D000F083FBA87C002801D000F046FB6B
:10D8300000F0E6FB0120EFE7B8490020F7B588B01B
:10D84000044620220021684608F084FF6A461480BE
:10D850005B480425817B1177FF2101310A9E4A0034
:10D860008B000224002E50D087786E463771C7781F
:10D870007771069E4079BC467608C7077600FF0F91
:10D880003E4306968607069E01D5264300E0A64342
:10D890000696C6064A4F069E01D50E4300E08E430B
:10D8A0000696810606993E4601D5114300E0914354
:10D8B00006914106069901D5194300E099434007B6
:10D8C0000691084601D5284300E0A843069060462B
:10D8D000002805D001A810223A49023008F044FE81
:10D8E0003179002905D00998002802D006982043F4
:10D8F00006906846807D002900D0012108436946D2
:10D900008875717850E0042150E0077A6E463771CF
:10D91000477A7771069EC07ABC467608C7077600BC
:10D92000FF0F3E4306968607069E01D5264300E07C
:10D93000A6430696C606224F069E01D50E4300E07A
:10D940008E430696810606993E4601D5114300E0B6
:10D95000914306914106069901D5194300E0994388
:10D9600040070691084601D5284300E0A8430690E9
:10D970006046002806D0134901A810221031023059
:10D9800008F0F2FDB17A002905D00998002802D0EC
:10D990000698204306906846807D002900D001212A
:10D9A000084369468875F1790029ACD10843694676
:10D9B000887568460A99F8F7D9FF0BB0F0BD0000EA
:10D9C000B849002020710020F0B5064687B0062037
:10D9D00041430C9D1446082B1BD02131CFB21C2291
:10D9E0000021684608F0B6FE6A461C21384608F059
:10D9F000EFFF00280BD16846807EC01F092806D89B
:10DA0000E107C90F2B466A463046F9F703F807B01D
:10DA1000F0BD2231E2E7000070B500252C460A4E29
:10DA20000CE0F16B200140180622FF2108F07FFD79
:10DA3000002801D16D1CEDB2641CE4B2307E84423A
:10DA4000EFD3284670BD0000B84900207FB50D46D1
:10DA500006214843044616462034E0B26A461021A7
:10DA600008F0B6FF002806D10622FF21684608F01C
:10DA70005EFD002802D0002004B070BD6846808999
:10DA8000002EC3B202D02B43DBB200E0AB4398427E
:10DA90000AD068468381E0B26A46102108F0DCFFB4
:10DAA0000248007D08F074FF0120E5E7B849002036
:10DAB00070B500200446064D04E0204600F00AF848
:10DAC000641CE4B2297E8C4201D20028F5D070BDDE
:10DAD000B8490020F0B5384E0546707E91B08542B9
:10DAE00009D10121F07D08F007FD0221F07D08F049
:10DAF00003FDFFF7F7FD2C46062044432746203759
:10DB0000F8B207AA102108F063FF002806D1062208
:10DB1000FF2107A808F00BFD002803D000252846A8
:10DB200011B0F0BD1022FF2107A808F013FE1C223F
:10DB3000FF21684608F00EFE1822FF210BA808F00E
:10DB400009FEF8B207AA102108F086FF0746204612
:10DB50002130C0B26A461C2108F07EFF07432046F0
:10DB60002230C0B26A461C2108F076FF07432046E7
:10DB70002330C0B26A46102108F06EFF07432046EA
:10DB80002430C0B26A46102108F066FF07432534EE
:10DB9000E0B26A46042108F05FFF044670353C435A
:10DBA000E8B20BAA182108F057FF20430546307D44
:10DBB00008F0EEFEB3E70000B849002070B5064655
:10DBC00000240A4D0CE0E96B200140180622314682
:10DBD00008F0BCFC002801D0204670BD641CE4B2F3
:10DBE000287E8442EFD3C0B270BD0000B849002047
:10DBF00000229300CB5A834202D190004018704714
:10DC0000521CD2B2062AF4D3002070477FB50D46CD
:10DC10000D49097E88420CD2002D0AD006214843C6
:10DC20002030C0B26A46102108F0D2FE040003D0B2
:10DC300007E0022004B070BD06226946284608F0BD
:10DC400093FC2046F6E70000B84900201FB50621E6
:10DC500048432030C0B26A46102108F0B9FE0028BF
:10DC600002D0002004B010BD68468089C0B2F9E738
:10DC700000218A00835A491CDB438352121893788F
:10DC8000C9B2DB4393700629F3D3704770B5002403
:10DC90001E4E1FE0F06B25012A182046062148433E
:10DCA0002030C0B2102108F093FE002810D0F06B95
:10DCB00006222818FF2108F04DFDF06B06222818D7
:10DCC000FF21801D08F046FDF16B00206918888156
:10DCD000641CE4B2307E8442DCD3FFF79DFE317ECB
:10DCE0008842B07E02D10121084301E04008400093
:10DCF000B076707C002801D000F018F9B07C0028C4
:10DD000001D000F0DBF800F07BF970BDB8490020CD
:10DD100010B503494088C97DF9F7BEFD10BD00006C
:10DD2000B849002070B50E460546062148438AB022
:10DD300014462030C0B206AA102108F049FE00287F
:10DD400046D10622FF2106A808F0F1FB00283FD1AA
:10DD50007035E8B26A46182108F03AFE002834D13E
:10DD60006846FFF785FF002E06D069463046FFF76C
:10DD70003FFF00280DD015E018220021684608F06A
:10DD8000D6FB002821D118220021684608F0E2FCC9
:10DD900010E0002C1CD069460020FFF729FF002866
:10DDA00016D006808178A1420FD08470002C01D15A
:10DDB0000021018007490120C8736846FFF758FF1A
:10DDC000E8B26A46182108F047FE01200AB070BD8B
:10DDD0000020FBE7B849002070B501780125B02983
:10DDE00007D0B12913D0D02923D1F7F727FF054653
:10DDF0001FE0044600791E2803D160880021F8F74F
:10DE000083F8204621790830FAF748F911E00179C2
:10DE100000290ED1084C0026E6730289C18840888B
:10DE2000F8F76EFAE07B002803D0E673207D08F057
:10DE3000AFFD284670BD0000B849002070B51C4CED
:10DE40000646A06B1B4D86B000280BD120461C3027
:10DE500000900223184A29460120F9F7C7FDA06364
:10DE6000002823D0FF2303930222002105A86B463C
:10DE700007C304ABA28B3046A16BF9F79DFB0028CA
:10DE800008D16846028A002A04D0A06B4189304636
:10DE9000F8F736FA0023A28B2946A06BF9F7E0FDCC
:10DEA000A063002802D0002006B070BD0120FBE76F
:10DEB000B8490020FFFF000048700100F0B589B0AC
:10DEC000FAF738FA0024184F26E0F86B26013018CC
:10DED0000622FF2108F02BFB00281BD1F86B30181D
:10DEE0004079800902281CD001252046062148439C
:10DEF0002330C0B26A46102108F06AFD04AA10213E
:10DF0000022008F065FDF86B04AB31186A4628461C
:10DF1000FAF708FA641CE4B2387E8442D5D309B01B
:10DF2000F0BD0025E1E70000B849002070B5FAF720
:10DF300005FA00240A4E0FE0F06B2501281806228E
:10DF4000FF2108F0F4FA002804D1F06B2918002012
:10DF5000FAF7ECF9641CE4B2307E8442ECD370BD75
:10DF6000B849002070B514460D46064603F02EFF52
:10DF700000280DD0017B084808290AD0C06A002873
:10DF800006D04368002B03D02246294630469847E6
:10DF900070BD006BF3E70000B8490020FFB581B009
:10DFA0001D4616460C46084603F010FF00280ED00A
:10DFB000007B124A08280CD0D06A002817D00768C6
:10DFC000002F14D02B46324621460198B84705B0A1
:10DFD000F0BD106B002802D00768002FF2D1214657
:10DFE000506A06E001212046F9F750F9EFE7214693
:10DFF000106AF8F79DFF0028F4D1E8E7B84900203F
:10E0000008B5FFF709FD012801D9022000E00A2028
:10E01000694608706A4601210520FAF7F1F808BD43
:10E0200010B50C4A0A4B1268994206D1002A0DD04D
:10E030001178814207D0032010BD0548401C814261
:10E0400004D1002A02D0FAF798F910BD122010BDB1
:10E05000FEFF00005C48002030B587B0032817D0D1
:10E06000344A002590421BD1887800285CD0324980
:10E070000B68002B58D005950295039504950095E3
:10E080000195DA7819781B1D01F000F901200CE0E8
:10E09000488900908C880B89CA88C878214612E08C
:10E0A000244A521C904203D1022000F0BDF83BE00C
:10E0B000204A921D904209D18878002834D000234C
:10E0C0001A461946009501F011F92DE0194A0C3253
:10E0D000904229D0194A904229D148790C461228F9
:10E0E00022D1E389A28961892089FAF7D9F9002828
:10E0F00004D01720F8F72AFE002800D00120694636
:10E1000008832179608806AAFAF7A4FC6846008B88
:10E11000002809D1E089019502950090A3896289C0
:10E1200021896088FAF70EF9012007B030BD002080
:10E13000FBE700000D2000005C480020FFFF00000E
:10E140000A4A10B5904202D18868007807E0074A71
:10E15000521C904208D188680078002802D001F053
:10E16000A1F910BD012010BD002010BD0B20000042
:10E1700000290ED000280CD0487980098001C028E1
:10E1800003D0402803D002207047012070470320AD
:10E19000704700207047FFB5002008701F2A1BD26F
:10E1A000904219D21C5C401CC5B2002C14D06619D8
:10E1B000964211D85F5D384601F0BFF900280BD0B8
:10E1C000641E0C700098874203D15819401C04B09B
:10E1D000F0BD761EF0B2E3E70020F8E710B5044C7E
:10E1E0002068002803D008F02FFA0020206010BD1E
:10E1F0005848002070B5846B0546002C13D0206A67
:10E20000002801D008F020FA606A002801D008F048
:10E210001BFAA06A002801D008F016FA204608F080
:10E2200013FA0020A86370BD10B5044CA069002843
:10E2300003D008F009FA0020A06110BD4448002076
:10E24000F3B51E4E0546706881B0002824D0002426
:10E2500018E07068270138188068002805D008F099
:10E26000F3F9716800207918886070683818C06800
:10E27000002805D008F0E8F9716800207918C86016
:10E28000641CE4B2AC42E4D302980028706804D065
:10E2900008F0DAF900207060FEBD0028FCD02A01E9
:10E2A000002108F057FA0021FF22706803E00B01FB
:10E2B000491CC254C9B2A942F9D3FEBD884A002004
:10E2C000002805D104488078002801D00348704711
:10E2D000014818307047000040700020604800205E
:10E2E0000148807870470000407000200148C068F5
:10E2F000704700004070002001480069704700002E
:10E30000407000200148406900687047407000205C
:10E3100010B5064A50690168491C0160D078FF2891
:10E3200003D00121890308F0E3FA10BD40700020FA
:10E3300070B5064D064CE888A04205D005490A781C
:10E340000549FAF779FBEC8070BD000040700020B1
:10E35000FFFF0000764A002066480020FFB581B02C
:10E360000B9F0A9E0D9D039803F030FD04007AD0A8
:10E37000019800282ED104984007207902D5122157
:10E38000084303E010210843FD2108402071304676
:10E390000C99384308432843207924D004210843AA
:10E3A0002071002D07D02869A0622046102229463E
:10E3B000183008F0D9F80298002818D0002F09D09A
:10E3C000E06A002801D008F03FF91C21384608F027
:10E3D000D7F8E062A46B002C45D0002E1CD0206A38
:10E3E00000280ED014E0FB2108402071F2E7002E37
:10E3F000F0D0E06A002801D008F026F91C21304650
:10E40000E5E747211C2008F0CBF82062002803D064
:10E410001C22314608F0A8F80C9800280DD0606A3C
:10E42000002806D14721162008F0BAF860620028BB
:10E4300003D016220C9908F097F8002D0DD0A06A91
:10E44000002806D14721142008F0AAF8A06200286D
:10E4500003D01422294608F087F83B46049A039912
:10E46000019806F047FB05B0F0BDF3B581B0019807
:10E4700003F0ACFC05002AD00E2008F073F904006C
:10E4800025D01820F8F762FC0606360E00D12E784B
:10E49000D0202070002767700B20A0700622A91DD5
:10E4A000E01C08F061F80298C1070120002901D0A2
:10E4B000207300E02773019961810299890701D5D2
:10E4C000607300E067732146304608F0BFF9FEBD77
:10E4D000FEB501261F4D032809D01F4A904227D1BF
:10E4E00088780C2821D011281FD03046FEBDC8786E
:10E4F0001A4F0C461A2803D1A088F988884214D0F4
:10E50000A08803F063FC002801D0E188C181608904
:10E5100000902389E288A188E07800F0E7FEA088D7
:10E52000F9888842E1D1FD80DFE7FFF701FFDCE7F2
:10E53000A8420DD10C46497900201229D6D169464E
:10E5400088802179608801AAFAF76AFA0120FEBD65
:10E550000020FEBDFFFF00001320000040700020DF
:10E5600070B581881F4A914213D11F49806809689C
:10E57000007800290BD0002805D101204870F9F758
:10E5800048FF002801D000F0D7FE012070BD002018
:10E5900070BD144AD21C91421AD8521E914201D128
:10E5A000012400E000248068104E05783078FF28B0
:10E5B000EBD0042008F0D6F80100E6D0D020087097
:10E5C0004D7002208870CC70307808F03FF9DCE79D
:10E5D000044A121D9142DAD18068007800F0B8FF39
:10E5E00070BD000006200000584800207048002040
:10E5F00070B502461B481C4C01680026184D207857
:10E60000012A0BD0002908D0E178490705D502215D
:10E6100008F01EFB6E80FFF7E1FD70BD6A88002ADE
:10E6200003D0124B1B79002B05D00029F5D00878B8
:10E63000F8F762FB70BD3C2A0FD2022108F008FBFC
:10E6400068880B4948430B49F5F7FAFD02462078E4
:10E65000022108F09FFA6E8070BD3C3A6A8070BD5E
:10E660007048002058480020764A00204070002062
:10E6700040420F007102000070B514460D4603F0D1
:10E6800024FD0C49042809D08868002810D042686D
:10E69000002A0DD021462846904770BD09690029FF
:10E6A00006D00B68002B03D021462846984770BD42
:10E6B000012070BD44480020F0B587B004005AD056
:10E6C0002E48A179C6782E4F002924D0F868042559
:10E6D000002804D04168002901D000208847214645
:10E6E000E07908310691FFF743FDE0718446237D10
:10E6F000628A218AE089029003A80EC0A088019551
:10E700000090E07862463146069B00F0BFFDE0785D
:10E71000002806D016E0B86908250028DFD0067862
:10E72000DDE7628A218AE0890290172303A80EC0E0
:10E73000069800900195E379A1880122304603F004
:10E74000E1FAE070B869002802D00420FFF76CFD00
:10E75000787800280FD03978FEF79AFF00280AD081
:10E76000E078312805D00095A2880346797806F034
:10E7700029FA0020787007B0F0BD0000407000203A
:10E7800044480020F8B50446FF26808803F01EFBAD
:10E79000050009D02E782F7BFFF72CFD284606F0C8
:10E7A00083FAA08803F076FC114D6878002808D021
:10E7B000864206D12978FEF76BFF00280AD16870DF
:10E7C00008E0FF2E06D00097A379A288A0783146F2
:10E7D00006F0F8F9A08803F078FC042807D1054872
:10E7E000A188C288914202D10021C943C180F8BDED
:10E7F0004448002040700020F0B587B004005BD092
:10E800002E48A179C6782E4F002925D0F868042516
:10E81000002804D04168002901D000208847214603
:10E82000E07914310691FFF7A3FCE07184462023C0
:10E830001B5DE28BA18B608B029003A80EC0A088A9
:10E8400001950090E07862463146069B00F01EFD7F
:10E85000E078002806D016E0B86908250028DED048
:10E860000678DCE7E28BA18B608B0290172303A86C
:10E870000EC0069800900195E379A18801223046E8
:10E8800003F040FAE070B869002802D00420FFF7D6
:10E89000CBFC787800280FD03978FEF7F9FE0028F5
:10E8A0000AD0E078312805D00095A288034679780F
:10E8B00006F088F90020787007B0F0BD40700020A5
:10E8C0004448002010B5094CA278002A0CD001461B
:10E8D0000622074807F048FEA0780549FEF7E5FE46
:10E8E0000348F9F7A5FD10BD002010BD40700020C1
:10E8F0006048002070B5164D0646E878FF2814D011
:10E900000A2007F02FFF04000FD0D020207066707F
:10E910000820A070A878E07006220E49201D07F09C
:10E9200023FEE878214607F091FF287901280ED1CF
:10E9300008481C38C068002803D08068002800D030
:10E9400080470548054A0078042108F011F970BD98
:10E950004070002060480020764A002000770100C7
:10E9600010B586B0044603A91448F7F7FBFC13481A
:10E9700004A9401CF7F7F6FC6846E388018A8B423D
:10E9800003D822898089824205D2A0882021F9F704
:10E9900026FD06B010BD834200D2E0808A4200D935
:10E9A0002181A18900200190009102906389228930
:10E9B000E188A088F9F717FDEBE7000011030000DC
:10E9C000F8B5070041D0F87800283DD07D68002DCB
:10E9D0003AD01620F8F7BAF940B20026009030E09D
:10E9E0000F2169560098814228DB1D488068002865
:10E9F00024D0142007F0B6FE04001FD0D0202070D1
:10EA0000002060701020A0702878E070E87BA0746F
:10EA1000687820710622A91C601D07F0A5FD287AE0
:10EA2000E07229462046062209310C3007F09CFD91
:10EA30000B4821468068007807F008FF761CF6B284
:10EA40001035F878B042CBD8F8BD0548806800286A
:10EA5000FAD0002000F090FB002000F0B7FCF8BDD9
:10EA6000884A0020F1B584B0049800287ED0C07890
:10EA700000287CD004984468002C78D01620F8F741
:10EA800065F940B2002702901CE1204620300821A1
:10EA900001904156029881426ADB934900258968BA
:10EAA000284600297ED0217801290CD02346227ADD
:10EAB000093303A90120FFF76EFB002800D0057879
:10EAC0002178042914D088498968497803290FD00E
:10EAD000002D0DD000290BD0002863D0012902D0D1
:10EAE00002295FD101E0A80700E0E807002859D01B
:10EAF0006078A11CFFF73CFB009060707A4800250D
:10EB00004068002857D0002617E0496830010A5CA9
:10EB1000FF2A10D04018427800998A420BD1062271
:10EB2000A11C801C07F012FD002804D06E483101A2
:10EB300040680D1805E0761CF6B26B4908788642ED
:10EB4000E3D3002D37D02078042872D0A86800289D
:10EB500018D00178227A914206D121460931401C11
:10EB600007F0F4FC012871D0207802E0B1E0AEE0BB
:10EB7000A5E004285FD0A868002803D007F064FD52
:10EB80000020A860207A5949401C07F009FD0028A0
:10EB90000DD02178042957D0A860217A0170227AFB
:10EBA000214600E043E00931401C07F0DDFC207AFB
:10EBB000002850D153E02678042E50D04A4A51689C
:10EBC00000294CD00020137805E002018A5CFF2A5E
:10EBD00025D0401CC0B29842F7D3002D3FD02E70F4
:10EBE000607868700622A11CA81C07F0BDFC207A82
:10EBF0003E49401C491C07F0D3FC00280BD021786B
:10EC000004290FD0A860217A01702146227A0931A7
:10EC1000401C07F0A9FC207A00281CD104E0000168
:10EC20004518DAE7E860EEE72078012813D016E00F
:10EC3000FFE7E8688BE7E8680028A3D007F004FD49
:10EC40000020E8609EE701E0E860A6E71520F8F7FD
:10EC50007DF8002803D124488068002803D1224889
:10EC6000406800282BD1207A143007F07BFD050086
:10EC700025D0D020287000266E700D20A870207836
:10EC8000E87001980622007AE87260782871A11C69
:10EC9000681D07F069FC227A2A73207A002807D0C1
:10ECA0002846143021460931286107F05DFC00E058
:10ECB0002E610D4829468068007807F0C7FD7F1C4B
:10ECC000FFB229340498C078B84200D9DDE605B017
:10ECD000F0BD054880680028F9D0002000F04CFA0B
:10ECE000002000F073FBF2E7884A00201E47000076
:10ECF00070B50178744D912902D0A22973D04FE0EC
:10ED00004178052908D0714C714B0E2907D00F2985
:10ED10006AD03E2969D043E0FFF734FD1CE08288C9
:10ED20006C4900258A4219D181680E78491C002E51
:10ED300006D1002904D065480622183007F014FCDB
:10ED4000207801282CD1002E02D02570304624E0F6
:10ED500002202070F9F73BFB012070BD5E498A421A
:10ED600020D18668002E1BD03078002806D1B178DB
:10ED70007278080210432081F078607020780228B1
:10ED80000ED13078002801D0257005E003202070D6
:10ED900061782089F9F7CEFF307800F055FADBE78B
:10EDA000002070BD4C49C91C8A4204D1806800789B
:10EDB000FFF7A0FDD0E749495118042907D8D968C1
:10EDC0000029C9D009680029C6D0884770BD4249CA
:10EDD00009318A420AD159680029BDD00B68002B3D
:10EDE000BAD0014634E067E016E034E03A490A312F
:10EDF0008A4203D1816809780029ADD0364C0C34A1
:10EE0000A242CDD199680029A6D04A68002AA3D091
:10EE100001462046904770BD014682882E480B303F
:10EE2000824203D02C481730824204D198680028CF
:10EE300092D043680AE0284811308242B0D1E0887D
:10EE4000A842F3D01869002886D00368002B83D02D
:10EE50001046984770BD8178012914D00A2915D031
:10EE6000022916D00B2919D003291FD0062920D03A
:10EE7000072995D18188082992D2C0884900184A6B
:10EE8000001F50528CE7FFF717FC65E7FFF7B4FC53
:10EE900062E7596800298DD0496803E05968002964
:10EEA00088D08968002985D0884755E70246808840
:10EEB00006E0FFF755FD4FE743880246294618460E
:10EEC000FFF7DAFB70BD0000FFFF0000407000207C
:10EED000444800200910000002200000FADFFFFF74
:10EEE000AC71002001494860704700004448002090
:10EEF0000149886070470000444800200149C8600B
:10EF00007047000044480020014908617047000034
:10EF100044480020F8B505468078624C0022062659
:10EF2000032721780300FDF766FD0805AF375A5A1D
:10EF30006E99A1AF687800286AD110225A495B48BF
:10EF400007F004FB002807D0574910221031584819
:10EF500007F0FCFA00280DD1544A1021022007F0D6
:10EF60007BFD534A1021032007F076FD51480078BD
:10EF700007F00EFD0622E91C4F4807F0F5FA0120C4
:10EF800020704F484D4B02784E4801210078F8F729
:10EF9000D1F900283CD179E06878002838D1494877
:10EFA000EA780078002A07D04849474B0A780021C0
:10EFB000F8F7C0F968700EE002290FD00121414F27
:10EFC00007F0ACFA002806D12078052803D00121EB
:10EFD000387807F08DFC6878002819D1F8BD6A7878
:10EFE000002A15D1032805D00020394A05291070C0
:10EFF00005D006E0042937D10520207046E0042022
:10F00000FBE7277042E06878002803D0312821D040
:10F0100026703BE0042020706A89E8780423291DCB
:10F02000F6F752FC2B4E307800280DD02A49E878AC
:10F030000A78904206D10622281D491C07F086FA5C
:10F04000012805D0012030702149002008701DE002
:10F050000220F8E71E4900200870D2E72846F6F79C
:10F06000EDFD20780528CCD10220C6E7687800287D
:10F07000B4D11A4800688468002CAFD06B892A8903
:10F08000E988A888A047F8BD002AFCD0134800688A
:10F090000028F8D00268002AF5D029462078904749
:10F0A000F8BD0000144A0020407100207F7100204C
:10F0B0008F710020CC4900202A4A0020304A0020CD
:10F0C0000E4A00200C4A002060710020104A0020E7
:10F0D0000F4A0020D3490020F8490020084A0020A8
:10F0E00010B50178912906D0A22903D0D02901D1E9
:10F0F000FFF710FF10BD41780E29FBD181880A4A25
:10F100009142F7D1806803218278415643781002FA
:10F1100018437F29EED0054A1268002AEAD05268C7
:10F12000002AE7D0904710BD05140000084A0020CF
:10F13000F8B507460E46084602F048FE020019D010
:10F140001820F7F703FE05062D0E00D115780620CE
:10F1500007F008FB04000DD00622002107F0FAFAA0
:10F16000D020207067700E20A070A680214628460F
:10F1700007F06CFBF8BD0000F8B5054631480024E7
:10F18000806800285CD0002D10D12E494A68002AE2
:10F190000CD00020097807E00301D35CFF2B01D0DD
:10F1A000641CE4B2401CC0B28842F5D3E0000830D1
:10F1B00007F0D8FA060007D1082007F0D3FA002498
:10F1C00013250646002831D0D020307001207570FC
:10F1D000B070F470002C21D03546083500277560DA
:10F1E00015E051683801095CFF290ED0297051687B
:10F1F000641E4118497869705168E4B241180622CA
:10F20000A81C891C07F0B0F908357F1CFFB20D4A15
:10F210001078874204D2002CE3D101E00020706016
:10F22000084831468068007807F010FB054C002143
:10F230002078FFF705F8A06807F006FA0020A06024
:10F24000F8BD0000884A002070B50F4D0646E878EA
:10F25000FF2817D00E2007F085FA040012D0D02026
:10F26000207066700020A070294606221831E01C2C
:10F2700007F07AF92889608168782073E878214658
:10F2800007F0E4FA70BD000040700020FFB50746AB
:10F2900081B01D461646162007F064FA040022D0FD
:10F2A000D020207005206770A070E670002D05D07A
:10F2B00006222946201D07F057F904E00622002106
:10F2C000201D07F047FA0A9860810B9820730C986C
:10F2D000E0810D9820820E9860820F98207521465B
:10F2E000029807F0B3FA05B0F0BD0000FFB581B099
:10F2F0001E4617460D460C2007F034FA040016D0BF
:10F30000284602F063FD002801D0007801E009489A
:10F31000C078D0212170019961700721A170A5806A
:10F32000E78026810A996181214607F08FFA05B0AE
:10F33000F0BD00004070002070B50C4D04462868F8
:10F34000002811D0032007F00DFA010008D0D020CA
:10F3500008704C70032088702868007807F076FAEF
:10F36000002C01D0FEF73AFF70BD00005848002085
:10F37000FFB581B01F460E46084602F027FD050086
:10F3800022D0102007F0EEF904001DD01022002139
:10F3900007F0E0F91820F7F7D9FC0006000E00D1BD
:10F3A0002878D0212170019961700F21A170A68069
:10F3B0000399217267720A99A1720B99E1720C99F3
:10F3C000E160214607F042FA05B0F0BD10B50446F1
:10F3D0001520F7F7BBFC002801D0012100E0002137
:10F3E0002046F9F72DF810BDFFB5074681B01D4640
:10F3F0000E460E2007F0B6F9040010D0D020207081
:10F40000002060700C20A070A6800622A01D039929
:10F4100007F0AAF82573F8B2214607F017FA05B0ED
:10F42000F0BD0000F0B51C4F85B03868002831D021
:10F430000320F7F78BFC06460420F7F787FC054608
:10F4400004A91648F6F7D2F96846017C1448002949
:10F45000807806D0032802D0002806D003E00224DA
:10F4600004E0002801D0012400E000243968C878B5
:10F47000091DFEF71AF93A68D77A937A0090111DA0
:10F4800001A88AC09278234629463046F8F7C5FF7E
:10F4900005B0F0BD0120FBE7584800201F04000024
:10F4A0004070002070B504460E488068002818D0CF
:10F4B0000D4D002C0DD10220F7F748FC020003D0BF
:10F4C0002878012107F066FB0120FFF77FFF040089
:10F4D00006D02878012107F0BBFB2046FFF74CFE41
:10F4E000012070BD884A0020764A002070B50C4685
:10F4F00002F06CFC05001FD01820AC62F7F726FC68
:10F500000606360E00D12E78102007F02BF90400E5
:10F5100012D0D0202070002060700920A07068797F
:10F52000E0700622A91D201D07F01EF8A86AE06001
:10F530002146304607F08AF970BD002803D017280D
:10F5400003D3FF2801D0002070470120704700003E
:10F55000F1B52D4E82B03068002842D040782B4D56
:10F56000012814D0287900283AD1032007F0FAF8AE
:10F57000010009D0D02008700298487004208870DB
:10F580003068007807F062F9FEF728FE28E020488E
:10F59000204F4368002B19D01A78694601205B1C64
:10F5A000FEF7F9FD002811D00078C0070ED0012029
:10F5B000F7F7CCFB04463C2814D33878164A0221CE
:10F5C00007F0D6FA12483C3C448016E00020F7F7DA
:10F5D000BDFB0CE00020287102E00298FFF7ACFEB2
:10F5E0000120FEBD0D480E496043F4F729FE0200DC
:10F5F00003D03878022107F0CDFA31680220487034
:10F6000028790028E9D0E5E758480020407000201C
:10F6100070480020764A00200077010040420F0029
:10F6200071020000074A002106234B43D35A83424C
:10F6300003D10620414388187047491C0329F3DB96
:10F6400000207047D070002001460648406906E05F
:10F65000826852898A4201D1001D704700680028E3
:10F66000F6D170474049002000B50F292ED00BDCA1
:10F670000B00FDF7C0F90F23232323232B252B2376
:10F680002B232B232B272300182917D008DC103914
:10F690000B00FDF7B0F908131B1B131313191913F3
:10F6A0001E290BD006DC192908D01B290ED01D29D4
:10F6B00004D10BE0522909D0D22907D0002000BD87
:10F6C000C06800BD006800BD806800BD406800BD26
:10F6D00010B50C46FFF7A6FF00280DD0002C00D077
:10F6E00020608078FE2803D0FF2803D0162010BDAC
:10F6F000172010BD002010BD022010BDFFB581B045
:10F7000001980A9D1E461746FF2813D0202007F0B7
:10F7100029F804001DD0B020207067700298608026
:10F720002671002D09D0204618222946083006F0FF
:10F730001BFF08E0022005B0F0BD20461822002182
:10F74000083007F007F82146019807F07FF80020FD
:10F75000F1E71320EFE7002070470020704738B52D
:10F760004C88088884420ED300280CD000220092D6
:10F770000B794A1D2146F8F739F9002801D00020FD
:10F7800038BD0A2038BD012038BD0000F3B585B072
:10F7900006980026078840883446B84215D3002FC3
:10F7A00013D0002069468880029000206946888135
:10F7B00000900698002341881A463846F8F716F953
:10F7C00005005AD0002C03D00CE0012007B0F0BD9A
:10F7D0002220009003AB354A05210598F8F718FC64
:10F7E00004000BD068468088002832D068468079B3
:10F7F0000128287811D0102843D101E01120E5E735
:10F80000A87A207068891022000A6070A41C204623
:10F81000696806F0A9FE10340DE0022831D1A87AFB
:10F82000207068890222000A6070A41C2046696862
:10F8300006F09AFEA41C69468888401C80B2888025
:10F84000B0421AD269891948814216D07F1CBFB2D2
:10F85000ABE702942878022808D002206A4690710B
:10F8600012219089F4F7D6FCC6B2C9E70120694697
:10F87000887188898005060ED1E76846808800284F
:10F8800012D001A90598F5F70DFB00280AD001ABAD
:10F89000052216210598F8F7CBF9002802D0029826
:10F8A00006F0D2FE002091E70A208FE7FFFF00005C
:10F8B00038B505460C4608886946F8F773F80028FD
:10F8C00007D0017A6846028823462846F8F71AFBD3
:10F8D00038BD012038BD000038B50C464988208865
:10F8E000814219D3002817D02379621D02210B48C9
:10F8F000F5F760FA00280DD0002000902379618888
:10F900002088621DF8F772F8002801D0002038BD69
:10F910000A2038BD102038BD012038BD3C700100E0
:10F9200038B54C88088884420ED300280CD00022B9
:10F9300000920B794A1D2146F8F758F8002801D0AB
:10F94000002038BD0A2038BD012038BDF8B50D466D
:10F950000646002428E028686100401841780278B3
:10F96000080210436946F8F71DF8002810D0017A04
:10F97000684602883046F8F7EEFA002812D02A6866
:10F980006100535C13702A68491C515C5170F8BDCA
:10F99000296860000A5C0A702968401C085C48708D
:10F9A0000120F8BD641CA4B2A888A042D3D80020CE
:10F9B000F8BD38B5044608886946F7F7F3FF002814
:10F9C00006D0017A684602882046F8F7C4FA38BDA6
:10F9D000012038BD38B505460C4608886946F7F75A
:10F9E000E1FF002807D0017A6846028823462846AE
:10F9F000F8F7DCFA38BD012038BD00000149886005
:10FA0000704700003449002010B50446801C00F007
:10FA100017FFFF20E07010BD1CB504466846017159
:10FA20004271204602F0D2F900280BD0027B01A9D6
:10FA30000748082A009106D07E230022214600783C
:10FA4000FFF75CFE1CBD7E23002221464078F7E7CD
:10FA500034490020F8B50024064627460C206043B0
:10FA60008519A8882D1D00280ED0A868002801D06F
:10FA700006F0EAFD0C220021284606F06BFE641C0D
:10FA8000E4B22F80052CE9D30020C0433080F8BDBC
:10FA900000B500F023F8002800D0806800BD0022E7
:10FAA0009300CB5A834202D1900040187047521CF9
:10FAB000032AF5DB00207047074A002192698B0179
:10FAC000D35A834202D1880180187047491CC9B2B9
:10FAD0000329F4D3002070474049002006490969F2
:10FAE000002906D08A88824201D188687047096857
:10FAF000F6E7002070470000404900207CB506462C
:10FB0000012906D0022922D1012102F0E5FA0028BC
:10FB10001DD13046FFF7D0FF002801D0FFF79AFF34
:10FB200001A80C4D00900223094A29460120F7F74D
:10FB30005DFF0AE03046E168F7F78EFC6846828890
:10FB4000002329462046F7F78BFF0400F2D17CBD45
:10FB500048700100FFFF0000F3B5002083B00246AB
:10FB6000054604460C21049B6143C9188B88091D76
:10FB7000002B0ED0002A1BD093421ED14B8883420B
:10FB80001BD189884B199DB20818641C80B2052CC2
:10FB9000E8DB022C39DB00200190002D0DD01C4940
:10FBA000284606F0FDFC0090002807D0002625E03E
:10FBB0008D8848881A464019E7E7002005B0F0BD57
:10FBC0000C20049970434718F9683F1D00290DD097
:10FBD000019B0098BA88C01806F0C6FCB988019845
:10FBE000081880B20190B86806F02EFD002E04D0EF
:10FBF0000C220021384606F0ADFD761CA642DFDB64
:10FC000004990098C860049805810120D6E7000097
:10FC100004470000F3B5074683B000254088FFF78E
:10FC20004BFF0290002803D0387A012807D047E024
:10FC30007888F5F717F9002856D105B0F0BD384699
:10FC400008300299FFF788FF002817D0029C18217E
:10FC5000E088019100902389A188E2687888241DBA
:10FC6000F7F738FE0546162805D0002D28D0049851
:10FC70002188018024E00020A06021E000260C20E3
:10FC80000299704340188188041D002918D0042E61
:10FC90001ED0008A00281BD0162062880092019096
:10FCA000A3887888A268F7F715FE0546162811D0B4
:10FCB000002D02D0049821880180761C052EDEDB01
:10FCC0000298FFF7C7FE002D09D0162D05D00DE0D4
:10FCD0001820E2E70020A060EFE7002506E0788822
:10FCE000F5F7C0F8002801D01620A6E72846A4E7BB
:10FCF000F3B50446074689B008344088F5F7F0F8B4
:10FD0000079004A800900025237961882088621D4F
:10FD1000F7F76CFE059000286FD00798401F0890F9
:10FD20000898854269DA397907983D4BC01F80B23F
:10FD3000002203910093019202901E466946083EFC
:10FD40000A8A7888F3680599F7F736FC002821D1EC
:10FD50002089328990421DD1E068F16806F0F6FBF7
:10FD6000002817D02F4E706800280AD1112000906B
:10FD7000788800232C4A0721F8F74AF9002803D095
:10FD800070600598468906E00A9821880180112054
:10FD90000BB0F0BD00266846028A618806AB059864
:10FDA000F7F75EFE0590002E1AD01E49320A486809
:10FDB00046556D1C4B68A8B21A54401C059A80B277
:10FDC000002A10D06A464B68128B1A546A46128B6E
:10FDD000401C496880B2120A0A54401C85B29FE751
:10FDE00000289DD109E00F4AFF2153681954401C97
:10FDF000526880B21154401C85B2002D0AD00948C7
:10FE0000A908018078880749F5F734F80028BFD0A1
:10FE10001620BDE70A98218801800A20B8E7000073
:10FE200048490020B8700020FFFF0000F0B589B0FD
:10FE30000446002769468F8201208B4D0874E868CC
:10FE4000002807D1F8F726FE884906F0A9FBE860EC
:10FE500000281ED018220021854806F07BFC20795E
:10FE6000834E411CC9B20691022816D006283BD009
:10FE700008283ED00A2841D00C286DD00E287DD00D
:10FE800010287CD012287BD016287AD0182879D058
:10FE9000DBE06846007C09B0F0BD6088082808D225
:10FEA000744A4100515A002903D1734AFB21FAF7E1
:10FEB000BFFEF8F7EFFD308060886D49F4F7C2FFB0
:10FEC00000282189308805D0814200D320812089F3
:10FED0003080BEE0814200D3208121896088F7F71D
:10FEE000EBFFB2E00699ADE005A92046FFF700FF61
:10FEF0008BE005A9204600F0FDF986E0208907A9DE
:10FF0000F7F750FD05005ED015200090608808AB23
:10FF10005A4A0B21F8F77CF87060031E47D06946F7
:10FF20002079098C029101970096039069468A8B8B
:10FF300060882946F7F740FB050034D160884C49BA
:10FF4000F5F77AF93CE0706806F07EFB002D7CD076
:10FF50002089694688825AE0208907A9F7F722FD9F
:10FF6000050030D016200090608808AB434A0D2170
:10FF7000F8F74EF87060031E19D004E028E02CE07A
:10FF800030E035E03DE069460A8C207961890191D5
:10FF900000960292039069468A8B60882946F7F79B
:10FFA0000BFB050008D0162DCDD10025CBE720890D
:10FFB0006946888211252CE060882D49F5F7E2F822
:10FFC000002846D141E0208969460125888220E049
:10FFD00005A9204600F02EFA17E005A9204600F0FA
:10FFE000BFF812E004AA05A9204600F0ABFA0CE025
:10FFF00005A9204600F044F8050008D168460774BA
:020000040001F9
:1000000023E005A92046FFF705FE05001DD0162DAB
:100010001FD06078142818D0207930706846808A04
:100020007080357160881249F4F700FF00280CD009
:10003000012560880E4B2A461621F7F7F9FD0028A6
:1000400003D029460A48F8F729F82046F7F794FC28
:100050001FE76088064B1621069AF7F7E9FD00288E
:1000600000D03FE7F1E700004049002003470000CF
:10007000B8700020AC71002048080000FFFF0000AD
:10008000F0B5044685B00E460546083400270089C1
:1000900004A9F7F787FC03005BD0187A800613D514
:1000A0006846008AFFF7F4FC070008D0688812222F
:1000B0001946B847070007D02088308047E02088DD
:1000C00030800E2005B0F0BD6888FFF7F5FC010018
:1000D00006D12248FFF7F0FC01000DD068880880A7
:1000E00000200C22424352189288002A08D0401C5B
:1000F0000528F6DB09202DE0208830800920E1E783
:100100000C22504340182146001D06F02DFA0C2207
:10011000214601A806F028FA10200090A2886888DD
:1001200000231721F7F774FF039000280BD0A28853
:10013000A16806F019FA688801A9F5F70FF80028F8
:1001400005D01620BEE7208830801120BAE7384657
:10015000B8E7012021883180B4E70000FFFF0000EC
:10016000F3B5024689B00832064604924088F4F797
:10017000B7FE079005A8049A00901379518810885B
:10018000521DF7F733FC002504462F46002C20D0E3
:100190006A46217A7088928AF7F7DDFE070015D14A
:1001A00031790798504B801F0890039180B200224C
:1001B00000930192029019460839CB6869468A8AF1
:1001C00070882146F7F7F8F9070005D00A98618989
:1001D0000180002D70D079E0002D0DD0434841887A
:1001E000414808380089021D91426FD14019089991
:1001F000001D88426ADC10E0122000907088002305
:100200003B4A1121F7F704FF38490028486036D0EF
:10021000354808380089001D48803449A07A4A686A
:1002200006AB505562896D1C4968A8B2120A0A547F
:10023000401C85B2049841886846828A2046F7F7B8
:100240000FFC040021D06A462849108B4A6850559B
:100250006A46128B6D1C4B68A8B2120A1A54401CD5
:1002600085B248682049401908390A89C96806F0EA
:100270007BF91D4808380089281885B286E70A9856
:100280006189018011200BB0F0BD1849FF22486838
:1002900042556D1CA8B24B68134D1A54401C84B2D1
:1002A0004868083D00192A89E96806F05DF928893F
:1002B000201885B28DE7FFE70498002F01880A987F
:1002C000018000D10A273846DDE7FFE7074C2846C2
:1002D0006188F3F79FFF208070882146F4F766FF5E
:1002E0000028D0D01620CEE748490020B870002062
:1002F000FFFF0000F3B5054687B0083005902F8951
:100300006888F4F7EDFD0024001F01940490049820
:10031000A0426FDB06A80090059803794188421D32
:100320003846F7F763FB060064D06A467789317A6E
:100330006888128BF7F70FFE019000285AD12879B0
:100340000499394B89B202910022009301920390E3
:1003500019460839CB6869460A8B68883146F7F731
:100360002BF90190002845D1002C08D02F48418856
:100370002D4808380089801C81423DD110E01320AF
:100380000090688800232A4A0921F7F741FE27498F
:100390000028486028D0244808380089801C4880FC
:1003A00021480838008901190498814222DC1F493C
:1003B000B07A4A6810557289641C4B68A0B2120A60
:1003C0001A54401C184E84B24868083E00193289FD
:1003D000F16806F0C9F83089201884B214488742C1
:1003E00095D07F1CBFB292E708980780112009B012
:1003F000F0BDFFE7002C0DD00C4E20467188F3F7BE
:1004000009FF308068883146F4F7E8FE0028EED016
:100410001620ECE70198002801D10A2001900898E5
:1004200007800198E3E7000048490020B8700020E9
:10043000FFFF0000F3B5044687B0083005906088E0
:10044000F4F74EFD0646002560E005986900006857
:100450004018417802780802104306A90490F7F783
:10046000A1FA01001DD02079BAB2334F02920023C5
:100470000097019303903A46083AD3686A46608829
:10048000128BF7F799F8070016D0089804990180A5
:100490002A484068002801D006F0D6F8384609B04E
:1004A000F0BD08990498088024484068002801D0CD
:1004B00006F0CAF80120F2E7204F786800280AD138
:1004C00014200090608800231D4A0F21F7F7A0FD3B
:1004D000786000282BD01849388808390A89521CBE
:1004E0008218B24202D9321A521E0A81134A0F46AA
:1004F000526810180A89C96806F036F80F48398919
:10050000008840180D496D1C0880ADB205988088A0
:10051000A84204D90948771E0088B84295DB608854
:100520000649F4F773FE0028B9D01620B7E70899FA
:10053000049808801120B2E748490020B8700020D4
:10054000FFFF0000F7B5044684B00546174608349F
:10055000008902A9F7F726FA030032D0187A80063C
:100560000ED568460089FFF793FA060006D0688822
:1005700012221946B047002802D023E00E2021E0C5
:10058000607A002801D0522000E0287900260096E9
:1005900001906388218868886268F7F79BF90028D2
:1005A00002D016280BD00DE0607A002810D16888A0
:1005B000F4F774FE002800D0162007B0F0BD3E709E
:1005C00006E00120059922880A80617A0029F4D08A
:1005D0000020F2E7FEB54C68089D66782778340263
:1005E0000E783C43022E02D1054EB44201D00120C8
:1005F000FEBD022400950194F6F794FFFEBD0000B5
:1006000002290000F8B505461D48854224D0461C45
:10061000002922D001292CD002291DD101212846F0
:1006200001F05AFD002817D12846FEF7FBFF040011
:1006300012D0A0780026FF280DD0FE2806D0009604
:10064000E0781E2314222946FFF758F82046FFF7CA
:10065000DBF9FF20A0702671F8BD2846FEF7E2FF07
:100660000028F9D13046FEF7DDFF0028F4D00580E0
:10067000F8BD2846FEF7D6FF0400F9D02680D8E75B
:10068000FEFF000038B5040010D0A078FF280DD080
:10069000FE280BD0002000902188E0781E2317222E
:1006A000FFF72CF8FE20A070FF20E07038BD10B5D9
:1006B0000C46FEF7B7FF002806D00279511CA14274
:1006C00002D1D109C901017110BD0000F7B58878C8
:1006D00000258AB00C461E2802D0122819D115E038
:1006E0000A98FEF79FFF050025D0A878FE2822D0A3
:1006F000FF2820D000200090A378E87800220A99F3
:10070000FEF7FCFF2846FFF77FF914E06078012828
:1007100014D00A98FEF786FF05000FD02A79002A28
:100720000CD0100607D4A1780A98FFF775F928793C
:1007300080210843287100200DB0F0BDA178480841
:10074000C200344810188038876FC66F324840782E
:10075000FF280DD019290BD2002F09D0002E07D069
:100760002078002802D16278002A03D0122901D013
:1007700006274CE003A90091A3886178A268B847D6
:10078000070044D103A90A98B047070020D0607839
:1007900000283CD1A078694608710F72A0780E2815
:1007A0000FD08889C88001A90A98F4F73FFB070099
:1007B0002DD001AB012216210A98F7F739FA074626
:1007C00025E0039841780278080210436946E9E77A
:1007D000A378042B1BD003A800900F480022407878
:1007E0000A99FEF78BFF070011D1A17803A8FEF745
:1007F0003BFF002802D00C9900200870A078122836
:1008000002D16178012902D0002D00D0287138462C
:1008100092E70000D86F01004049002000B5034670
:10082000F7F743FB002802D01818401E83B2184681
:1008300000BD10B51924A401624306F063F910BD90
:1008400010B5040008D02078FF2805D0FE2803D07A
:1008500006F0DAF9FF20207010BD0000F7B50F4652
:1008600004465321102005F09BFE0646532110201C
:1008700005F096FE0546002E34D0002D2DD0102216
:10088000002105F067FF324629462046F8F79CFF15
:10089000040023D13078000609D52946304601F0FE
:1008A00023FA3A461349284606F020FA03E039466F
:1008B000304601F019FA3878000609D5294638463D
:1008C00001F012FA0B492846029A06F00FFA05E0E9
:1008D0003846029901F008FA00E01324304605F08A
:1008E000B3FE00E01324002D02D0284605F0ACFE34
:1008F0002046FEBD8D700100F8B5069800261D4605
:1009000014460F46002801D00B20F8BD387800218E
:10091000022801D0198016E0786842780378100226
:100920001843294BC21A984225D007DC274A801A5F
:100930000BD0012817D0022804D13DE0012A1FD096
:10094000A32A39D0298001263BE0F86806F093F904
:1009500082B20798824200D902462A80F96820466E
:1009600005F002FE2DE0F868022100882980207041
:10097000000A607025E0062028800246F968EEE74C
:10098000F868002816D00821298001782170018894
:10099000090A61708178A1704188090AE1700179C2
:1009A00021718188090A61718179A171C088000A69
:1009B000E07106E0298004E001202880F8680078D2
:1009C00020703046F8BD0000032A0000002A000015
:1009D00010B50B78840702D50224234301E0FD24DF
:1009E00023400B7003060B7802D58024234301E0DB
:1009F0005B065B0E0B7003070B7802D508242343BC
:100A000001E0F72423400B7083060B7802D52024E5
:100A1000234301E0DF2423400B708221084203D1ED
:100A2000010701D4810603D510780C21084304E0A6
:100A3000002803D11078F3210840107010BD000089
:100A4000FFB581B0087800240A9E1F460D46022893
:100A500013D168684178027808021043394A811A34
:100A600090425ED005DC3849401A0AD0012804D1F2
:100A70002DE0012943D0A42962D00124204605B0ED
:100A8000F0BDE86806F0F7F880B2864205D8F019A4
:100A90000090152803D90D24F0E70724EEE7E86855
:100AA0003A468019039905F05FFD0098162180B23F
:100AB0000A1AE9680818002105F04CFE23488068EE
:100AC0000028DBD00268002AD8D0002112E0002ED6
:100AD00013D1022BDFD10398E96842780378100222
:100AE00018430880194880680028C7D00268002A87
:100AF000C4D0012101989047C0E70B24BEE7002E27
:100B0000FBD1062BC7D10622E868039905F02CFD1E
:100B10000E4880680028B1D00268002AAED00321B8
:100B2000E8E7002EE9D1012BB5D103980078002821
:100B300003D0012801D08024A0E7E96808709DE770
:100B400003249BE7022A0000002A000084480020BA
:100B5000FFB581B00498164600280CD001210198F9
:100B600001F0BAFA002809D0214F00253878002E6C
:100B700006D0387905E0012005B0F0BD1420FBE770
:100B80003D7985421AD23A6929018C186188002979
:100B900002D06D1CEDB2F4E7002C0FD0002E0FD068
:100BA0001449202005F0FCFCE060002806D020223B
:100BB000002105F0CFFD4035658003E01520DBE71F
:100BC0000020E060002020700198E080002E08D016
:100BD000707A2072B88AE168301A0011000908772B
:100BE00001E002982072049804600020C4E700002D
:100BF0009C4A0020024C00000A7802700A88120AFF
:100C000042700B880222012B02D0022B07D011E088
:100C10008A7882704988090AC17004220AE08A78B9
:100C200082704A88120AC2700A7902718988090A98
:100C300041710622104670470A7802700A88120A2B
:100C400042708A7882704A88120AC2700A790271E8
:100C50008A88120A42718A798271CA88120AC2711C
:100C60000A7A02720989090A41720A2070470A78D1
:100C700002700A88120A42708A7882704988090ACA
:100C8000C170042070470A7802700A88120A427004
:100C90008A7882704988090AC170042070470A78EE
:100CA00002700A88120A42708A7882704A88120A90
:100CB000C2700A7902718A88120A42718A79827135
:100CC000C988090AC171082070470A78027009882A
:100CD000090A417002207047F8B50D460646002407
:100CE00017E0396920014718387800280FD0F888B4
:100CF000B0420CD1072D02D17888F7F7B7FE2A460B
:100D00000021384600F0EDF9384600F0FFF8641C89
:100D1000E4B2164F38798442E3D3002D18D0F8BDE1
:100D2000396920014518287800280FD0687AFF28F3
:100D30000CD0E888B04209D1284600F0B9FF142150
:100D4000284600F04EFA284600F0E0F8641CE4B2B1
:100D500038788442E4D304242046641CE4B2FF22A1
:100D6000314600F0EDF8082CF6D3F8BD9C4A00207F
:100D700070B504460D464088F7F778FE2A460021F4
:100D8000204600F0AEF9204600F0C0F870BD00002B
:100D9000F3B5088981B00D46002803D0254909889C
:100DA000884201D91B20FEBD0421686805F08AFB3A
:100DB000297A0446017028891F4E010A617029783A
:100DC000A17028880227010AE1702889001D85B2D8
:100DD0000198B04211D10C2005F0C4FC01000AD0EA
:100DE000902008704E800F71CD8014488C60007880
:100DF00005F02CFD16E01320FEBD23462A460021F7
:100E0000F7F74AFB0E49002807D002280CD0072824
:100E10000CD012280CD01F28EED10878002801D061
:100E2000401E08700020FEBD1420FEBD0420FEBD43
:100E30000220FEBDA64A0020FEFF0000A44A0020BA
:100E40009D4A002030B5094C05460021237809E071
:100E50002269080180184288002A01D0AA4204D0E1
:100E6000491CC9B29942F3D3002030BD9C4A0020EE
:100E700030B50A4A0446002113780AE015690801D2
:100E800040194588002D02D00579A54204D0491C9F
:100E9000C9B29942F2D3002030BD00009C4A002024
:100EA00030B50A4B0021DC780BE05D690A01AA5AD3
:100EB000002A04D0824202D10801401930BD491CE9
:100EC000C9B2A142F1D3002030BD00009C4A0020ED
:100ED00070B50D4D064600222C7910E02B691001EB
:100EE000C0184388002B08D0C388B34205D1C3681B
:100EF000002B02D05B888B4204D0521CD2B2A2429B
:100F0000ECD3002070BD00009C4A002070B5C4687E
:100F10000546002C0CD0E068002801D005F094FBB9
:100F20006069002801D005F08FFB204605F08CFB9E
:100F300010220021284605F00DFCFF20687270BDCC
:100F40000C23584310B5094BC418303C60898842C3
:100F50000BD16068002808D0FF2A02D001789142A6
:100F600003D105F071FB0020606010BDBC71002052
:100F7000F3B5C46889B00026054602AF002C20D026
:100F8000E068002802D005F05FFBE6602088694633
:100F90004881608888812089C881608A4882208A47
:100FA00008826888088100960197E988287A642376
:100FB0000A9A00F03DF90A986077668226820BB0A3
:100FC000F0BD0C220021384605F0C4FB6888694654
:100FD000088100960197E988287A64230A9A00F02C
:100FE00027F9ECE770B50C46054612220021204691
:100FF00005F0B0FB002D1DD0287F01010E4842698D
:10100000515A2180297F42690901891849886180E4
:101010004189A1802988E18069882181A98861812D
:10102000E988A1812989E181297F4069090108189E
:10103000C088208270BD00009C4A002010B5044684
:10104000084884420DD0012907D0022909D1012185
:10105000204601F041F8002803D100212046FFF787
:101060003BFE10BDFEFF000010B50721FFF734FE68
:1010700010BD10B5040009D06088002806D01721E3
:10108000204600F0AEF82046FFF740FF10BDF0B557
:10109000002689B015460446002907D0009601961F
:1010A000E5880A46007A6023294616E016220021C8
:1010B00002A805F04FFB6846058102AF002D06D15E
:1010C000608869464881391DE068FFF78BFF01970A
:1010D00000963246E188207A602300F0A9F809B032
:1010E000F0BD10B588B0002901D000230AE06B469E
:1010F0009A8142881A81C368002B02D05A886B46B5
:101100005A8102AB002201930092C4880A46007AF9
:101110006023214600F08CF808B010BD7FB5C2688E
:101120000D460446002A21D0508869464881622D28
:1011300006D01849107F096800014018C08812E0E5
:101140001548D1880088814200D20846C1B2107C7F
:10115000528A801AC0B2002A01D1801CC0B2401845
:10116000401EF3F76DF86946888104E006220021ED
:1011700002A805F0EFFA60886946088102A90020FC
:1011800001910090E188207A2B46002200F050F86F
:101190007FBD0000B04A0020A64A0020F8B50746EF
:1011A00015460E46102005F0DDFA040017D0A020E9
:1011B0002070002066806070002D05D00C2229462A
:1011C000201D05F0D1F904E00C220021201D05F0BE
:1011D000C1FA2146384605F039FB0020F8BD012050
:1011E000F8BD7CB50446007804280AD0022815D042
:1011F000062813D0032803D100222046FFF771FFF1
:101200007CBD002000900190E5880A46207A1323D7
:10121000294600F00DF8E188122205E00022204660
:10122000FFF735FFE18814220520FFF789FE7CBD1A
:10123000FFB581B01E46174620200B9D05F092FA9F
:1012400004001AD0A22020706770029860800A986B
:1012500020716671002D06D02046182229460830DC
:1012600005F082F905E0204618220021083005F03B
:1012700071FA2146019805F0E9FA05B0F0BD0000C9
:10128000F0B507460D4C00200146257812E0236991
:101290000A019E5C002E0BD0D218D268002A07D01B
:1012A000127F63691201D218BA4201D1401CC0B248
:1012B000491CC9B2A942EAD3F0BD00009C4A0020F3
:1012C000022A01D2012070474A780B7812021A4391
:1012D0000280012A02D0022A06D00FE0CA788B7859
:1012E00011021943418009E0CA788B7812021A432F
:1012F00042804A790B79110219438180002070479E
:101300000A2A01D0012070474A780B7812021A434A
:101310000280CA788B7812021A4342804A790B798C
:1013200012021A438280CA798B7912021A43C28050
:101330004A7A0B7A11021943018100207047042A6E
:1013400001D0012070474A780B7812021A430280BC
:10135000CA788B7811021943418000207047042A13
:1013600001D0012070474A780B7812021A4302809C
:10137000CA788B7811021943418000207047F8B574
:1013800006460020706008790D46022825D1E988BC
:10139000042922D3A868427803781702C27880789B
:1013A00014021F430443381D814216D1042C0AD075
:1013B000052C08D0062C06D0072C04D02046FFF7B9
:1013C00041FD002809D0378134800321C943A86832
:1013D00005F078F870600020F8BD0120F8BD022A01
:1013E00001D0012070474A780B781102194301801F
:1013F000002070470A7802704A784270CA788B7869
:101400001102194341807047FEB5064614465088C4
:1014100000220D467F2808D90220694608804A80AC
:1014200060888880E9B26A460BE0A188172904D356
:10143000E088172801D3814207D268460280E9B2CA
:101440006A463046F7F7ECFAFEBD02922088FFF7B5
:1014500027FD07002FD0FFF713FF397A884207D204
:1014600002AB3A46FF213046FFF772FB002801D05D
:10147000042221E002982189C068018061884180AE
:10148000A1888180E188C180B9880181FB68002B37
:101490000FD0E9B22246304698470A4902468842B0
:1014A0000AD102980621017005711E2100F0EAFBA5
:1014B000FEBD002200E0022229463046029B00F0D9
:1014C0005BFAFEBDFFFF0000F7B5087802278AB07F
:1014D00013460C4606280AD0122832D0142846D0CB
:1014E0000026162850D068460684497878E0A2780D
:1014F000194602A8FFF723FF050069D16846008955
:10150000FFF7A0FC060010D038480090627802ABCC
:1015100007210A9800F0FCF9022200213046FFF76B
:10152000E0FD3046FFF7F2FC51E069460F84088980
:10153000488448898884617808AA0A98F7F770FA7D
:1015400045E06288194602A8F7F73DFB05003ED149
:101550002748818900293AD0617802AA0192009136
:101560002378807B00220A99FFF762FE2FE06288D1
:10157000194602A8F7F7F8FA050028D1617802AAFF
:101580000A98FFF741FF22E06288194602A8F7F7A0
:101590000AFB05001BD1684601890A98FFF798FCF1
:1015A000002817D0C068694602884989891809044B
:1015B000090C01800BD0C068002808D00D480078C5
:1015C000002804D00C480121007805F091F9284644
:1015D0000DB0F0BD69460F844E8408898884617817
:1015E00008AA0A98F7F71CFA3046F1E7870C0100C1
:1015F000BC7100209D4A0020A44A0020F7B588B0A5
:101600000D464878FFF734FC0127044600282FD008
:101610000020207160802E78012E06D0072E0AD07F
:10162000132E18D0152E20D022E0AA7802A80A99ED
:10163000FFF746FE17E02078032819D1AA7802A800
:101640000A99FFF78CFE05004BD1012200212046AC
:10165000FFF747FD45E02078042809D1AA7802A8C1
:101660000A99FFF7BCFE05463BE02078022802D02D
:1016700000200BB0F0BDAA7802A80A99FFF740FE3F
:1016800005002ED16846008A0021002824D1684632
:1016900000890246403A402A07D26A465289172AF0
:1016A00003D36A469289172A06D2E1684880608887
:1016B000F7F7DCF902210FE06A46E068D289028080
:1016C0006A46128942806A46528982806A469289B5
:1016D000C2800120207000276846028A2046FFF75A
:1016E000D6FC204600F0E4FA02A900200191009007
:1016F000207A33462A460899FFF79AFD002F02D038
:101700002046FFF703FC2846B3E7000030B587B05A
:1017100004464588014602A8FFF731FE03990029D7
:101720001AD068460089052819D0042849D006280F
:1017300047D0072845D002A9284600F059F80028CC
:1017400008D0A068002801D004F07EFF01212846BF
:10175000F7F7A6F907B030BD0028F7D0F1E76846E3
:10176000008A0428EDD301A8FFF744FE6846C0882C
:10177000182809D30120694688821720C882497930
:1017800005AA2846F7F74CF96846018AC088001D6B
:10179000814202D02846FFF767FC68460079039A29
:1017A000C00701A9284603D0121DFFF727FF02E05A
:1017B000121DFFF789FE0028C3D02846FFF754FC0E
:1017C000BFE70C21484309494018303801880029F7
:1017D000B7D0807802AA2946FFF7E0FC0028B0D1F4
:1017E000684600890428B1D1B4E70000BC7100202C
:1017F000F3B583B00D460888FFF724FB060076D0CA
:10180000F468002C73D0F188039881426FD120894D
:10181000002874D0401E80B22081217F0A013A49FD
:1018200009685118C988884203D163213046FFF7FF
:1018300075FC6069002828D16868417802780F0239
:1018400017432A89B91C8A420DD10121C94304F0EA
:1018500039FE68602F81307A2A460399FFF79EFC93
:10186000002845D00EE02949384604F099FE606111
:1018700027830121C943686804F024FE6860288931
:10188000801E28816069002837D02A89608B238BCD
:101890001118994201D9042132E0237F1F011A4B0C
:1018A0001B68FB185B88994225D86169081869682C
:1018B00004F05AFE2889618B401880B26083218B26
:1018C000884214D170886946088060690190208B35
:1018D0000881307A6A460399FFF760FC002802D03D
:1018E000606904F0B1FE0020606160832083012004
:1018F00005B0F0BD03E0052102E0092100E006216A
:101900003046FFF735FAF2E7B04A0020014C0000FC
:10191000FFB583B00E461546022117200C9FF7F73E
:1019200011FA040023D0002F03D0201D0699B847D8
:1019300000E0002026706570A070010AE170694621
:10194000001D0881052008800A48019400780028BD
:10195000039802D0FFF71CFA01E000F0B1F905008E
:1019600002D0204604F070FE284607B0F0BD1320D8
:10197000FBE700009D4A0020F0B585B015460E46F5
:1019800007461C460A22002101A804F0E3FE68462F
:101990008581002D12D160886946888015480088AD
:1019A0000881E068002809D0134A017F1268090104
:1019B000891849886A46D180008950810F48009073
:1019C000F2B201AB15213846FFF7A2FF060007D09F
:1019D000002D05D02046FFF799FA304605B0F0BD3E
:1019E0000120207000202071024601462046FFF7AA
:1019F0004EFBF2E7A64A0020B04A0020390C010055
:101A00003EB504281DD30C210F4A41438C18303CAD
:101A10006168002915D00D4A1278002A0FD06A4655
:101A2000108001912089108160896946FFF7B0F923
:101A3000002802D0606804F007FE002060600120EA
:101A40003EBD00203EBD0000BC7100209D4A00202C
:101A5000F8B5214F3E7834462048210100680D1822
:101A6000287801282DD1E96800292AD0C8680028E3
:101A700027D0088800281AD019480078002814D0E8
:101A8000164821010068081800F09CF8010003D0F6
:101A90002846FFF76DFA1DE01248641C0078844266
:101AA00001D23C7001E0002038700120F8BD487F71
:101AB000FF2806D128466221FFF730FBE9680020A5
:101AC00048770848641C0078E4B2844200D30024BC
:101AD000B442C1D10020F8BDA34A0020AC4A002086
:101AE0009D4A0020A04A002010B50520FFF788FF7E
:101AF00000280ED10620FFF783FF002809D104201B
:101B0000FFF77EFF002804D10720FFF779FF0028A8
:101B100001D0012010BD034800780028FAD0FFF75B
:101B200097FF10BDA04A0020FFB583B014460D46B4
:101B30000C9F0E9A0D991E46062D13D001AB0398EB
:101B4000FFF706F800281BD10198052207701C4BEF
:101B500042801978FF2915D00171491C1970142D84
:101B600014D018E06088FFF76DF90190002806D0C6
:101B7000C068408820800198C0880390E4E7022074
:101B800007B0F0BD012119700171E8E7628001988A
:101B90002189C0680181019800960279234629466F
:101BA0000398FFF7B5FE040003D00198FFF7AEF9E4
:101BB00003E01E21019800F065F82046E0E70000F0
:101BC000A24A0020F1B584B00498C4682C48E68885
:101BD0000088B04200D20646608A002804D0218ADC
:101BE000081AB04204DB05E0208A801CB04201D212
:101BF00085B200E0354602212846F7F7A3F8070032
